:020000022000DC
:10600000000001200116030041160300431603009F
:106010004516030047160300491603000000000060
:10602000000000000000000000000000953B03009D
:106030004D16030000000000B53B0300511603009D
:106040005316030053160300FD4B030053160300C1
:106050005316030053160300531603005316030090
:106060005316030053160300531603005316030080
:106070005316030053160300531603005316030070
:1060800053160300ED3803005316030053160300A4
:10609000531603005316030075A60200531603009F
:1060A0005316030053160300531603005316030040
:1060B0005316030053160300000000000000000008
:1060C0005316030053160300531603005316030020
:1060D000531603005316030053160300000000007C
:1060E00000000000000000000000000000000000B0
:1060F00000000000000000000000000000000000A0
:10610000000000000000000000000000000000008F
:10611000000000000000000000000000000000007F
:10612000000000000000000000000000000000006F
:10613000000000000000000000000000000000005F
:10614000000000000000000000000000000000004F
:10615000000000000000000000000000000000003F
:10616000000000000000000000000000000000002F
:10617000000000000000000000000000000000001F
:10618000000000000000000000000000000000000F
:1061900000000000000000000000000000000000FF
:1061A00000000000000000000000000000000000EF
:1061B00000000000000000000000000000000000DF
:1061C00000000000000000000000000000000000CF
:1061D00000000000000000000000000000000000BF
:1061E00000000000000000000000000000000000AF
:1061F000000000000000000000000000000000009F
:10620000F1EE103A43F08073E1EE103A704700BFB0
:1062100010B5054C237833B9044B13B10448AFF3E0
:1062200000800123237010BD8C3800200000000086
:10623000EC9A030008B5034B1BB103490348AFF3C5
:10624000008008BD0000000090380020EC9A030098
:10625000154B002B08BF134B9D46A3F5803A002138
:106260008B460F461348144A121A0FF0FFFB0F4BD0
:10627000002B00D098470E4B002B00D098470020F1
:10628000002104000D000D48002802D00C48AFF397
:1062900000800FF081FB200029000EF025FD0FF09B
:1062A00055FB00BF000008000000012000000000B6
:1062B000000000008C380020247A0020000000003C
:1062C00000000000F0B5044683B00F4616461D4698
:1062D0000EF0B2FD0022C4E903766561204600920B
:1062E0002346044A4FF4FA710EF0AEFD204603B087
:1062F000F0BD00BF7D650200F0B504468DB00E46CE
:1063000015460EF0EDFD237EF3B901231A4A0093E2
:106310003146234620460EF097FD4FF4FA620021E5
:1063200004F124000FF0A2FB0023E3613DB1B5F5B9
:106330007A7F28BF4FF47A7525620DB0F0BD4FF417
:106340007A7525620DB0F0BD206900F0F1FF0B4BAE
:106350000B490093112200F1200302A810F040FA2B
:10636000676902A810F091FABB6902465B6807F101
:10637000180002A99847C8E77D650200D490030081
:10638000C890030070B504468CB00D460EF0A8FD11
:10639000237E93B901232946009320462346134ABE
:1063A0000EF052FD4FF4FA62002104F124000FF0C8
:1063B0005DFB0023E3610CB070BD206900F0B8FF05
:1063C0000B4B0C490093112200F1200302A810F09E
:1063D00007FA666902A810F058FAB36902465B68CA
:1063E00006F1180002A99847D4E700BF7D650200B6
:1063F000D4900300C890030031B1B1F57A7F28BF73
:106400004FF47A71016270474FF47A7101627047FC
:1064100041767047006900F041BF00BF2DE9F047A9
:10642000141E82B002AF4CDD642C304D0646884607
:10643000E94621DDB6B0F06800F07AFF0DF1080AF8
:1064400020300090442311222946504610F0C8F90C
:1064500041460DF10D00C8220FF0E0FA7069836922
:1064600051465B681830D222643C9847642CCD4674
:1064700008F1C808E946DDDC651D6D00EB1D23F061
:106480000703ADEB030D012CF0680DF1080A1BD1D9
:1064900000F04EFF20301549009011226423504631
:1064A00010F09EF9B8F8002011490DF10D0010F020
:1064B00097F9706983692A465B6851461830984796
:1064C000CD46BD46BDE8F08700F032FF2030009099
:1064D000064944231122504610F082F94146A5F1A5
:1064E0000A020DF10D000FF099FAE2E7DC900300CB
:1064F000E890030070B5044682B0C06800F0C2FEA8
:10650000637E0646C3B9E06800F0BCFE637E0546C4
:1065100043B92046012201A9ADF80450FFF77EFFE0
:1065200002B070BD2069002100F0B8FE637E002B30
:10653000EFD0A81B85B2ECE72069012100F0AEFE88
:10654000E1E700BF0A1E38B5044613DDB2F5FA6F65
:1065500028BF4FF4FA6204F1240529462046FFF7CC
:106560005DFF28464FF4FA6200210FF07FFA002306
:10657000E36138BD4FF4FA62EDE700BF70B50DF08E
:1065800051F90446C06800F07DFE637E06467BBB81
:10659000E06800F077FE637E05464BB9D4E9073228
:1065A00004EB4301013393428D84E3610AD270BD51
:1065B0002069002100F072FE637E002BEED0A81B44
:1065C00085B2EBE7002A18DDB2F5FA6F28BF4FF469
:1065D000FA6204F1240529462046FFF71FFF2846EA
:1065E0004FF4FA6200210FF041FA0023E36170BD1D
:1065F0002069012100F052FECAE74FF4FA62E8E791
:1066000070B50446C06800F03DFE637E06467BBB65
:10661000E06800F037FE637E05464BB9D4E90732E7
:1066200004EB4301013393428D84E3610AD270BDD0
:106630002069002100F032FE637E002BEED0A81B03
:1066400085B2EBE7002A18DDB2F5FA6F28BF4FF4E8
:10665000FA6204F1240529462046FFF7DFFE2846AA
:106660004FF4FA6200210FF001FA0023E36170BDDC
:106670002069012100F012FECAE74FF4FA62E8E750
:1066800010B54FF4FA620446002124300FF0EEF901
:106690000023E36110BD00BF10B504468CB031B9D2
:1066A00020460EF0E9FB237E7BB90CB010BD4FF401
:1066B000FA62002124300FF0D9F90023E36120466B
:1066C0000EF0DAFB237E002BEFD0206900F030FEC5
:1066D0000A4B0B490093112200F1200302A810F08D
:1066E0007FF8646902A810F0D0F8A36902465B68DD
:1066F00004F1180002A998470CB010BDF0900300F7
:10670000C890030010B504468CB00EF0E9FB237E60
:106710000BB90CB010BD206900F00AFE0A4B0B4902
:106720000093112200F1200302A810F059F86469C7
:1067300002A810F0AAF8A36902465B6804F11800E9
:1067400002A998470CB010BDD4900300C890030074
:106750000176704710B50DF065F8044610300EF064
:106760008BFBA06A012100F099FD0723236210BD75
:1067700010B50DF057F8044618300EF07DFBA06AF6
:10678000002100F08BFD0323236210BD30B58DB0D6
:106790000DF048F800F1080504460EF0A1FB28466C
:1067A0000EF09EFB04F110000EF09AFB04F11800AD
:1067B0000EF096FB0021A06A00F070FD002323621A
:1067C00028460EF059FB94F82C30012222620BB9B6
:1067D0000DB030BDA06A00F0ABFD0B4B0B49009330
:1067E000112200F1200302A80FF0FAFF646A02A848
:1067F00010F04BF8A36902465B6804F1180002A987
:1068000098470DB030BD00BFFC900300C890030056
:1068100010B58CB00DF006F804460EF02DFB04F117
:1068200010000EF029FB94F82C30072222620BB9DD
:106830000CB010BDA06A00F07BFD0B4B0B49009320
:10684000112200F1200302A80FF0CAFF646A02A817
:1068500010F01BF8A36902465B6804F1180002A956
:1068600098470CB010BD00BF04910300C89003000E
:106870002DE9F04700F1080982B004460F4616469C
:1068800000F1100A0EF0D8FA48460EF0D5FA04F1DD
:10689000180850460EF0D0FA002540460EF0CCFA0B
:1068A000C4E90967256223462046104A00954FF443
:1068B0007A710EF0C9FA484623460D4A00954FF406
:1068C0007A610EF0C1FA504623460A4A00950A2121
:1068D0000EF0BAFA4046084A0095234628210EF0E9
:1068E000B3FA204602B0BDE8F08700BF8D67020012
:1068F0001168020071670200556702002DE9F04F30
:1069000000F1080B8DB017461E460446884600F17C
:10691000100A0EF0E5FA58460EF0E2FA04F11809F2
:1069200050460EF0DDFA48460EF0DAFAA06A002171
:1069300000F0B4FC94F82C3000222262FBB9002550
:106940004146234620461A4A00950EF07DFA394604
:1069500058462346174A00950EF076FA31465046BF
:106960002346154A00950EF06FFA144A16990095C1
:10697000234648460EF068FA0DB0BDE8F08FA06AD5
:1069800000F0D6FC0E4B0F490093112200F12003BA
:1069900002A80FF025FF656A02A80FF076FFAB6929
:1069A00002465B6805F1180002A99847C7E700BFD7
:1069B0008D670200116802007167020055670200CE
:1069C000D4900300C890030070B50D468CB0044607
:1069D0004AB9002300931C4A2946234620460EF05C
:1069E00033FA0CB070BD0EF07BFA04F108000EF023
:1069F00077FA04F110000EF073FA04F118000EF0AB
:106A00006FFAA06A002100F049FC94F82C300022B3
:106A10002262002BDDD0A06A00F08AFC0B4B0C49EF
:106A20000093112200F1200302A80FF0D9FE666A3C
:106A300002A80FF02AFFB36902465B6806F118004E
:106A400002A99847C5E700BF8D670200D4900300F4
:106A5000C8900300F0B50E468DB0044600F108055D
:106A60004AB90022009223461A4A314628460EF0BF
:106A7000EBF90DB0F0BD0EF033FA28460EF030FA07
:106A800004F110000EF02CFA04F118000EF028FAB0
:106A9000A06A002100F002FC94F82C30002222624F
:106AA000002BDED0A06A00F043FC0B4B0B49009397
:106AB000112200F1200302A80FF092FE676A02A8DB
:106AC0000FF0E3FEBB6902465B6807F1180002A9FC
:106AD0009847C6E711680200D4900300C8900300ED
:106AE000F0B50E468DB004465AB900F110050022EB
:106AF000009223461B4A314628460EF0A5F90DB0F8
:106B0000F0BD0EF0EDF904F1100504F108000EF0EF
:106B1000E7F928460EF0E4F904F118000EF0E0F968
:106B2000A06A002100F0BAFB94F82C300022226207
:106B3000002BDCD0A06A00F0FBFB0B4B0B49009351
:106B4000112200F1200302A80FF04AFE676A02A892
:106B50000FF09BFEBB6902465B6807F1180002A9B3
:106B60009847C4E771670200D4900300C8900300FF
:106B7000F0B50E468DB004465AB900F11805002252
:106B8000009223461B4A314628460EF05DF90DB0AF
:106B9000F0BD0EF0A5F904F108000EF0A1F904F122
:106BA000180504F110000EF09BF928460EF098F934
:106BB000A06A002100F072FB94F82C3000222262BF
:106BC000002BDCD0A06A00F0B3FB0B4B0B49009309
:106BD000112200F1200302A80FF002FE676A02A84A
:106BE0000FF053FEBB6902465B6807F1180002A96B
:106BF0009847C4E755670200D4900300C89003008B
:106C000010B504460EF06CF904F108000EF068F9B6
:106C100004F110000EF064F904F118000EF060F9B0
:106C2000A06A002100F03AFB0023236210BD00BFE0
:106C300010B504468CB00EF053F904F108000EF0C4
:106C40004FF904F110000EF04BF904F118000EF0AA
:106C500047F9A06A002100F021FB94F82C300022B3
:106C600022620BB90CB010BDA06A00F061FB0B4BA7
:106C70000B490093112200F1200302A80FF0B0FD90
:106C8000646A02A80FF001FEA36902465B6804F182
:106C9000180002A998470CB010BD00BFD4900300A3
:106CA000C890030010B504468CB00EF0E5F804F16E
:106CB00010000EF0E1F894F82C30072222620BB994
:106CC0000CB010BDA06A00F033FB0B4B0B490093D6
:106CD000112200F1200302A80FF082FD646A02A8CD
:106CE0000FF0D3FDA36902465B6804F1180002A906
:106CF00098470CB010BD00BF0C910300C890030072
:106D000010B504468CB0806A012100F0C7FA94F8EF
:106D10002C300BB90CB010BDA06A00F009FB0B4B76
:106D20000B490093112200F1200302A80FF058FD37
:106D3000646A02A80FF0A9FDA36902465B6804F12A
:106D4000180002A998470CB010BD00BF14910300B1
:106D5000C890030010B504468CB0806A002100F092
:106D60009DFA94F82C300BB90CB010BDA06A00F05D
:106D7000DFFA0B4B0B490093112200F1200302A80C
:106D80000FF02EFD646A02A80FF07FFDA369024692
:106D90005B6804F1180002A998470CB010BD00BF51
:106DA0001C910300C890030080F82C10704700BFAE
:106DB00032DF704741DF7047014B1880704700BFDA
:106DC0009C3900202DE9F04F594C5A4DDFF8A09125
:106DD000DFF8A081584FDFF8A0A1584EDFF89CB132
:106DE00083B020464FF4807104F048F82A46544995
:106DF00020460EF06FFD234600220321514800F08B
:106E0000A1F92346012202214F4800F09BF92346B5
:106E100002221C214D4800F095F9234603221D2132
:106E20004B4800F08FF9234648460422152100F014
:106E300089F9234640460522102100F083F92346B4
:106E4000384606220E2100F07DF9234607220C2148
:106E5000404800F077F9224649465046FFF708FDC2
:106E60002A46314650460EF035FDDFF814A1224681
:106E700041465846FFF7FCFC2A46314658460EF07C
:106E800029FDDFF800B1224639465046FFF7F0FCF5
:106E90002A46314650460EF01DFDDFF8ECA02D4984
:106EA00022465846FFF7E4FC2A46314658462A4E09
:106EB000DFF8D8B00EF00EFD23464A462149DFF830
:106EC000D0905046FFF7FEF92A46314650460EF064
:106ED00001FDDFF8C0A01C49234642465846FFF793
:106EE000F1F92A46314658460EF0F4FC23463A465C
:106EF00016495046FFF7E6F92A46314650460EF04D
:106F0000E9FC2346134A12494846FFF7DBF92A46B3
:106F1000314648460EF0DEFC104B114A114912482A
:106F2000CDE90043114B00F009FA03B0BDE8F08F42
:106F3000A838002000360020905A0020E57002009A
:106F400011AF0200305A0020405A0020505A002051
:106F5000605A0020A05A0020D97002009C390020FD
:106F60001436002024360020B05A002004360020B9
:106F7000705A0020805A002070590020A05900202B
:106F8000D0590020005A0020A03900209441002050
:106F90007C510020884900202DE9F041414B4249B5
:106FA000424FDFF82CC1424A4248434D434EDFF87E
:106FB00024810024C3F80045C1F800454FF0402368
:106FC0004FF08041C7F800450127CCF800458CB050
:106FD000C3F80045C3F80045C2F80045C2F80045B3
:106FE000C0F80045C5F800458020354DC2F8004581
:106FF000C3F80045C6F80045C1F878750DF0CEF924
:107000003846FFF7D5FE0223284603220097F421D5
:1070100003F0FEF82146284603F0E4FA22463946FA
:10702000284603F009F92846042103F09FFA1123AA
:10703000244A254902A80FF0D3FB02A9284603F0F1
:107040006DFA2249284605F5217602F02BFB4046D1
:1070500003F0A2FF3946304601F03AF906213046E6
:1070600001F004F9304601F0E9F84146304601F0FC
:10707000A1F805F5307001F0B3F84FF4C86230465E
:1070800040F2DC5101F020F92146304601F01AF9B6
:107090002146304601F07CF90E200DF079F90CB054
:1070A000BDE8F0810020004000C001400010024017
:1070B000003000400050024000D00140003002404B
:1070C000DC5A0020249103002C910300B96D0200CA
:1070D00000200240A838002010B504460DF084FEC0
:1070E000204610BD10B5044618300DF07DFE04F1A9
:1070F00010000DF079FE04F108000DF075FE204639
:107100000DF072FE204610BD00B50C48B3B003F080
:1071100005FB20B9FFF74EFE33B05DF804FBC82233
:107120006946064803F022FB6946054800F010F95D
:10713000FFF740FE33B05DF804FB00BFA838002025
:10714000B05A002030B5044608460021C4E90113B6
:107150008DB0206062730DF0A3F9237B13B9204634
:107160000DB030BD637B0B4A0B49009220331122D6
:1071700002A80FF035FBA56802A80FF086FBAB69EB
:1071800002465B6805F1180002A9984720460DB039
:1071900030BD00BF3C910300C890030010B5044609
:1071A0008CB04160052912D8DFE801F01129334184
:1071B000031B00684FF0A04300F5E07240F203218A
:1071C00043F8221000210DF003FA0CB010BD006846
:1071D00000210DF065F9237B002BF6D0637B244A58
:1071E00032E000684FF0A04300F5E07240F2032166
:1071F00043F8221001210DF0EBF90CB010BD00682E
:1072000002210DF04DF9237B002BDED0637B194A60
:107210001AE0006801210DF043F9206800210DF00B
:10722000D7F9237B002BD0D0637B134A0CE0006896
:1072300001210DF035F9206801210DF0C9F9237BFA
:10724000002BC2D0637B0D4A0D49009220331122DE
:1072500002A80FF0C5FAA46802A80FF016FBA369F4
:1072600002465B6804F1180002A998470CB010BDF3
:107270003C9103004491030054910300609103008A
:10728000C890030008B54368012B01D9002008BD50
:1072900000680DF0D7F880B208BD00BF30B5436874
:1072A000023B012B8DB003D9002528460DB030BD1F
:1072B000012904460D4626D019B1012528460DB0F6
:1072C00030BD02234360012100680DF0E9F8294632
:1072D00020680DF07DF9257B002DEED0637B114AEF
:1072E000114900922033112202A80FF079FAA46804
:1072F00002A80FF0CAFAA36902465B6804F11800FD
:1073000002A99847D1E70323436000680DF0C8F84D
:10731000294620680DF05CF9257B002DCDD0637BDC
:10732000024ADDE754910300C89003006091030016
:10733000407B70470173704776DF704730B4029D21
:1073400001600399C0E90123C0E9035130BC7047D3
:107350002DE9F04F2DED028B0B46BDB03B2205A968
:10736000064618462C23ADF81420ADF818300FF05F
:10737000CBFA0023014607A8CDE90733ADF8243046
:107380000FF06AFA07A80EF0C9FA112804D040F2EB
:10739000E733984240F01A8105A900200FF0B4FAB3
:1073A0000446002800F01281994DDFF8688200271A
:1073B0006022002124A823970EF058FB214623A821
:1073C0000FF04AFA2422002110A80F970EF04EFB6E
:1073D00006A923A80FF048FA00F10109044649461E
:1073E00023AB2A460FA80FF0C7F914B99DF88C40BB
:1073F00014B123AB03EB09049DF83C30532B40F050
:107400000B819DF83D30002B40F0068106A92046F7
:107410000FF02AFA00F1010A8146514623462A4616
:107420000FA80FF0A9F9B9F1000F03D12378002BB1
:1074300000F01C8354440FA80EF070FA06A9814690
:1074400020460FF011FA00F1010B824659462346FF
:107450002A460FA80FF090F9BAF1000F01D1237856
:107460000BB104EB0B0306A9184603930FF0FCF9CC
:107470009DF83C40039B411C2A460FA80FF07CF965
:10748000502C9DF83C3000F0A680493CA3F1480305
:1074900018BF0124242B00F29180DFE813F0810350
:1074A00065038F008F0096038F008F008F00AB0362
:1074B0008F008F008F008F008F008F008F008F0054
:1074C0008F008F008F008F008F008F008F008F0044
:1074D0008F008F008F008F008F008F008F00C00300
:1074E0008F008F008F007A0306A920460FF0BCF9A9
:1074F00000F1010B8246594623462A460FA80FF099
:107500003BF9BAF1000F00F0A6845C440FA80EF01E
:1075100005FA06A9824620460FF0A6F908EE10AA41
:1075200000F1010A8346514623462A460FA80FF070
:1075300023F9BBF1000F03D12378002B00F0DE8587
:10754000A2440FA80EF0EAF906A9834650460FF0B0
:107550008BF95346411C04462A460FA803910FF0AD
:107560000BF9039924B99AF80040002C00F0D78554
:107570000AEB01030FA803930EF0D0F9039B044616
:1075800006A918460FF070F92A46411C039B0FA864
:107590000FF0F2F80FA80EF0C1F9B9F1030F98BF80
:1075A0007268034618EE101A98BF52F8290000932B
:1075B00088BF002023465A46FFF7A0F905A90020FE
:1075C0000FF0A2F9044600287FF4F2AE3DB0BDEC06
:1075D000028BBDE8F08F443B0A2BEFD801A252F892
:1075E00023F000BF357A0200BD750200BD750200B0
:1075F0000D7B0200BD750200BD750200BD75020065
:10760000BD750200357A0200BD750200CB7A02001A
:107610006C910300249103009DF83C30502B7BD1EA
:107620009DF83D30002B77D106A920460FF01CF9BC
:1076300000F1010A8146514623462A460FA80FF061
:107640009BF8B9F1000F03D12378002B00F0718271
:1076500054440FA80EF062F906A9834620460FF0A5
:1076600003F900F101098246494623462A460FA83C
:107670000FF082F8BAF1000F01D123780BB104EBBF
:1076800009039DF83C900393B9F1490906A91846EE
:1076900018BF4FF001090FF0E7F8039B411C2A4681
:1076A0000FA80FF069F89DF83C30522B00F0E081F4
:1076B00003F0DF024C2A1AD0302B18D0482A00F0F1
:1076C0003A82312B00F03782552B00F0FB83752B6B
:1076D0007FF474AFBBF1030F9BBF33680BEB8909D9
:1076E000002053F829000021FFF724FE66E7BBF1D4
:1076F000030F9BBF33680BEB8909002053F8290067
:107700000021FFF7CBFD05A900200FF0FDF804468E
:1077100000287FF44DAE59E79DF83C304C2B40F0EB
:107720009D809DF83D30002B40F0988006A92046B2
:107730000FF09AF800F1010A8146514623462A4685
:107740000FA80FF019F8B9F1000F00F08981544427
:107750000FA80EF0E3F806A9814620460FF084F842
:1077600000F1010B8246594623462A460FA80FF026
:1077700003F8BAF1000F00F06D815C449DF83C20E5
:10778000433A322A3FF61AAF01A353F822F000BF62
:10779000E9740200BD750200BD7502001B7D020088
:1077A000BD750200BD750200BD750200BD75020009
:1077B000BD750200BD750200BD750200517D02005D
:1077C000A17D0200BD750200BD750200B57D0200FD
:1077D000E57D0200BD750200EF7D0200BD7502006F
:1077E000BD750200BD750200BD750200BD750200C9
:1077F000BD750200BD750200BD750200BD750200B9
:10780000BD750200BD750200BD750200BD750200A8
:10781000BD750200BD750200BD750200077E020045
:10782000BD750200BD750200BD750200BD75020088
:10783000BD750200BD750200BD750200BD7C020071
:10784000F37C0200BD750200BD750200BD7502002B
:10785000077D0200BD750200A77C02009DF83C3048
:10786000442B40F0A3809DF83D30002B40F09E80DB
:1078700006A920460EF0F8FF00F1010A81465146A4
:1078800023462A460FA80EF077FFB9F1000F03D167
:107890002378002B00F0648154440FA80EF03EF8CA
:1078A00006A9814620460EF0DFFF00F1010B82465B
:1078B000594623462A460FA80EF05EFFBAF1000F84
:1078C00003D12378002B00F04D815C449DF83C20CF
:1078D000433A322A3FF672AE01A353F822F000BFBA
:1078E000E17E0200BD750200BD750200497F020005
:1078F000BD7502007D7F0200BD750200BD750200EE
:10790000BD750200C5800200BD750200BD75020094
:10791000B5800200957F0200BD750200C97F02009C
:10792000DF7F0200BD750200F77F0200BD75020017
:10793000BD7502000F800200BD750200BD7502001A
:10794000BD750200BD750200BD750200BD75020067
:10795000BD750200BD750200BD750200BD75020057
:10796000278002003D800200BD750200BD75020047
:10797000BD750200BD750200BD750200BD75020037
:10798000BD750200BD750200BD750200BD75020027
:10799000DD800200BD750200BD750200718002002D
:1079A00087800200BD7502009D8002009DF83C307A
:1079B0004D2B7FF403AE9DF83D90B9F1000F7FF49D
:1079C000FDAD06A920460EF04FFF2346411C2A4676
:1079D0000FA80EF0D1FE9DF83C30443B122B3FF631
:1079E000EDAD01A252F823F06D7C0200BD750200DE
:1079F000BD750200BD750200BD7502009B7C0200D2
:107A0000BD750200BD750200BD750200BD750200A6
:107A10008D7C0200BD750200BD750200BD750200BF
:107A2000657E0200BD750200BD750200BD750200D5
:107A3000497C0200B9F1030F00F20782336800218C
:107A400053F82900FFF7AAFB09F10409336853F83A
:107A5000290062E02378002B7FF48FAE1C468DE670
:107A60002378002B7FF473AE1C4671E61C46E2E4DB
:107A7000BBF1030F00F2E38133680BEB890953F884
:107A80002900FFF7FFFB3368044653F82900FFF78E
:107A90004FFCBD49009400F12003112219A80EF0FB
:107AA0009FFEF46819A80EF0F0FEA36902465B6819
:107AB00004F1180019A9984705A900200EF024FF29
:107AC000044600287FF474AC80E5B9F1030F00F29E
:107AD0001C833368002153F82900FFF75FFB3368EC
:107AE00009F10402022153F82200FFF757FBB368A3
:107AF00053F829000121FEF78BFC05A900200EF0A8
:107B000003FF044600287FF453AC5FE5B9F1030F8F
:107B100000F2F982336853F829000221FFF73EFB97
:107B200005A900200EF0F0FE044600287FF440ACCA
:107B30004CE51C468DE5BBF1030F9BBF33680BEB97
:107B40008909002053F829000121FFF7A7FB05A9A7
:107B500000200EF0D9FE044600287FF429AC35E55C
:107B60001C469AE61C46B1E6B9F1030F9BBF09EB30
:107B700084093368002053F829000021FFF70EFB29
:107B800005A900200EF0C0FE044600287FF410ACCA
:107B90001CE5B9F1030F00F2B68209EB8409B9E7DD
:107BA000B9F1030F9BBF09EB84093368002053F838
:107BB00029000521FFF7F2FA05A900200EF0A4FE26
:107BC000044600287FF4F4AB00E5B9F1030F9BBF36
:107BD00009EB84093368002053F829000421FFF7DA
:107BE000DDFA05A900200EF08FFE044600287FF480
:107BF000DFABEBE4B9F1030F9BBF09EB84093368FA
:107C0000002053F829000121FFF7C8FA05A9002038
:107C10000EF07AFE044600287FF4CAABD6E4B9F130
:107C2000030F9BBF09EB84093368002053F8290038
:107C30000321FFF7B3FA05A900200EF065FE044604
:107C400000287FF4B5ABC1E450490AA842460EF0C3
:107C5000C7FD242200211AA819970DF007FF4C49EF
:107C60000AAB19A811220EF0BBFD1AE70021494802
:107C700000F02EFB474800F0F1FB33691321188810
:107C8000FFF75AFB434800F0E9FB97E442490AA892
:107C9000112342460EF0A4FDDBE740490AA8112259
:107CA0000EF09EFDD5E7B9F1030F96BF7368002073
:107CB00053F829000021FFF777F87FE406A9204652
:107CC0000EF0D2FD23462A46411C0FA80EF054FDAB
:107CD0000FA80DF023FEB9F1030F98BF736801469A
:107CE0004FF0010294BF53F829000020FEF7F8FE80
:107CF00064E4B9F1030F96BF7368002053F82900BC
:107D0000FFF728F85AE4B9F1030F96BF7368002013
:107D100053F82900FEF78CFF50E406A920460EF028
:107D2000A3FD23462A46411C0FA80EF025FD0FA8EF
:107D30000DF0F4FDB9F1030F98BF736801464FF0E1
:107D4000010294BF53F829000020FEF783FE35E4BA
:107D500006A920460EF088FD23462A46411C0FA89E
:107D60000EF00AFD0FA80DF0D9FDB9F1030F98BF71
:107D7000736801464FF0010294BF53F829000020B8
:107D8000FEF722FE1AE400BF7091030094910300F5
:107D900084910300605D0020989103008C910300A2
:107DA000B9F1030F96BF7368002053F82900FEF75E
:107DB000A7FF03E4B9F1030F00F29C81736853F845
:107DC0002900FEF735FF736853F82900FEF76AFFB4
:107DD00005A900200EF098FD044600287FF4E8AACB
:107DE000FFF7F4BBB9F1030FEDD90020EEE7B9F1CD
:107DF000030F96BF7368002053F829000121FEF796
:107E0000D3FFFFF7DBBB06A920460EF02DFD23466E
:107E10002A46411C0FA80EF0AFFC0FA80DF07EFD06
:107E2000B9F1030F98BF736801464FF0010294BF88
:107E300053F829000020FEF79BFEFFF7BFBB002090
:107E4000FFF720FA0446002021E600210846FFF74C
:107E5000A5F9002061E62378002B7FF456AB1C4681
:107E6000FFF754BB0024B36853F824000134FEF735
:107E700049FC042CF7D10024736853F82400013422
:107E8000FEF7BEFE042CF7D13368002153F8290019
:107E9000FFF784F909F10402336809F1010953F885
:107EA00022000021FFF77AF9B9F1040FECD1242266
:107EB00000211AA819970DF0D9FD9A4B9A4919A8D3
:107EC0001122D0E6BBF1030F9BBF33680BEB89098E
:107ED000002053F829000121FFF72CFAFFF76EBBB1
:107EE00006A920460EF0C0FC00F1010B824659465F
:107EF00023462A460FA80EF03FFCBAF1000F03D12B
:107F00002378002B00F0FD805C440FA80DF006FDE7
:107F100006A9824620460EF0A7FC23462A46411CAD
:107F20000FA80EF029FC0FA80DF0F8FCB9F1030F13
:107F300098BFB3680246514694BF53F82900002009
:107F4000FEF7DAF9FFF73ABB06A920460EF08CFCE3
:107F50002346411C2A460FA80EF00EFC0FA80DF078
:107F6000DDFCB9F1030F98BFB368014694BF53F825
:107F700029000020FEF7E6FAFFF720BBB9F1030F56
:107F800096BFB368002053F829000121FEF742FA9A
:107F9000FFF714BB06A920460EF066FC2346411CE1
:107FA0002A460FA80EF0E8FB0FA80DF0B7FCB9F1B8
:107FB000030F98BFB368014694BF53F8290000200F
:107FC000FEF7E0F9FFF7FABAB9F1030F96BFB3680D
:107FD000002053F82900FEF78DFAFFF7EFBAB9F148
:107FE000030F96BFB368002053F829000021FEF765
:107FF00053FBFFF7E3BAB9F1030F96BFB368002054
:1080000053F829000121FEF7A3FBFFF7D7BAB9F116
:10801000030F96BFB368002053F829000121FEF733
:108020003BFBFFF7CBBAB9F1030F96BFB368002053
:1080300053F82900FEF724FBFFF7C0BA06A9204633
:108040000EF012FC2346411C2A460FA80EF094FBAA
:108050000FA80DF063FCB9F1030F98BFB368014698
:1080600094BF53F829000020FEF7C6F9FFF7A6BA1F
:10807000B9F1030F96BFB368002053F82900FEF74B
:10808000BFFAFFF79BBAB9F1030F96BFB3680020A0
:1080900053F82900FEF736FBFFF790BAB9F1030F4A
:1080A00096BFB368002053F829000021FEF750FB6B
:1080B000FFF784BAB9F1030F96BFB368002053F8F5
:1080C000290017E5B9F1030F96BFB368002053F8F4
:1080D00029000021FEF79EF9FFF770BAB9F1030FEE
:1080E00096BFB368002053F829000021FEF790F9ED
:1080F000FFF764BA0020FEF79BFD76E69A46FFF78D
:1081000020BA1C4601E7002007E500210846FFF7DA
:1081100045F800200221FFF741F80020EAE4234659
:10812000FFF728BA7C9103008491030072DF704747
:1081300073DF704774DF704777DF704738B50546E7
:1081400008460C4601F0E2FD102803D080280ED02E
:10815000012038BDEB7FA2881B2B0EDCE918032021
:10816000E85448704A80EB7F0433EB77F0E7A3686C
:10817000002BEDD0E97F0D2901DD002038BD6A1804
:10818000112068540721517058681C689968DB6891
:10819000C2F80E30C2F80600C2F80240C2F80A1057
:1081A000EB7F1233EB77012038BD00BF0022C2778E
:1081B0000270704730B5D1E9042485B0CD68074B13
:1081C00000936946CDE902240195FFF7B7FF044605
:1081D000684601F077FD204605B030BD00920300EF
:1081E000F0B589B0064620221348694602F0AAF984
:1081F000F37FC2181D2A0CDDC3F11D04E4B2E2189E
:108200001D2A4FF00005D8BF082705DD284609B014
:10821000F0BD044601250927F218601CF054694698
:108220005770901C22460DF0F9FBF27F0232144485
:108230002846F47709B0F0BDDC5A002010B504469A
:10824000094802F0CBF9E37F1C2B01DD002010BDB3
:10825000E2180221E1540A2390705370E37F033344
:10826000E377012010BD00BFDC5A0020C27F1C2A2A
:1082700001DD0020704710B403469C18022098547A
:108280000120A1706070DA7F0332DA775DF8044B69
:10829000704700BF10B4084A084C09490262002226
:1082A000C0E90A41C0E90C225DF8044B0270C277B4
:1082B00042628263704700BFFF0101002000F400AA
:1082C00020001E00C1857047018581854285704769
:1082D00080F82210704700BFF0B5154605EB850306
:1082E000274A89B0044603EB830300200E469B0017
:1082F00011680290CDE90460ADF8143094F8213093
:108300008DF80830CB07CDE90600039009D41D494C
:108310001D4BC87FE77F988101201C6099609F807A
:108320001060194902AA04F12000FFF7FFFE10B106
:10833000002009B0F0BD94F820101448019102F01B
:108340004DF9019902460120FFF7F6FE0028EFD112
:1083500094F820000121FFF7EBFE0028E8D10B483C
:1083600002F098F9628EA68595424FF0010094BF05
:10837000521B921A628684F8230009B0F0BD00BF38
:10838000C45A00209C5D0020C85A0020DC5A0020FE
:10839000F0B5002361F30F032D4D044661F31F4335
:1083A00089B00363FA21284602F020F9E68D2949B5
:1083B000278D0868049706EB860303EB83030022EE
:1083C0009B000592ADF8143094F8213002928DF89C
:1083D0000830C307CDE9062203920BD41E4BE27F7F
:1083E00095F8DF029A8005F5307501221C609D60CA
:1083F00098810A60184902AA04F12000FFF796FE4E
:1084000010B1002009B0F0BD94F82010104801917F
:1084100002F0E4F8019902460120FFF78DFE0028E2
:10842000EFD194F820000121FFF782FE0028E8D167
:10843000074802F02FF9638EA7859E424FF0010096
:1084400094BF9B1BDB1A638684F8230009B0F0BD40
:10845000DC5A0020C45A0020C85A002010B5044637
:1084600090F82000FFF766FE08B1002010BD84F8E8
:108470002300024802F022F9012010BDDC5A00203E
:1084800030B50B888D88112B85B0044605D0262B7E
:1084900033D0102B25D005B030BD436AEB40DB074D
:1084A000F9D52E4801F0DEF80028F4D1636A94F87B
:1084B0002310012202FA05F523EA0503636200296D
:1084C000E9D194F82230002BE5D0238E234863862F
:1084D000FA2102F08BF8E28D218D2046FFF7FCFE99
:1084E000D9E7CB7B012BD6D1426A03FA05F51543B8
:1084F0000023456280F82330CDE70B7A012BCAD1E7
:10850000002380F823304FF4FA71144802F06EF81B
:10851000238E5BB1658E95B1A36B0BB19847658EC9
:10852000618D2A462046FFF7D7FEB4E7A36B03B15F
:108530009847618D00222046FFF7CEFEABE7074843
:1085400002F0BCF8626B002AA5D0009503AB294667
:10855000284603950BF0D2FD9DE700BFDC5A0020B2
:1085600075DF704710B44FF010144FF4480100222B
:10857000C0E90041C0E902225DF8044B704700BF2A
:10858000014800F075BE00BF105E0020F8B5002560
:108590000D4F2E4601E0142D14D0A9B2384602F03A
:1085A00061F8013504460028F5D000F00FFD0028E1
:1085B000F1D0204600F014FD022804BF0136F6B2C7
:1085C000142DEAD13046F8BDDC5A002070B58E88F3
:1085D0001B480C4694B0314602F044F823881A2B0D
:1085E00005D01F2B1CD0102B0FD014B070BD05462A
:1085F00000F0EEFC0028F8D0284600F0EBFC002844
:10860000F3D1284600F04CFDEFE7694600F030FD5D
:108610000028EAD06A4631460A4801F079FAE4E7D0
:1086200054F8080F61686B4603C33046BDF800304C
:10863000ADF802306946FFF793FF14B070BD00BF7C
:10864000DC5A0020FC5A0020AADF7047ABDF7047DD
:10865000ACDF7047ADDF7047AEDF7047B0DF70470B
:1086600010B5044B044640F8043B01F02BFB2046B8
:1086700010BD00BFB891030010B5054B044640F88B
:10868000043B01F01FFB20460CF068FB204610BDA8
:10869000B891030070B57B4B04461B68836196B0AC
:1086A000043001F043FB94F82E30A06913F032023D
:1086B00008BF84F82F2013F00C0308BF84F8303073
:1086C0000DF10102694601F0F3FA94F82F209DF8AC
:1086D000010015070DD09DF8001002F00F0301F006
:1086E0000F059D424FEA12126DD243EA021284F83E
:1086F0002F2094F8303019070BD003F00F0100F051
:108700000F058D424FEA131369D241EA031384F82F
:10871000303094F82E1011F0300340F096800FADF9
:108720000F93C5E90133C5E903338DF83C10AB6104
:108730000021ADF809109DF80A10206A1493012356
:1087400063F342018DF808208DF80A1008B1037810
:1087500073BB94F8263013B104F12603129394F8F6
:1087600031200023D2070893079358BFE38AADF85E
:108770001C3004F1080004F12F01CDE9050154BFBC
:108780001846E08AADF82000294604F13203E56975
:10879000099505AA0020FFF757FF054628B994F868
:1087A000253043BB237D002B64D0284616B070BD16
:1087B00010900EF06AF802AB80B2ADF84400ADF84C
:1087C00046001393C5E74FEA111101D191428CD3B2
:1087D0000A462B4643EA021284F82F2089E74FEA23
:1087E000101001D1984290D30346294641EA031361
:1087F00084F830308DE7ADF80D009DF80E2094F828
:108800002F600C90012363F3420242F608118DF8A9
:108810000E208DF8123004AA0223ADF8101003A91F
:108820000D90ADF83030ADF834300A9204F12403E5
:108830000B910DF102020AA98DF80C600E93FFF75F
:1088400005FF0028AED00546AFE70F4B8DF8052099
:108850000FAD1B788DF80430022000230F938DF8A4
:108860000600C5E90133C5E90333AB618DF83C105F
:1088700001AB5DE72146054800F0B6FE284616B07C
:1088800070BD00BFD85A0020AC910300605B00208F
:108890002DE9F0410B888E88502B8AB00C46054696
:1088A00009D0512B04D18B79012B19D0022B26D062
:1088B0000AB0BDE8F081CB88428E9A4235D0EA8E6C
:1088C0009A42F5D16B6D002BF2D095F84420648A62
:1088D000920700F18A802246294630469847E7E70A
:1088E000836C002BE4D090F84420520701F1080774
:1088F0006CD43A46294630469847A379D6E7A27BFE
:10890000042A46D0062A20D0012AD1D1EB6C002BB4
:10891000CED095F84420170704F1080400F1A58093
:108920002246294630469847C2E7076D002FC6D039
:1089300090F84430D90768D404F11208238A4246DB
:1089400029463046B847E388B9E7EA6B002AAFD03A
:10895000002202A93046CDE90222CDE90422ADF879
:108960000C208DF80830FFF779FE2C6D54B195F886
:108970004430D80700F19280B5F84230EA6B3046B7
:108980002946A047E86B08F08DFE0023C5E90F33A8
:108990008EE7E86B002878D0B5F84010278A628A05
:1089A00007EB020C00234FF0020E8C45CDE9063395
:1089B000CDE908338DF818E039DD40F20913ADF840
:1089C0001C3006A93046FFF749FE71E703211A461D
:1089D000009106AB08213846CDE9066508970BF0F3
:1089E0008DFB002889D1AB6C83E7032000211A4658
:1089F000009006AB0846CDE9066508940BF07EFBB7
:108A000000287FF455AF6B6D65E7218A069604F167
:108A10001208042300933A46404606ABCDE908818C
:108A200007950BF06BFB00288DD12F6D86E79DF825
:108A30001EC0ADF81C3004F114014CF001033844A1
:108A4000ADF822208DF81E300991ADF820700CF0A1
:108A5000E5FF238A618AB5F842200B449BB293421A
:108A600038BF1346A5F84230ABE703211A46009100
:108A700006AB0E212046CDE9066508940BF03EFBBF
:108A800000287FF415AFEB6C4AE74FF4806008F0E4
:108A9000EFFD4FF48061C5E90F017FE7E86BB5F8A2
:108AA0004210069604230093224606ABCDE90750F8
:108AB00009910BF023FB00287FF464AF2C6D5BE77A
:108AC0002DE9F04F0F464FF6FF718F4289B00646F1
:108AD00015461C4626D0F18A96F82E308C4228BFC7
:108AE0000C46DB0615D40DF1100B8C4228BF0C464A
:108AF0004FF00008718EADF810405A464FF6FF70E7
:108B00000595ADF81280FFF7A3FD404609B0BDE81A
:108B1000F08F3948394601F08FFD08B1F18E31B937
:108B2000F18AE0E7344801F091FD0746D3E70020E1
:108B300002230DF1100BADF81200ADF810305A46BB
:108B40000DF10E0338460593FFF784FD43F2014310
:108B500098424FD000284AD19DF80E8008F00108B5
:108B6000B8F1000F46D02448394601F07BFD82461B
:108B7000A0B300F037FA033883B2002CC5D0CDF88B
:108B800004804FF00009984605E0BDF80E30E41A65
:108B9000A4B21D4444B3504600F038FAA045034641
:108BA0004246594628BF22463846BBB1ADF80E2092
:108BB0004FF00102738E8DF812200DF10E02CDE9F7
:108BC0000625CDF813908DF81790ADF81030FFF70B
:108BD00043FD0028D9D0504600F022FA4FF000089B
:108BE000404609B0BDE8F08FDDF804808DE700F065
:108BF0000108B5E7F18A78E7DC5A002070B44E68C6
:108C0000164A86600260D1E90262154B154D1C7848
:108C100045600261142500220321C0E90F22C0E94A
:108C20001222C0E91422C660C58280F8311080F893
:108C300044200275826102628284C0F82620C0F856
:108C40002A2080F82E20C26142864263028780F883
:108C50002F4080F8304070BC704700BFB8910300CF
:108C6000AC910300009203008069704780F82E10D9
:108C7000704700BFC182704780F82F1080F8302005
:108C8000704700BF90F84430016562F3000380F83C
:108C9000443070470162704751F8322F02604968D2
:108CA0004160704790F82E3013F0100301D1184640
:108CB000704730B5044685B011480D4601F0BCFC44
:108CC00010B1E18E11B9084605B030BD0DF10603B3
:108CD00028460024022502AA0393ADF80A40ADF805
:108CE0000850FFF7B7FC43F20143984206D008B999
:108CF0009DF8060000F0010005B030BD2046E3E716
:108D0000DC5A002010B490F82E4014F0100403D068
:108D10005DF8044BFFF7D4BE20465DF8044B704766
:108D2000A1DF7047A3DF7047A4DF70470023838370
:108D3000704700BF006A00F0E3B800BF808B704747
:108D40002DE9F0410B88CE88382B86B00C460546BD
:108D500006D0392B66D0362B43D006B0BDE8F08163
:108D600000F12407002E36D10A8A3846314602F037
:108D7000D7F994F80C80B8F1010F2CD0B8F1040F9A
:108D8000EBD1286A00F0BCF801465C4801F06AFCAF
:108D900000F028F92A8E053883B2934228BF134683
:108DA000002B00F09A80218AE289286AAC8B8DF82A
:108DB0000D600A44E96A05918DF80C80ADF8123017
:108DC000ADF81020ADF80E4000F09AF803A9FFF7B7
:108DD000A9FF0028C1D0384602F0BAF906B0BDE8B4
:108DE000F081006A00F08CF80146444801F03AFC3A
:108DF00000F0F8F807466EBB05F12406E28930461C
:108E000004F1100102F08CF92B8E2BB1F81EE389CE
:108E100080B20138834255DA304602F099F906B043
:108E2000BDE8F0810B7B012B1AD0022B95D1836B0F
:108E3000002B92D090F83C208F8892071FD401F12C
:108E40001006E28931462846984761893846FFF77F
:108E50006BFF82E705F12407384602F079F9BDE798
:108E6000436B002B3FF479AF90F83C20D10717D427
:108E700004F11006E2893146284698476DE7C98912
:108E8000039004F1100603201A46009003AB30460D
:108E9000CDE904610BF032F90028D6D1AB6BD0E7F5
:108EA000E189039004F1100603201A46009003ABF9
:108EB0003046CDE904610BF021F900287FF44DAF75
:108EC0006B6BD7E7286A00F01BF86A8EA98B92B209
:108ED000FFF726FF00289FD13FE7AA8B286AADF84D
:108EE0000E2040F20511ADF80C10CDE9043300F06E
:108EF00007F803A9FFF716FF6DE700BFDC5A002053
:108F0000808870478FDF704790DF7047B1DF704710
:108F1000B5DF704710B5074B03600446806A09F05F
:108F200041FAE06A09F03EFA206B08B109F03AFA1A
:108F3000204610BDD091030010B5094B03600446D4
:108F4000806A09F02FFAE06A09F02CFA206B08B168
:108F500009F028FA20460BF001FF204610BD00BFA3
:108F6000D091030070B504460D4692E80300A58039
:108F70000E0CA061A183144DA67717201B215689E2
:108F80002560E0809589D089E181D17965810122D0
:108F900022752274A08161741846194626819DF8B5
:108FA000105008F029FC2946A062284608F024FC4D
:108FB0004FF4885100234FF6FF72E182E062628233
:108FC00023636375204670BDD0910300007D704718
:108FD000407D7047C07D113818BF0120704700BF29
:108FE000407C7047C0887047008970474B7D10B443
:108FF0004BB11F310C688A888B79046082805DF8E0
:10900000044B837170471831F4E700BF08B566213F
:10901000806A09F04BF8003818BF012008BD00BF76
:1090200008B500231A461946806A08F017FC003874
:1090300018BF012008BD00BF818800F11F02407CDD
:1090400002F0CCB838B50A4605460C468188407C0B
:1090500002F0B0F82146012051F8483FC5F81F3012
:109060008B888A7985F82520A5F82330687538BD66
:1090700038B50A4604460D4600F11801407C02F05E
:10908000E3F8607550B1294651F8483FC4F81F30E5
:109090008B888A7984F82520A4F8233038BD00BF56
:1090A00010B5447D24B100F11F01407C02F0AAF804
:1090B000204610BD70B50B88113B82B00C460546AA
:1090C000462B2BD8DFE803F0383B2A2A2A2A2A2A03
:1090D0002A422A2A2A2A2A2A50585E642A2A2A2A16
:1090E0002A2A2A2A2A2A2A2A2A2A2A2A2A2A2A2AE0
:1090F0002A672A942A2A2A2A2A2A2A2A2A2A2A2A29
:109100002A2A2A2A2A2A2A2A2A246A2A752C840008
:109110000023A8881A461946FFF7F8FE02B070BD72
:109120008B79002BFAD1006BAB750028F6D01A466C
:10913000194608F093FBF1E700230375EEE74B892E
:1091400003818B894381CB898381E7E70B7AC375E0
:10915000112BE3D0818800F11F02407C02F02CF932
:1091600003460028DAD1D4E7002301A98088ADF8AE
:109170000430FFF7C7FED1E70B7A002BCED14B7A34
:109180000374CBE7002211468088FFF7BDFEC5E7D8
:109190000B89C381C2E74B89C380BFE7006B012302
:1091A000AB750028BAD000231A46194608F056FBC2
:1091B000B4E7417C164801F04DFAE3880146994234
:1091C00028BF194689B2A888E980FFF7A1FEA5E764
:1091D0008B79002BA2D0002600231A461946A86AD4
:1091E00008F03CFB0136A279F3B29A42F4D895E735
:1091F0008B7A002B92D0002600231A461946E86A83
:1092000008F02CFB0136A27AF3B29A42F4D885E733
:10921000DC5A002070B58AB086880B4606A84FF449
:109220002851144605934FF6FF7500F053FD0120B9
:10923000CDE90105059B0094314606AA044800F0DB
:109240006FF8044606A800F03DFD20460AB070BD48
:10925000605B002010B50446043001F0FDFE034BB6
:10926000236000232375204610BD00BF0100FFFFCF
:10927000017D01B1704710B50446043001F0F6FEDF
:109280000123237510BD00BF007D70470B88322B72
:1092900010B504D0332B17D0302B08D010BDCB889D
:1092A000DBB1041D2046BDE8104001F051BFCB8862
:1092B000041D002BF6D14B89002BF3D00A31204638
:1092C0000A2201F02DFFEDE7CB88002BE9D14A8976
:1092D000002AE6D002EB420204E04A89002AE0D0EC
:1092E00002EB82025200041D023292B20A31204681
:1092F00001F016FFD6E700BFA0DF704710B50446A7
:1093000000F5F87001F0A8FE2046F82200210CF0CC
:10931000ADFBF822A01800210CF0A8FB204610BDE0
:109320002DE9F04782B00546BDF82C60BDF830400D
:109330002048ADF80460BDF828A0ADF8064090467E
:1093400099460F4601F08EF905F5F875064603E0DB
:10935000FFF74AFE08F07EF9284601F0DFFE0446DA
:109360003046002CF4D10121284601F07FFE524600
:109370004946284601F096FE08F10401384601AA44
:10938000FFF7BAFF30B1284601F07AFE204602B05E
:10939000BDE8F0874FF4FA71284601F089FE20EA13
:1093A000E074284601F06CFEA4B2204602B0BDE88D
:1093B000F08700BFDC5A00202DE9F04F8F880D8820
:1093C00085B0884604463946864801F04BF9A5F138
:1093D0001003012B814640F2908094F854203AB358
:1093E000002633461633502D54F823A069D0512D52
:1093F0001AD198F80630B8F808B0022B53D0BBF158
:10940000000F11D051466846FFF746FCBDF800300A
:109410005B4559D0514602A8FFF73EFCBDF80C3021
:109420005B4551D094F854200136F3B29342D9D31E
:1094300094F84C31002B00F0D18004F5A679002679
:1094400004E094F84C310136B34220DD59F8040FA2
:10945000FFF770FCB842F4D1382D03D0392D01D07C
:10946000362DEED1B8F80AA0BAF1000FE9D0D9F83C
:1094700000B05846FFF762FC5045E2D158464146DD
:10948000FFF75EFC94F84C310136B342DEDC112D5F
:1094900055D0352D04D1B8F80A30002B40F08F801C
:1094A00005B0BDE8F08F98F80E30062BA7D1DAF89A
:1094B00000305046DB68414698474846FFF78AFD32
:1094C000B0E7B8F806B09AE7DAF800305046DB6843
:1094D000414698474846FFF77DFD0028A2D0502D11
:1094E000A0D1514602A8FFF7D7FBBDF80C305B4571
:1094F00098D14846FFF7A0FD94E72378002B3FF46E
:109500006CAF0026112D33460CD004EB8303394693
:10951000586803685B68984701362278F3B29A422C
:10952000F3D85AE704EB83033946586803681B688D
:10953000984701362278F3B29A42F3D84DE7D3B177
:109540000026334605E094F84C210136F3B29A42E6
:1095500011D904EB8305D5F85001FFF7EBFBB842B6
:10956000F1D1D5F85001FFF7E1FB013694F84C2119
:10957000F3B29A42EDD894F8F820002A90D0002552
:109580002B4604EB8303D3F8FC008388BB420AD04C
:109590000135EBB2934283D204EB8303D3F8FC0092
:1095A0008388BB42F4D103681B689847013594F85F
:1095B000F820EBB29342E4D305B0BDE8F08F04F598
:1095C000F874B8F80C20204608F1100101F0A8FD4D
:1095D000204605B0BDE8F04F01F0BABD112D7FF473
:1095E00058AFC8E7DC5A002090F85420272A0CD83E
:1095F00010B4034602F11604013280F8542043F8F7
:10960000241001205DF8044B70470020704700BF14
:109610000378132B06D800EB83020133037001207B
:10962000516070470020704778DF70477ADF7047DD
:10963000054A034692E80300002283E80300C3E9D9
:1096400002221846704700BFD891030008B5FFF703
:10965000EDFF08B1002008BDFFF7E6FFB0FA80F08B
:10966000400908BDF8B500250D4F2E4601E0142D28
:1096700014D0A9B2384600F0F5FF013504460028A1
:10968000F5D0FFF7A3FC0028F1D02046FFF7A8FC97
:10969000012804BF0136F6B2142DEAD13046F8BDD8
:1096A000DC5A002081607047704700BF8ADF704736
:1096B00030B40D4CC4621F25002250248584A0259F
:1096C000C0E91122C0E90F22A0F84650A0F8484096
:1096D000006230BC8262028680F838204263C26435
:1096E000A0F85020704700BF000180002DE9F04F26
:1096F00010468DB016460C4600F008FBC5B2102D82
:109700004FD0B66807220623A16994F81C900191F6
:109710008DF80D208DF80C30ED080DF10C080DF1D1
:109720000E0A0027B9F1010F0A97CDE90477CDE9B8
:109730000677CDE90877CDF82B700ED998F80000A0
:1097400001994B464A7882420FD00A78D443234489
:10975000013213F0FF031144F4D108F10108C245AE
:10976000E0D100200DB0BDE8F08F11F8024B013CB4
:10977000E4B2224604A80CF051F90DF1100B1CB90B
:10978000EBE714F0FF04E8D058462A4631460CF0C7
:1097900037F9641BAB440028F3D101200DB0BDE8BC
:1097A000F08F043603220223AEE700BF2DE9F04319
:1097B0000B888E88103B87B00D4604460D2B2CD8A5
:1097C000DFE803F077072B2B2B2B2B2B2B2B2B845A
:1097D0002B2E836AF340DB071FD55648FEF7D6FED3
:1097E000D8B9A36A94F82C20012505FA06F623EAD5
:1097F0000606A6628AB994F82D3073B11F2324623D
:10980000A38404F1200104F14400FFF74FFF20B9C5
:10981000494800F03FFF84F82C5007B0BDE8F083C2
:1098200090F92E2091F91B309A423ADC90F83830AA
:1098300001F108080BB3DFF80491002602E0D6B26C
:10984000B34218D9636BCDF8089003EB061302AA54
:1098500059680391D3E90273414620460593049762
:10986000FFF744FF074602A800F02CFA94F83830BE
:10987000721C002FE3D09E4213D094F82F30002B9F
:1098800049D095F82430012B0BD9296A4A78FF2A50
:1098900030D00A78D0430344013213F0FF0311445F
:1098A000F4D104F120010020FFF700FF07B0BDE86C
:1098B000F083CB7B022BB0D1836A012202FA06F639
:1098C00033430022836280F82C20A6E70B7A012B19
:1098D000A3D1002580F82C50174800F0EFFE226C31
:1098E000002A9AD0009502AB2946284602950AF034
:1098F00005FC92E711F8025B6A1ED2B2022A28BF69
:10990000022202A80CF08AF8012DCAD0228EBDF8DE
:1099100008309A42C5D1E26B002A3FF47EAF0123A2
:109920000093404602AB2421CDF808800AF0E6FB04
:1099300073E700BFEC5A0020DC5A002000920300BD
:1099400046DF70477FDF704780DF704785DF7047F5
:1099500086DF704738B51C460D460346114628463B
:109960002246984734B1014600222846BDE83840D7
:10997000FFF7EABF38BD00BF044A0260032100229E
:10998000C0E9162201710266704700BF310710035B
:10999000012070470B7803F0FE03042B01D0002058
:1099A000704770B515468CB00C462022002104A8E3
:1099B0000CF05CF828686968AA68EB686D460FC50A
:1099C0009DF800109DF80F209DF801609DF80E5045
:1099D0009DF802008DF80F1023469DF80D108DF8AC
:1099E00000209DF803208DF80E608DF801509DF841
:1099F0000C609DF804508DF80D008DF802109DF854
:109A00000B009DF805108DF80C209DF80A208DF8AC
:109A100003608DF80B508DF804008DF805208DF84B
:109A20000A109DF8061033F8042FADF810209B782B
:109A30009DF809209DF81D009DF810609DF81F50AD
:109A40008DF809108DF806209DF811109DF81E2044
:109A50008DF81D309DF807308DF812008DF81F60CD
:109A60009DF808009DF813608DF810508DF81E10B9
:109A70009DF81C509DF814108DF811208DF80830B9
:109A80009DF81B209DF81A308DF807008DF81C609A
:109A90008DF813509DF815608DF81B108DF814206B
:109AA00068468DF815309DF819109DF817209DF81F
:109AB00018309DF816508DF818208DF816108DF876
:109AC00017308DF81A608DF81950FFF739FF62785A
:109AD0009DF82F309DF82E009DF82D108DF8210057
:109AE0009A428DF8221004F1010404D0012080F084
:109AF00001000CB070BD6278C3B29A4204F1010457
:109B0000F4D16278CBB29A42F0D10020EFE700BFE7
:109B100008B5137CDB0758BF1C32084602F112015E
:109B2000FFF714FFB0FA80F0400908BDF0B58E8849
:109B30000C4699B005463146404800F093FD238815
:109B4000133B0746072B1AD8DFE803F027424E19CC
:109B50001919041B237A33B9637B9B075ED53846FA
:109B6000A91DFFF76FFAEA6D4AB1247A022300219A
:109B70000093084604ABCDE904640AF0BFFA19B0BB
:109B8000F0BD2A6E002AFAD0012300210093084676
:109B900004AB04960AF0B2FAF1E7AB1D002405F11C
:109BA0002202049305F13E03CDE90823CDE90544E3
:109BB000CDE90A440794FFF713FA01280CBF2A469F
:109BC00022462146304604ABFFF7BCFE19B0F0BD7B
:109BD00004A9FFF74DFA0346D0B104A9304600238B
:109BE00012AAFFF7B5FECAE7AB6D002BC7D0A57B65
:109BF0000493042304F1080005F001050093104AC2
:109C0000059604AB0621CDE906050AF077FAB6E71A
:109C100030461A461946FFF79BFEB0E702A83946C0
:109C2000FFF7E4F90298BDF80C209DF80E3085F896
:109C30005430C5F84E00A5F8522090E7DC5A0020B9
:109C400055990200A8DF7047704700BF30B5044641
:109C500083B0083000F06AF804F10C010DF106023F
:109C60000120FFF7EFFF054628B9044B04481C60AC
:109C70002146FFF7CDFC284603B030BDD85A00205E
:109C8000605B002030B44C68C460D1E90241054AF1
:109C9000054D0260054A8560C0E90441426030BC60
:109CA000704700BFE891030000920300000011110B
:109CB00083790B70C3791370704700BF62DF704700
:109CC00063DF7047704700BF10B504460BF046F8DD
:109CD000204610BD10B4054C818000220121046093
:109CE000C0E902225DF8044B8171704700920300C5
:109CF000002210B4044C046081605DF8044B827152
:109D00008280C260704700BF009203008379012BFC
:109D10000AD0826832B9C26822B9012B8CBF802078
:109D20000020704780207047102070472DE9F047D1
:109D3000857982B0002D47D1C7680646002F47D0ED
:109D4000102007F095FC824638460CF09EFD441E1C
:109D500030B3DFF88490A84604E00134023C1FD4FD
:109D6000102D1DD017F804C0BCF12D0F07EB040215
:109D7000F3D099F80030ADF805808DF8043012F872
:109D8000013C8DF804301022002101A88DF805C097
:109D90000CF00CFF6B1C023C0AF80500DDB2DFD5AD
:109DA000C6F808A0BAF1000F0ED0B11D5046FFF75B
:109DB00085FFB168321D1020FFF782FFB0FA80F0F6
:109DC000400902B0BDE8F087012002B0BDE8F0878D
:109DD000D0F808A0E6E700BFF49103004BDF70471E
:109DE00010DF70477CDF70477DDF704760DF7047B2
:109DF00069DF704761DF704766DF704767DF704774
:109E0000704700BF13200AF0F9BB00BF30B5124CF9
:109E1000124D83B0D4F86C034FF0FF3108F046F9CF
:109E20000028F7D06DB101A8FFF7D8FF0528F1D0C1
:109E30000028F8D10198831E012BF4D807F064FBA9
:109E4000F1E701A8FFF7CAFF0528E3D001A8FFF753
:109E5000C5FF0528F5D1DDE7DC5A00200915030010
:109E60002DE9F04F2DED028B4FF4FA7089B007F019
:109E7000FFFBB04E00F1080308EE103A054606F568
:109E8000717706F5217AD6F868034FF0FF3108F0B4
:109E90000DF90028F7D04FF4FA730DF1160128469A
:109EA000ADF81630FFF7A6FF10B10528F3D1EAE7A9
:109EB000B5F80490B9F1130F00F2348109F1DE0313
:109EC00056F823403CB129462046FFF7F3F89A485C
:109ED0002946FFF72BFE2B88013B1B2B57D8DFE8C9
:109EE00013F0110156005600560056005600560059
:109EF00056005600560056005600560056005600B2
:109F0000B1001C0056005600560056005600560080
:109F100056005600560056009F00DFF830824FF082
:109F2000000B58F8040F30B1FFF750F818B10BF1DF
:109F3000010B5FFA8BFBB845F3D1BBF1000F06D1E3
:109F400096F874331BB1594613200AF041FB2046A2
:109F5000FFF746F8012800F0E780F26962B10223BA
:109F6000002195F808C00093084606ABCDF818907C
:109F7000CDF81CC00AF0C2F809F1DE0856F8280036
:109F800010B103685B689847002346F828302946DB
:109F90005046FEF775FA69482946FFF707FCB6F800
:109FA00076334B452B8800F0B280102B1ED02CB39B
:109FB0002046FFF715F8012803D15E482946FFF730
:109FC00073FB2046FFF70CF802281BD05C48FFF714
:109FD0005BF900BB5B482946FFF7EEF9D6F8CC33B6
:109FE000002B3FF458AF2846984754E7EB7B012BF2
:109FF000DDD1AB88A6F87633002CD9D14D4829465F
:10A00000FFF752FB50482946FEF7E0FA4C48FFF7AD
:10A010003BF90028DED04A482946FFF737F9D9E74F
:10A02000D6F8C823002AB2D00223002195F908C02F
:10A030000093084606ABCDF81890CDF81CC00AF086
:10A040005DF8A4E74FF00008D6F87003CDF8008063
:10A050004346424603213D4C09F0A8FB54F8040F47
:10A0600030B1FEF7B3FF18B108F101085FFA88F8C4
:10A07000BC42F3D196F874336BB1B8F1000118BF4C
:10A08000012113200AF0A4FA96F874331BB10121C0
:10A0900013200AF09DFA09F1DE0856F8280028B1CD
:10A0A00003685B689847002346F82830EB7B012B58
:10A0B0000BBF96F8563396F85C3396F8574396F8EC
:10A0C0005D43039334200AF047FE039B009418EE8F
:10A0D000102A04464946FEF745FF204646F8284028
:10A0E000FEF77EFF012833D0B269002A3FF44FAF5C
:10A0F000012300210093084606ABCDF8189009F023
:10A10000FDFF44E700214846FFF776FE3FE7102BAE
:10A110003FF46CAF112B7FF44AAF4FF6FF73A6F8F4
:10A12000763344E70446D6E6F268002A7FF417AF98
:10A1300022E700BFDC5A0020FC5A0020BC5D002052
:10A14000105E0020605B0020EC5A0020505E002072
:10A15000B268002A3FF41BAF0021009006AB08460E
:10A16000CDF8189009F0CAFF11E700BF38B50446D2
:10A17000FFF75EFA04F11000FEF7F4F904F1200095
:10A18000FFF7FAFB04F18400FFF7B8F804F521703B
:10A19000FEF780F804F53070FEF708F804F5387023
:10A1A000FFF786FA04F54D70FFF754F81548164985
:10A1B000164AC4F858234FF440630025C4F84C33C2
:10A1C00040F20113C4E9D401A4F85C33A4F85E534F
:10A1D00004F55E70294650220BF048FC01224FF630
:10A1E000FF73A4F8605384F86253C4E9DA55C4E9F4
:10A1F000F255C4F8705384F87423A4F876332046DB
:10A2000038BD00BF010A1700030001011700030059
:10A2100010B41729B8BF1721022A9DF8044080F80E
:10A220005743B8BF02225DF8044BA0F85213A0F8C0
:10A23000542380F856337047F0B5AE4E80F8601363
:10A240008DB0336980F861230446AB49039303A8BA
:10A25000FFF7C6FD18B1002528460DB0F0BD0990E6
:10A26000CDE90A00A54A94F85133049209A90120C6
:10A270008DF82430FFF7BCFD0028ECD194F8613351
:10A280000B90CDE90900181E18BF012094F8605307
:10A290008DF82700049A8DF8263009A940208DF802
:10A2A0002550FFF7A5FD0028D5D194F8501309904B
:10A2B000034661F30003CDE90A00049A8DF82430C7
:10A2C00009A9A020FFF794FD0028C4D1D4F84C338D
:10A2D0000A900B90049A099309A9A120FFF788FD21
:10A2E0000028B8D194F86033002B40F0B48094F883
:10A2F0006133002B47D00023B4F85873049A0993B4
:10A30000022509A92320CDE90A338DF82450ADF8A0
:10A310002670FFF76DFD00289DD1CDE9090094F866
:10A320006173B4F85A330B90049A8DF8245009A93C
:10A3300020208DF82670ADF82830FFF759FD002851
:10A3400089D10990CDE90A0094F85C33049A8DF81C
:10A35000245009A922208DF82630FFF749FD002856
:10A360007FF479AFCDE9090094F85D330B90049A3E
:10A370008DF8245009A921208DF82630FFF738FDEB
:10A3800000287FF468AF04A8FFF730FD00287FF4B1
:10A3900062AFCDE9070040F0010307A902208DF864
:10A3A0001C30FFF72BFD00287FF455AF2046FFF748
:10A3B0004DF9054600283FF44EAF04F12000FFF7A9
:10A3C000E7FA337D4E498DF80830102202A8FFF7D6
:10A3D00009FD00287FF43FAF94F86133002B40F073
:10A3E000848003220021012007F0C4F9C4F8680327
:10A3F00000283FF430AF05AB0326CDE900634149A7
:10A40000414800234FF4A06208F06AF93246002167
:10A41000012007F0AFF9C4F86C0300283FF41BAF2C
:10A4200006ABCDE90063394939480023C82208F05A
:10A4300057F9384B4FF480021A60374B00930023D2
:10A44000184601224FF4807109F05AF9C4F87003DC
:10A4500000F08AFE00E70990CDE90A00B4F8523313
:10A46000049AADF82630012509A923208DF824503F
:10A47000FFF7BEFC00287FF4EEAECDE9090094F8AA
:10A480006073B4F854330B90049A8DF8245009A9E2
:10A4900020208DF82670ADF82830FFF7A9FC0028A1
:10A4A0007FF4D9AE0990CDE90A0094F85633049AA6
:10A4B0008DF8245009A922208DF82630FFF798FC4A
:10A4C00000287FF4C8AECDE9090094F857330B900B
:10A4D000049A8DF8245009A921208DF82630FFF721
:10A4E00087FC00283FF403AFB5E604F11000FEF747
:10A4F00047F876E760920300019E020000360020D4
:10A500004492030058920300619E02005C92030093
:10A510000D9E020000E100E0059E020000B5084B20
:10A5200085B01B7D019108468DF80C300CF0ADF91B
:10A53000019982B203A8FFF755FC05B05DF804FB52
:10A540006092030000B583B008460DF10601ADF836
:10A550000620FFF749FC20B99DF8060003B05DF81E
:10A5600004FB002003B05DF804FB00BF30B41A4ABE
:10A570000B46054607CA84B001AC03C49DF904002C
:10A5800022709842194620D09DF905308B421CD08C
:10A590009DF906308B4218D09DF907308B4214D0BC
:10A5A0009DF908308B4210D09DF909308B420CD0B8
:10A5B00059B19DF90B308B4207D09DF90C308B427D
:10A5C00003D0002004B030BC7047012085F862132E
:10A5D00004B030BC704700BF7892030090F962036A
:10A5E000704700BF80F87413704700BF70B5044611
:10A5F00082B0D0F870030D4609F004F94FF47A7276
:10A6000006460023A90DA8020AF0D4FF0023024643
:10A610000421D4F87003009309F0C8F80EB102B019
:10A6200070BD0096D4F8700333463246032109F01A
:10A63000BDF802B070BD00BF132905D8DE3150F857
:10A64000210008B1FEF7C2BC00207047B0F87603C5
:10A65000704700BF01290CBFB0F85203B0F858038F
:10A66000704700BF13299ABFDE3150F82100002047
:10A67000704700BF10B5064C0021D4F86C0307F0FA
:10A6800089FBD4F868030021BDE8104007F082BBC5
:10A69000DC5A002090F8743303B9704710B582B0CB
:10A6A000D0F8704308F00CFA0023024600932046CD
:10A6B000012109F07BF802B010BD00BFF0B583B0F6
:10A6C000002405462346D0F8700300942246032157
:10A6D00009F06CF805F55D7605F5717756F8040F0D
:10A6E00020B1FEF773FC08B10134E4B2BE42F5D1EB
:10A6F00095F8743343B1211E18BF0121132003B014
:10A70000BDE8F04009F064BF03B0F0BD0148FFF7B9
:10A710002DBD00BFDC5A002000207047D0F8D83093
:10A72000988980B2704700BF70B582B0064608466F
:10A730001C460192FEF798FA019905462246D0F888
:10A74000D8000AF04FFC844206D9D5F8F0301BB18E
:10A75000211A89B230469847D5F8E83023B13046FF
:10A7600002B0BDE87040184702B070BD08B592B2A3
:10A77000D0F8D8000AF084FC08BD00BF00B583B053
:10A78000D0F8D8000DF1070200210AF0B5FC20B185
:10A790009DF8070003B05DF804FB4FF0FF30F9E7C8
:10A7A000D0F8D8000AF00CBCD0F8C030988980B23C
:10A7B000704700BFD0F8C0000AF002BC10B50168B5
:10A7C0000C4A8C69944282B00BD1D0F8D800012297
:10A7D0000DF107010AF054FC40B19DF8070002B0EA
:10A7E00010BD01220DF10701A047F5E74FF0FF3042
:10A7F000F5E700BF6DA7020000B583B0D0F8C00038
:10A800000DF1070200210AF077FC20B19DF8070046
:10A8100003B05DF804FB4FF0FF30F9E710B550F8D6
:10A82000181C0D4A8C69944282B00CD01838012251
:10A830000DF10701A04718B19DF8070002B010BD47
:10A840004FF0FF30FAE701220DF10701D0F8C00008
:10A850000AF016FCEFE700BF6DA702002DE9F04FEC
:10A8600050F8183C83B004463F48D3F828800F4680
:10A870001646FFF7EBFE3D4B9845054609D0A4F17F
:10A88000180033463A462946C44603B0BDE8F04FA7
:10A89000604701463448FFF7E5FE8346002850D064
:10A8A00004F1100948462946FEF7FCF9002848D073
:10A8B00094F8CC30002B3CD0D4F8C800C8B31FFAB1
:10A8C00086FA524639460AF08DFBD4F8C8309B8987
:10A8D000804658461FFA83FBFEF784FB0338834506
:10A8E00025DB21482946FFF7BDFE50B3FEF77AFB72
:10A8F000033882B21046019206F0BAFE834600B3D6
:10A90000019AD4F8C80059460AF0BAFB0346F0B9D8
:10A91000584606F0C7FE464509D9AAEB08039BB284
:10A9200007EB080229464846FEF7ECF958B1B04655
:10A9300009E03A4629464846B3B2FEF7E3F9002853
:10A94000F5D14FF00008404603B0BDE8F08F5A46FD
:10A9500029464846FEF7D6F90446584606F0A2FEB8
:10A96000002CD8D1EDE700BFDC5A00208DAD0200ED
:10A970002DE9F04150F8183C84B004463B489E6AEB
:10A980008DF80F10FFF762FE394B9E42054609D045
:10A99000A4F11800294601230DF10F02B04704B0BD
:10A9A000BDE8F08101463148FFF75CFE064650B332
:10A9B00004F1100738462946FEF774F918B394F8E5
:10A9C000CC30002B49D0D4F8C800002845D00DF178
:10A9D0000F0101220AF006FBD4F8C8309B8980469B
:10A9E00030469EB2FEF7FEFA033886420DDA0120A9
:10A9F000D5E7324629463846FEF784F90446304604
:10AA000006F050FEF4B90020C9E718482946FFF7C0
:10AA100029FE0028F7D0FEF7E5FAC21E92B21046D2
:10AA2000019206F025FE06460028ECD0019AD4F8E3
:10AA3000C80031460AF024FB03460028D9D130462D
:10AA400006F030FEB8F1000FD1D10DF10F0229460A
:10AA500038460123FEF756F9A1E729463846012377
:10AA60000DF10F02FEF74EF999E700BFDC5A002006
:10AA70008DAD02002DE9F04105683B4BAD6A82B017
:10AA80009D428DF8072065D1044638480E46FFF7F1
:10AA9000E9FD054600284FD004F128073846314625
:10AAA000FEF700F9002847D094F8E430002B47D097
:10AAB000D4F8E000002843D00DF1070101220AF08C
:10AAC00091FAD4F8E0309B89804628469DB2FEF783
:10AAD00089FAC31E9D4244DB24483146FFF7C2FD7C
:10AAE00050B3FEF77FFA033882B21046009206F0A8
:10AAF000BFFD054600B3009AD4F8E00029460AF0ED
:10AB0000BFFA68B9284606F0CDFDB8F1000F28D18C
:10AB10000DF10702314638460123FEF7F3F80CE049
:10AB200003462A4631463846FEF7ECF804462846E6
:10AB300006F0B8FD002CE8D1002002B0BDE8F0819D
:10AB40003146384601230DF10702FEF7DBF802B06B
:10AB5000BDE8F08101230DF10702A84702B0BDE86E
:10AB6000F0810120E9E700BF8DAD0200DC5A002032
:10AB70002DE9F04F036883B0044641489E6A884639
:10AB80001746FFF763FD3F4B9E42054661D10146E4
:10AB90003B48FFF767FD0646002855D004F1280919
:10ABA00048462946FEF77EF800284DD094F8E43058
:10ABB000002B41D0D4F8E00000283DD01FFA87FADE
:10ABC000524641460AF00EFAD4F8E02003463046D9
:10ABD000B2F80CB01E46FEF705FA1FFA8BFB0338DD
:10ABE000834524DB26482946FFF73CFD60B3FEF78A
:10ABF000F9F9033882B21046019206F039FD834616
:10AC000010B3019AD4F8E00059460AF039FA48BB6B
:10AC1000584606F047FDB74209D9AAEB06039BB296
:10AC200008EB060229464846FEF76CF868B13E4636
:10AC3000304603B0BDE8F08F424629464846BBB2D5
:10AC4000FEF760F80028F2D10026304603B0BDE8D8
:10AC5000F08F01463B4642462046B44603B0BDE86D
:10AC6000F04F604703465A4629464846FEF74AF8E1
:10AC70000446584606F016FD002CCCD1E4E700BF90
:10AC8000DC5A00208DAD02002DE9F041036882B04E
:10AC900004463C489E6A8DF80710FFF7D7FC3A4BF4
:10ACA0009E420546014663D13648FFF7DBFC064667
:10ACB00000284FD004F1280738462946FDF7F2FF57
:10ACC000002847D094F8E430002B47D0D4F8E000B7
:10ACD000002843D00DF1070101220AF083F9D4F8CE
:10ACE000E0309B89804630469EB2FEF77BF9C31E5A
:10ACF0009E4245DB23482946FFF7B4FC50B3FEF7DC
:10AD000071F9033882B21046009206F0B1FC064693
:10AD100000B3009AD4F8E00031460AF0B1F968B9FE
:10AD2000304606F0BFFCB8F1000F29D10DF1070243
:10AD3000294638460123FDF7E5FF0CE0034632467D
:10AD400029463846FDF7DEFF0446304606F0AAFCE9
:10AD5000002CE8D1002002B0BDE8F0812946384639
:10AD600001230DF10702FDF7CDFF02B0BDE8F08130
:10AD7000204601230DF10702B04702B0BDE8F08183
:10AD80000120E8E7DC5A00208DAD02002DE9F04FEC
:10AD9000044683B0384890461F460E46FFF762FCD3
:10ADA000002856D004F12809054631464846FDF7EB
:10ADB00079FF00284DD094F8E430002B41D0D4F82E
:10ADC000E00000283DD01FFA87FA524641460AF0BB
:10ADD00009F9D4F8E02003462846B2F80CB01D4625
:10ADE000FEF700F91FFA8BFB0338834524DB22486A
:10ADF0003146FFF737FC60B3FEF7F4F8033882B250
:10AE00001046019206F034FC834610B3019AD4F840
:10AE1000E00059460AF034F900BB584606F042FCFF
:10AE2000BD4209D2AAEB05039BB208EB05023146ED
:10AE30004846FDF767FF68B13D46284603B0BDE8C8
:10AE4000F08F424631464846BBB2FDF75BFF002813
:10AE5000F2D10025284603B0BDE8F08F03465A46DC
:10AE600031464846FDF74EFF0446584606F01AFCA8
:10AE7000002CD5D1EDE700BFDC5A002070B584B0BE
:10AE800004460E4668461E49FEF732FF69462046D4
:10AE9000FEF7F8FE6846FEF715FF1A4B1A4903F154
:10AEA0000802002548334FF47A70C4E90635226061
:10AEB00020626846FEF71CFF694604F12800FDF792
:10AEC0009DFE6846FEF7FEFE10496846FEF710FF3D
:10AED000694604F18000FDF791FE6846FEF7F2FE38
:10AEE0002046C4E93A55C4F8D850A4F8DC60C4F848
:10AEF000F050C4F8E05084F8E45004B070BD00BFD6
:10AF0000AC920300BC9203009C9203008C9203005D
:10AF100010B50D4B0446D0F8E00023604033A36128
:10AF200010B103685B68984704F18000FDF798FB57
:10AF300004F12800FDF794FB2046044B40F8083B41
:10AF4000FEF7C0FE204610BDC4920300E891030046
:10AF500010B50F4B0446D0F8E00023604033A361E6
:10AF600010B103685B68984704F18000FDF778FB37
:10AF700004F12800FDF774FB2046064B40F8083B1F
:10AF8000FEF7A0FE204609F0E9FE204610BD00BFF6
:10AF9000C4920300E891030070B5044682B0182003
:10AFA00009F0DAFE00220546012109F0E9FF2846F2
:10AFB000B4F8DC10C4F8D85009F0F4FF2046FEF7CE
:10AFC00045FE054610B1284602B070BD01211E485D
:10AFD000FFF740FB04F12806034610213046019696
:10AFE0001E46FDF743FE2A4601981121FDF744FE57
:10AFF00001983146FDF73EFE01981449FDF74AFEDF
:10B000000198FDF747FB05460028DCD104F18000DC
:10B010000C210190FDF72AFE01980D490122FDF750
:10B0200031FE112201982946FDF726FE019831468E
:10B03000FDF720FE01980749FDF72CFE019802B0AC
:10B04000BDE87040FDF726BBDC5A00208492030067
:10B0500029A7020088920300002201214270C0E962
:10B0600001220170C2818281704700BF10B5044681
:10B07000017001B110BD0A2006F0BEFB606010BD7A
:10B08000037810B5044643B1002301226370C4E97C
:10B090000133E381A381227010BD406807F082F97B
:10B0A000F2E700BF002381608281C381704700BF47
:10B0B000037870B504460D46B3B946680123637042
:10B0C0004FF47A720023A802A90D0AF073FA014620
:10B0D000304606F0EBFF98B9237800264FF0FF3595
:10B0E0006670A3B9284670BD03220021012006F036
:10B0F00041FB064660600028E0D14FF0FF35F1E7E4
:10B10000E58923780026ADB26670002BEAD060682E
:10B1100007F048F96660284670BD00BF4078704768
:10B1200038B504468089824228BF0246154619B1C7
:10B13000A0680AF073FCA089E389A26815FA83F37A
:10B14000401B9BB22A44A081E381A260284638BDFF
:10B15000406820B100231A46194606F07FBB7047AD
:10B16000B1DF7047B2DF704708B50F4806F074F8DA
:10B170000E490D4800F054FB28B10D490A4800F073
:10B180004FFB50B108BD0949074800F065FB08496D
:10B19000054800F045FB0028F4D1BDE8084004490B
:10B1A000014800F059BB00BFAC5E002020930300B3
:10B1B0003493030070B586B00E4603230021054684
:10B1C00014460093044A0496084603AB039505947D
:10B1D00008F094FF06B070BDA1B4020070B586B04F
:10B1E0000323144606460D460093104603AB044A5B
:10B1F00005940721CDE9036508F080FF06B070BD16
:10B20000D1B5020030B50A4691B0897953790391DE
:10B2100011790293D378094D094C019100939378E9
:10B22000527801280CBF2946214604A80BF0D8FA11
:10B2300004A9044800F068FB11B030BD4893030036
:10B2400078930300AC5E00202DE9F043D1B00B7879
:10B25000032B04AF0D460446904668D95A08022ACB
:10B260005ED14F4A4F49504BDFF84891012818BF33
:10B2700011460022381D00F01FFD4B4907F1680000
:10B2800000F050FC07F1CC0611E00246414607F100
:10B29000680000F039FD08F1380229464846FEF7FB
:10B2A00079FB044678BB07F1680000F0A3FD00229B
:10B2B000391D304600F0D0FD07F1D0000DC8D7F899
:10B2C000DC10D7F8E4407B67D7F8E83097F8E0C0A7
:10B2D000F8663A67B967412207F1EC0107F1880087
:10B2E000C7E9204387F87CC00AF098FB07F16800A3
:10B2F00000F0ACFD044607F1680044B100F0B2FB79
:10B300005028D0D1C1E707F1680000F073FD381D67
:10B3100000F070FD204607F59A77BD46BDE8F08342
:10B320000024204607F59A77BD46BDE8F083E9463C
:10B330008CB08979AB786A7803916979029129791F
:10B3400001911A4E1A49E878009004AD012C08BF0B
:10B350003146284607F1CC060BF042FA1249304636
:10B3600000F0E0FB29463046002200F089FC04464C
:10B3700050B90024304600F03DFD2046CD4607F58B
:10B380009A77BD46BDE8F083304600F06BFB021EA5
:10B39000EFDD92B24146304600F0B6FCEAE700BF6E
:10B3A0003493030020930300AC5E00204893030015
:10B3B00078930300FC5A0020F0B5ADB095799378EE
:10B3C000344E1446527803956579029594F804C07A
:10B3D000CDF804C0304DE478009404AF0C46012849
:10B3E0000CBF3146294607F10C000BF0F9F92B4B45
:10B3F00007F10C0107F13C00002200F05DFC07F1B1
:10B400003C0000F023FD40B9002407F13C0000F0AF
:10B41000F1FC2046A437BD46F0BD07F13C0000F02A
:10B4200021FB051E08DD07F13C0000F0ABFC2918EC
:10B4300007F13C0000F088FC07F13C0000F012FB33
:10B44000051E08DD07F13C0000F09CFC291807F1FF
:10B450003C0000F079FC07F13C0000F003FB002801
:10B46000D2DDC31D23F007036D46ADEB030D82B2A1
:10B4700004A907F13C00C7E9001200F045FC204692
:10B48000D7E900120323FFF76BFEB0FA80F46409DA
:10B49000AD46BAE74893030078930300AC5E002002
:10B4A000F0B5B5B092F84E5092F84A30434E14467B
:10B4B00092F84920039594F84D50029594F84C5019
:10B4C000019594F84B5000950D463D4904AF012875
:10B4D00018BF314607F12C000BF082F9394807F10B
:10B4E0002C0100F09DF96E4600284AD1354B07F13A
:10B4F0002C0107F15C00012200F0DEFB07F15C008B
:10B5000000F0A4FC18B9C437B546BD46F0BD5021C3
:10B5100007F15C0000F0D4FA5022214607F15C00EC
:10B5200000F00CFA0023294627487B61C7E9033362
:10B53000C7E90633C7E90833BB62FFF793F807F1A1
:10B540000C012022FDF766FE3B7B03B307F10C00E4
:10B550000BF09BF9013082B2C1B207F15C007A6056
:10B5600000F0AEFA7A6807F10C0107F15C0000F018
:10B57000E5F907F15C0000F03DFCC437B546BD4677
:10B58000F0BD07F12C010F4800F0BEF9AEE794F8CA
:10B59000491094F84D3094F84E20039194F84A10D5
:10B5A000029194F84B10019194F84C10009107F11E
:10B5B0000C0006490BF014F9C8E700BF78930300AC
:10B5C00048930300AC5E0020DC5A0020A8930300DF
:10B5D0002DE9F043ADB00C4604AF0021032306462D
:10B5E0001546204607F10A027981FFF7BBFD7B89EA
:10B5F000E84623B9A437C546BD46BDE8F083073306
:10B60000DB08A8EBC3039D460DF11009204607F1A6
:10B610000A0249460323FFF7A5FD04460028E9D1A5
:10B62000A979AB786A7803916979029129790191B6
:10B630003D483E49ED780095012E08BF014607F1CF
:10B640000C000BF0CDF83A4B07F10C0107F13C0070
:10B65000012200F031FB07F13C0000F0F7FB00286D
:10B66000C8D0214607F13C0000F06EFB07F13C001A
:10B6700000F0F8F9041E08DD07F13C0000F082FB41
:10B68000211807F13C0000F05FFB07F13C0000F0DF
:10B69000E9F9041E08DD07F13C0000F073FB2118F6
:10B6A00007F13C0000F050FB07F13C0000F0DAF934
:10B6B0007C8980B2A04213D0E1B207F13C0000F0D7
:10B6C000FFF92246494607F13C0000F037F907F13F
:10B6D0003C0000F08FFBA437C546BD46BDE8F083B3
:10B6E000E31D6D46DB08A5EBC3039D4604A9224676
:10B6F00007F13C00796000F007FB79687A894846D9
:10B700000AF07EF908B9AD46E1E707F13C0000F028
:10B7100055FB7B89DB43191807F13C0000F014FB53
:10B72000AD467C89C8E700BF4893030078930300C7
:10B73000AC5E0020704700BF10B5044609F00EFB58
:10B74000204610BD38B50A4B04460D46442240F849
:10B750000C3B00210AF08AF90023A560237104F153
:10B760005401012006F02AFA2065204638BD00BFAA
:10B77000D093030070B504460E46006D4FF0FF31C4
:10B7800006F094FC257955B98EB1A660314604F1D6
:10B790000C0005F0BBFBB0FA80F56D0925710023A4
:10B7A000206D1A46194606F059F8284670BDA6685D
:10B7B000002EF4D0EAE700BF70B505464FF0FF3128
:10B7C000006D06F073FC2B7993B1002305F10C0694
:10B7D0002B71304605F0AEFC044680B10023286D85
:10B7E0001A46194606F03AF8B4FA84F0400970BDDA
:10B7F000A96805F10C0004F029FF0446EEE7A968EA
:10B80000304604F023FF04460028E7D1A9683046FB
:10B8100005F07CFB04460028E0D101232B71DDE715
:10B8200030B5044695B00D46006D4FF0FF3106F07F
:10B830003DFC294601AA04F10C0004F0DBFC0023C6
:10B8400002461946206D14461A4606F007F8B4FA67
:10B8500084F0400915B030BD2DE9F04F83B00B786E
:10B8600000AF2F2B78600CBF4C1C0C4606460D46D3
:10B87000006D4FF0FF3106F019FC06F10C084FF097
:10B88000000917E0ADEB030D68468B4500F8019BFE
:10B89000EA4601DD0AF0EAF829465A4650460AF01F
:10B8A000BDF85146404603F00BFD08B1113028D1D8
:10B8B0000134B54620462F210AF0C1FFA0EB050B4D
:10B8C0000BF108036E460021044623F007035A4695
:10B8D0000028D7D12946404603F0F2FC60B9012484
:10B8E0007A680023106D19461A4605F0B7FF204606
:10B8F0000C37BD46BDE8F08F113014BF0024012481
:10B90000EEE70024B546EBE738B504460D46006D7A
:10B910004FF0FF3106F0CAFB294604F10C0004F099
:10B92000C1FC002302461946206D14461A4605F054
:10B9300095FFB4FA84F0400938BD00BF036970B5C3
:10B9400004460D46186D4FF0FF31164606F0AEFB6B
:10B95000237D4BB1002522690023106D19461A463C
:10B9600005F07CFF284670BD2069A1692A46334650
:10B970000C3003F0F3FF20EAE075ECE770B50369E3
:10B98000044682B0186D4FF0FF3106F08FFB267D24
:10B990004EBB2069A1690C3004F01EFC05462069ED
:10B9A000A1698DF8076001230DF107020C3004F046
:10B9B0005FFB00282069A169C8BF9DF807602A467F
:10B9C00000F10C004FF00003D8BF4FF0FF3604F039
:10B9D000D3FB22690023106D19461A4605F03EFF7D
:10B9E000304602B070BD4FF0FF36F2E738B503695C
:10B9F00004464FF0FF31186D06F058FB237D4BB124
:10BA0000002522690023106D19461A4605F026FF0D
:10BA1000284638BD2069A1690C3004F0DFFB0546DB
:10BA20002069A1690C3004F0D7FB2D1AE9E700BFAB
:10BA3000036910B504464FF0FF31186D06F036FB70
:10BA4000237D43B122690023106DBDE810401A46E2
:10BA5000194605F003BF2069A1690C3004F0E4F930
:10BA6000F0E700BF30B50369044683B0186D4FF0AE
:10BA7000FF3106F01BFB257D55B122690023106DB7
:10BA800019461A4605F0EAFE4FF0FF3003B030BD0C
:10BA90002069A1690DF1070201230C3004F0E8FAD6
:10BAA00023692A4604462946186D2B4605F0D6FE22
:10BAB000002CCCBF9DF807004FF0FF3003B030BD25
:10BAC00030B50368164A5B6883B093428DF807105F
:10BAD0001ED1036904464FF0FF31186D06F0E6FAF7
