:020000022000DC
:10600000000001204DFA02008DFA02008FFA020012
:1060100091FA020093FA020095FA020000000000D3
:106020000000000000000000000000005D1F0300F1
:1060300099FA0200000000007D1F03009DFA020093
:106040009FFA02009FFA0200152F03009FFA020038
:106050009FFA02009FFA02009FFA02009FFA0200D4
:106060009FFA02009FFA02009FFA02009FFA0200C4
:106070009FFA02009FFA02009FFA02009FFA0200B4
:106080009FFA0200B51C03009FFA02009FFA02006B
:106090009FFA02009FFA0200C98F02009FFA0200D5
:1060A0009FFA02009FFA02009FFA02009FFA020084
:1060B0009FFA02009FFA02000000000000000000AA
:1060C0009FFA02009FFA02009FFA02009FFA020064
:1060D0009FFA02009FFA02009FFA020000000000EF
:1060E00000000000000000000000000000000000B0
:1060F00000000000000000000000000000000000A0
:10610000000000000000000000000000000000008F
:10611000000000000000000000000000000000007F
:10612000000000000000000000000000000000006F
:10613000000000000000000000000000000000005F
:10614000000000000000000000000000000000004F
:10615000000000000000000000000000000000003F
:10616000000000000000000000000000000000002F
:10617000000000000000000000000000000000001F
:10618000000000000000000000000000000000000F
:1061900000000000000000000000000000000000FF
:1061A00000000000000000000000000000000000EF
:1061B00000000000000000000000000000000000DF
:1061C00000000000000000000000000000000000CF
:1061D00000000000000000000000000000000000BF
:1061E00000000000000000000000000000000000AF
:1061F000000000000000000000000000000000009F
:10620000F1EE103A43F08073E1EE103A704700BFB0
:1062100010B5054C237833B9044B13B10448AFF3E0
:1062200000800123237010BD6038002000000000B2
:10623000D078030008B5034B1BB103490348AFF303
:10624000008008BD0000000064380020D078030002
:10625000154B002B08BF134B9D46A3F5803A002138
:106260008B460F461348144A121A0DF049FC0F4B87
:10627000002B00D098470E4B002B00D098470020F1
:10628000002104000D000D48002802D00C48AFF397
:1062900000800DF0CBFB200029000CF0B1FE0DF0CA
:1062A0009FFB00BF0000080000000120000000006C
:1062B0000000000060380020505A0020000000005C
:1062C0000000000032DF704741DF704776DF704723
:1062D000014B1880704700BF243A00202E4A2F49F6
:1062E000136870B50C680133136024B92C4800683A
:1062F00083421BDA70BD012CFCD12A48006883421E
:10630000F8DB294D2B680020012B0860106027D096
:10631000042B25D0022B2CD0032B02D1234B01229E
:106320001A70BDE8704022480CF082BF1E4D204814
:10633000146001260E600CF047FF2B68032B28D059
:106340001C491D4A0E60012B146018D0042B16D076
:10635000022BCFD1BDE87040012108200CF0E6BA35
:1063600000210E200CF0E2FA2B68022B01D0042B46
:10637000D2D1002108200CF0D9FA2B68CCE70121FA
:106380000E200CF0D3FA2B68022BE3D0042BE1D0C3
:10639000B0E70A4B1E7070BD4C3A0020483A00200E
:1063A000403A0020443A0020343A0020263A0020A7
:1063B000703A0020543B0020583B0020273A002030
:1063C00008B51E200CF0A4F9034A0449136821F80B
:1063D00013000133136008BD2C3A0020883A0020D6
:1063E00008B51C200CF094F9034A0449136821F8FD
:1063F00013000133136008BD303A00207C380020C0
:10640000F8B5304C237833B92F4B1B781BB92F4A82
:106410001368013313602E4B1B68012B00D0F8BDAD
:106420002C4D2A68012A21D0002AF8D1274E2A4A69
:10643000316812689142F2DB284F3A68032A2BD068
:10644000012A01D0042A39D101210E200CF06EFA64
:106450003B68022B01D0042B03D1012108200CF052
:1064600065FA012200232A603360F8BD174E1C4BE9
:1064700032681B689A42D2DB184F3B68012B0ED062
:10648000042B0CD0022B13D0032B04BF0123237049
:1064900000232B603360F8BD0B4A1370E1E7002145
:1064A0000E200CF043FA3B68022B01D0042BEBD1F9
:1064B000002108200CF03AFA3B68E5E7022ACCD02C
:1064C000CFE700BF263A0020273A0020583B0020A3
:1064D000483A0020543B0020503B0020343A002032
:1064E000503A00202DE9F04393B02C2301A9ADF8D8
:1064F00004300EF011FA0025CDE90255CDE905551D
:10650000CDE907550495ADF82450002800F0C2806D
:10651000654F664EDFF8C481DFF8C49102462C4611
:10652000414602A80EF072F9CDE90A44CDE90C44C7
:10653000CDE90E441094ADF844400C2D11D8DFE89D
:1065400005F097A08D83796F655B51473D33070058
:1065500002A90AA80EF087F90AA80DF029FAC9F8CD
:10656000000001A900200EF0D7F9013502460028ED
:10657000D6D130683C68002800F09380214602465E
:1065800000E01A4691FBF2F302FB13131146002BB5
:10659000F7D194FBF2F490FBF2F0454B3C60306095
:1065A0001A6013B0BDE8F08302A90AA80EF05BF9E7
:1065B0000AA80DF0FDF93F4B1860D2E702A90AA81E
:1065C0000EF051F90AA80DF0F3F93B4B1860C8E73B
:1065D00002A90AA80EF047F90AA80DF0E9F9374B0D
:1065E0001860BEE702A90AA80EF03DF90AA80DF04E
:1065F000DFF9334B1860B4E702A90AA80EF033F9AB
:106600000AA80DF0D5F92F4B1860AAE702A90AA82D
:106610000EF029F90AA80DF0CBF92B4B1860A0E772
:1066200002A90AA80EF01FF90AA80DF0C1F9274B1C
:10663000186096E702A90AA80EF015F90AA80DF04D
:10664000B7F9234B18608CE702A90AA80EF00BF9E2
:106650000AA80DF0ADF91F4B186082E702A90AA83D
:106660000EF001F90AA80DF0A3F91B4B186078E7AA
:1066700002A90AA80EF0F7F80AA80DF099F93860F7
:106680006FE702A90AA80EF0EEF80AA80DF090F93B
:10669000306066E7054E044F30683C6800287FF4A0
:1066A0006DAF2246012476E7503A0020503B00208F
:1066B000203A0020643A00200C360020543A002092
:1066C000583A0020783A00207C3A00200436002016
:1066D000343A0020403A0020443A0020B86F0300CA
:1066E000283A002010B54C4C2168012912D002290B
:1066F0001AD0032923D0042940D0484B1C68012C10
:1067000050D0474B1C68012C60D0464B1B68012BB6
:1067100070D010BD0E200CF0C7F800210E200CF038
:1067200005F921680229E4D1012108200CF0BCF808
:10673000002108200CF0FAF821680329DBD101219F
:1067400008200CF0B1F801211C200CF0ADF801215B
:1067500002200CF0A9F801210B200CF0A5F8012172
:106760000B200CF0E3F800211C200CF0DFF80021D6
:1067700002200CF0DBF821680429BED10121082099
:106780000CF092F8002108200CF0D0F801210E2026
:106790000CF08AF800210E200CF0C8F81F4B1C6882
:1067A000012CAED121460C200CF07EF821460C20A5
:1067B0000CF0BCF8214606200CF076F821460620A5
:1067C0000CF0B4F8164B1C68012C9ED12146022017
:1067D0000CF06AF8214602200CF0A8F800211C20D9
:1067E0000CF062F800210B200CF05EF80D4B1B68DA
:1067F000012B8ED100210C4800F0FEFB0A4800F06E
:10680000C1FC0A4B13211888FFF760FDBDE810405A
:10681000054800F0B7BC00BF343A00207C3A0020A5
:10682000583A002004360020743D0020243A00200D
:10683000394A2DE9F84F1468384B394A394F3A4EE6
:10684000DFF8F4A083FB043808EB04034FEAE47894
:10685000C8EB2318C8EBC809A4EB890942F0010B67
:106860000025C4F30312230142F09002DBB20021A1
:106870000B203A6033600CF059F800211C200CF01A
:1068800055F8002102200CF051F83B68012202214A
:106890001C200CF09DF83368012202211C200CF012
:1068A00097F80B2001210CF041F8DAF8003001359F
:1068B000A4EB0804980103B1D847A94501DD013CC8
:1068C000CFE71D2DCDD10024902321460B203B6026
:1068D00034600CF02BF821461C200CF027F82146E0
:1068E00002200CF023F83B68012202211C200CF04E
:1068F0006FF83368012202211C200CF069F8012195
:106900000B200CF013F80949094A0A4B0C6014607B
:106910001C70BDE8F88F00BF0C360020932449920C
:10692000D06F03000836002014360020543B0020AE
:10693000583B0020263A0020283A00203D4A3E4994
:1069400012682DE9F84F3D4B3D4F3E4EDFF804A154
:1069500083FB023909EB02034FEAE279C9EB231901
:10696000C9EBC9080025A2EB880841F0010B2C46B1
:10697000C4F30312230142F09002DBB200210B208A
:106980003A6033600BF0D2FF00211C200BF0CEFFE9
:10699000002102200BF0CAFF3B68012202211C20CB
:1069A0000CF016F83368012202211C200CF010F8BC
:1069B0000B2001210BF0BAFFDAF8003001354C440E
:1069C000980103B1D847A84501DD0134D0E71C2D5B
:1069D000CED1184B1B68C3F303121B0142F0900287
:1069E000DBB200210B203A6033600BF09FFF0021E7
:1069F00028460BF09BFF002102200BF097FF3B681D
:106A00000122022128460BF0E3FF336801222846C9
:106A100002210BF0DDFF01210B200BF087FF0A485C
:106A20000A490B4A0023012404600B601370BDE87F
:106A3000F88F00BF0C360020D06F030093244992DA
:106A40000836002014360020543B0020583B00201C
:106A5000273A0020643A0020F8B5194E194C1A4F15
:106A60001A4D30464FF4807102F0A2FB22461849BD
:106A700030460CF079FF174E38460CF089FB224661
:106A8000294638460CF070FF134F30460CF080FB5F
:106A90002246294630460CF067FF104E38460CF06F
:106AA00077FB2246294638460CF05EFF30460CF054
:106AB0006FFB224629463046BDE8F8400CF054BF33
:106AC0004439002000360020383A002041310300CC
:106AD0001D970200703A0020803A00205C3A0020A6
:106AE0002DE9F041454FDFF848E1DFF848C1444B5C
:106AF0004449454A454D4648464EDFF83C8100240E
:106B0000C7F800450127CEF80075CCF80045C3F85A
:106B10000045C1F800454FF040234FF0804182B05E
:106B2000C3F80045C3F80045C2F80045C2F8004567
:106B3000C5F80045384DC0F80045C2F80045802032
:106B4000C3F80045C6F80045C1F878750BF08CFD18
:106B50003846FFF7B7FB0223284603220097F421AB
:106B600002F000F82146284602F0E4F922463946B0
:106B7000284602F00BF828466FF0030102F09EF958
:106B80002846264902F072F9254905F52C7005F5CD
:106B9000007601F0FBFB404602F0F4FD394630463A
:106BA00000F02AFA0621304600F0F4F9304600F0F1
:106BB000D9F94146304600F097F905F50F7000F01D
:106BC000A3F94FF4C862304640F2DC5100F010FAED
:106BD0002146304600F00AFA2146304600F06CFAB1
:106BE000104A1149114B14600E201C220C601A60CF
:106BF00002B0BDE8F0410BF031BD00BF0020004005
:106C000000100240002002400030004000500240CE
:106C100000D0014000300240743B0020BC6F0300F4
:106C2000D1620200203A00202C3A002010360020C9
:106C30000070004000C0014044390020F0B56D4BA9
:106C40001B7897B09BB96C4B1B78B3B96B4802F0BB
:106C50000FFAC8B96A4C2368632B00F38280694C31
:106C60002368632B72DCFFF72FFB17B0F0BDFFF733
:106C7000DFFD614B1B78002BE8D0FFF75FFE5F481C
:106C800002F0F6F90028E5D000210E200BF04EFEB0
:106C9000002108200BF04AFE5B4D5C480CF0C8FA5E
:106CA0005B480CF0C5FA2B68012B00F08480594C2E
:106CB0002368012B7AD0584B1B68032B59D002A9AB
:106CC00050224E4802F0FCF902A80DF0E5FD0A281A
:106CD000C0D902A8FFF706FCFFF704FDDFF878C172
:106CE0004E4B4F4A4F495048002601270097CCF899
:106CF0000060DFF868C11E60166033464B4A0E60C4
:106D000007604FF47A714148CCF800700CF048FAF3
:106D1000474A009711683E48464A33460CF040FA0D
:106D20002B68BB425CD02368012B50D037480CF055
:106D30004BFA37480CF048FA2B68012B43D02368F4
:106D4000012B87D13C480CF03FFA83E73B492B48A5
:106D5000C82202F07BFC00232360FFF7B5FA17B0CE
:106D6000F0BD37492548C82202F070FC002323609B
:106D700075E700210B200BF0D9FD00211C200BF042
:106D8000D5FD002102200BF0D1FDE02301220221DC
:106D90001C200BF01DFE0023012202211C200BF001
:106DA00017FE01210B200BF0C1FD88E70021022016
:106DB0000BF0BCFD7FE723480CF03AFA00210620D7
:106DC0000BF0B4FD73E71F480CF0FEF9B7E71E4A5D
:106DD0000093116818481D4A00230CF0E1F9A5E75B
:106DE0001B4A0093116817481A4A33460CF0D8F929
:106DF00099E700BF263A0020273A002044390020B6
:106E00002C3A0020303A00207C3A0020383A00200A
:106E1000703A0020583A0020343A00204C3A0020C2
:106E2000543B0020583B0020683A0020DD620200FD
:106E3000203A0020016402005C3A00207C380020E7
:106E4000883A0020803A0020543A0020E163020092
:106E5000783A0020C16302006C3A0020483A0020D2
:106E600072DF704773DF704774DF704777DF7047FA
:106E700038B5054608460C4601F020FC102803D022
:106E800080280ED0012038BDEB7F22881B2B0EDC22
:106E9000E9180320E85448704A80EB7F0433EB770D
:106EA000F0E76368002BEDD0E97F0D2901DD0020BC
:106EB00038BD6A18112068540721517058681C6841
:106EC0009968DB68C2F80E30C2F80600C2F80240CA
:106ED000C2F80A10EB7F1233EB77012038BD00BFF8
:106EE0000022C2770270704700B50246D1E9020164
:106EF00083B06B4683E8030019461046FFF7B8FFDE
:106F000003B05DF804FB00BFF0B589B0064620224F
:106F10001348694601F0BEFFF37FC2181D2A0CDD3D
:106F2000C3F11D04E4B2E2181D2A4FF00005D8BFDA
:106F3000082705DD284609B0F0BD044601250927CC
:106F4000F218601CF05469465770901C22460CF0F1
:106F5000AFFDF27F023214442846F47709B0F0BD49
:106F6000743B002010B50446094801F0DFFFE37FC1
:106F70001C2B01DD002010BDE2180221E1540A2380
:106F800090705370E37F0333E377012010BD00BF9F
:106F9000743B0020C27F1C2A01DD0020704710B422
:106FA00003469C18022098540120A1706070DA7F7B
:106FB0000332DA775DF8044B704700BF10B4084A1B
:106FC000084C094902620022C0E90A41C0E90C22CA
:106FD0005DF8044B0270C27742628263704700BF63
:106FE000FF0101002000F40020001E00C185704751
:106FF000018581854285704780F82210704700BF67
:10700000F0B5154605EB8503274A89B0044603EB26
:10701000830300200E469B0011680290CDE90460B6
:10702000ADF8143094F821308DF80830CB07CDE955
:107030000600039009D41D491D4BC87FE77F988146
:1070400001201C6099609F801060194902AA04F118
:107050002000FFF705FF10B1002009B0F0BD94F843
:1070600020101448019101F061FF019902460120AE
:10707000FFF7FCFE0028EFD194F820000121FFF774
:10708000F1FE0028E8D10B4801F0AEFF628EA68524
:1070900095424FF0010094BF521B921A628684F809
:1070A000230009B0F0BD00BF5C3B0020B03D0020D4
:1070B000603B0020743B0020F0B5002361F30F0318
:1070C0002D4D044661F31F4389B00363FA2128461E
:1070D00001F034FFE68D2949278D0868049706EBF7
:1070E000860303EB830300229B000592ADF8143066
:1070F00094F8213002928DF80830C307CDE90622BA
:1071000003920BD41E4BE27F95F85B029A8005F543
:107110000F7501221C609D6098810A60184902AABF
:1071200004F12000FFF79CFE10B1002009B0F0BD73
:1071300094F820101048019101F0F8FE01990246E0
:107140000120FFF793FE0028EFD194F820000121E1
:10715000FFF788FE0028E8D1074801F045FF638E5D
:10716000A7859E424FF0010094BF9B1BDB1A6386EC
:1071700084F8230009B0F0BD743B00205C3B002084
:10718000603B002010B5044690F82000FFF76CFE2D
:1071900008B1002010BD84F82300024801F038FF38
:1071A000012010BD743B002030B50B888D88112B59
:1071B00085B0044605D0262B33D0102B25D005B042
:1071C00030BD436AEB40DB07F9D52E4801F0BEF82D
:1071D0000028F4D1636A94F82310012202FA05F51D
:1071E00023EA050363620029E9D194F82230002BD9
:1071F000E5D0238E24486386FA2101F09FFEE28DBC
:10720000218D2046FFF7FCFED9E7CB7B012BD6D1A1
:10721000426A03FA05F515430023456280F82330DE
:10722000CDE70B7A012BCAD1002380F823304FF42D
:10723000FA71154801F082FE238E5BB1658E95B11F
:10724000A36B0BB19847658E618D2A462046FFF7E8
:10725000D7FEB4E7A36B03B19847618D00222046A7
:10726000FFF7CEFEABE7084801F0D2FE626B002AC2
:10727000A5D0009503AB2946284603950BF032F9BB
:107280009DE700BF243E0020743B002075DF70475F
:1072900010B44FF010144FF448010022C0E900412F
:1072A000C0E902225DF8044B704700BF014800F0BE
:1072B00051BE00BF443E0020F8B500250D4F2E46BC
:1072C00001E0142D14D0A9B2384601F075FE013545
:1072D00004460028F5D000F0A1FC0028F1D020469B
:1072E00000F0A0FC022804BF0136F6B2142DEAD14A
:1072F0003046F8BD743B00200A881F2A00D0704732
:1073000000B50B4651F8080F83B049686A4603C2BE
:107310009888BDF80030ADF802306946FFF7B6FF37
:1073200003B05DF804FB00BFAADF7047ABDF704716
:10733000ACDF7047ADDF7047AEDF7047B0DF70473E
:10734000704700BF10B504460BF0A2FE204610BDEA
:1073500070B5594B04461B680361061D96B0304654
:1073600001F0BAF994F8263013F0320208BF84F81D
:10737000272013F00C0208BF84F8282013F03003F4
:107380007AD10FAD0F93C5E90133C5E9033394F802
:10739000262094F82710AB618DF83C200022ADF830
:1073A00009209DF80A20A0691493012363F3420287
:1073B0008DF808108DF80A2008B1037853BBA37F1D
:1073C00013B104F11E03129394F8292005960023AB
:1073D000D207CDE9073354BFE389E089ADF81C300B
:1073E00058BF184604F127010691ADF82000294640
:1073F00004F12A036569099505AA0020FFF794FFA7
:10740000054620B9637F83B9237B002B4DD02846E6
:1074100016B070BD10900DF03FFA02AB80B2ADF81F
:107420004400ADF846001393C9E7ADF80D009DF890
:107430000E30224A0C90012161F34203526894F805
:10744000271004928DF80E3004AA02238DF80C1038
:1074500003A90D90ADF83030ADF834300A9204F144
:107460001C030B910DF102020AA90E93FFF75EFFB8
:107470000028C9D00546CAE7104B94F827101B789E
:107480008DF804300FAD022200238DF8062094F809
:1074900026200F938DF80510C5E90133C5E90333A4
:1074A000AB618DF83C2001AB78E72146044800F041
:1074B0000DFF284616B070BD703B0020D86F03004A
:1074C000743B00202DE9F0410B888E88502B8AB048
:1074D0000C46054609D0512B04D18B79012B18D0CD
:1074E000022B26D00AB0BDE8F081CB88428D9A42AB
:1074F00035D0EA8D9A42F5D1EB6C002BF2D095F89D
:107500003C20648A92077ED422462946304698471A
:10751000E8E7036C002BE5D090F83C20520701F11E
:10752000080700F192803A46294630469847A379E9
:10753000D6E7A27B042A4AD0062A20D0012AD1D13C
:107540006B6C002BCED095F83C20170704F1080493
:1075500000F1A7802246294630469847C2E7876C4B
:10756000002FC6D090F83C30D9075CD404F1120843
:10757000238A424629463046B847E388B9E76A6B12
:10758000002AAFD0002202A93046CDE90222CDE97F
:107590000422ADF80C208DF80830FFF7CFFEAC6C5C
:1075A0004CB195F83C30D80700F19C806B8F6A6B2A
:1075B00030462946A0476C6B0AF00CF8012820469B
:1075C0007FD008F089FA0023C5E90D338AE7686B9C
:1075D000002879D0278A628A298F07EB020C0023C2
:1075E0004FF0020E8C45CDE90633CDE908338DF816
:1075F00018E03ADD40F20913ADF81C3006A9304618
:10760000FFF79CFE6EE7032000211A46009006ABB0
:107610000846CDE9066508940AF064FF00287FF467
:1076200061AFEB6C70E7218A069604F1120804231F
:1076300000933A46404606ABCDE9088107950AF02B
:1076400051FF002899D1AF6C92E703211A460091AF
:1076500006AB08213846CDE9066508970AF042FFD7
:1076600000287FF464AF2B6C5DE79DF81EC0ADF879
:107670001C3004F114014CF001033844ADF8222011
:107680008DF81E300991ADF820700CF011FA238AA4
:10769000618A6A8F0B449BB2934238BF13466B8753
:1076A000ACE703211A46009106AB0E212046CDE936
:1076B000066508940AF016FF00287FF413AF6B6C80
:1076C00048E70CF0DFF97EE74FF480672F8709F079
:1076D00081FF0128384616D008F0ECF900236863D2
:1076E0006B8777E7686B698F0696042300932246C1
:1076F00006ABCDE9075009910AF0F4FE00287FF4AB
:107700005AAFAC6C52E70CF0B5F9E7E72DE9F04F52
:107710000F464FF6FF718F4289B0064615461C464C
:1077200026D0F18996F826308C4228BF0C46DB061D
:1077300015D40DF1100B8C4228BF0C464FF00008F9
:10774000718DADF810405A464FF6FF700595ADF8B3
:107750001280FFF7EDFD404609B0BDE8F08F3948D3
:10776000394601F011FC08B1F18D31B9F189E0E73A
:10777000344801F015FC0746D3E7002002230DF141
:10778000100BADF81200ADF810305A460DF10E0393
:1077900038460593FFF7CEFD43F2014398424FD0A0
:1077A00000284AD19DF80E8008F00108B8F1000FBA
:1077B00046D02448394601F0FFFB8246A0B300F0D2
:1077C00033FA033883B2002CC5D0CDF804804FF0D3
:1077D0000009984605E0BDF80E30E41AA4B21D4435
:1077E00044B3504600F044FAA04503464246594689
:1077F00028BF22463846BBB1ADF80E204FF001023B
:10780000738D8DF812200DF10E02CDE90625CDF80D
:1078100013908DF81790ADF81030FFF78DFD00280C
:10782000D9D0504600F02EFA4FF00008404609B07B
:10783000BDE8F08FDDF804808DE700F00108B5E7C2
:10784000F18978E7743B002070B483B06D4685E819
:1078500006000446164944F8041B034695E8030055
:10786000144E84E80500317883F8281003200022A4
:10787000142583F829001846C3E90D22C3E9102214
:10788000C3E91222DD8183F83C201A731A619A61E0
:107890009A83C3F81E20C3F8222083F826205A6159
:1078A0005A85DA621A8683F8271003B070BC7047D5
:1078B000E86F0300D86F03000069704780F8261056
:1078C000704700BFC181704780F8271080F82820DA
:1078D000704700BF90F83C30816462F3000380F889
:1078E0003C3070478161704751F82A2F0260496827
:1078F0004160704790F8263013F0100301D118460C
:10790000704730B5044685B011480D4601F03CFB88
:1079100010B1E18D11B9084605B030BD0DF1060377
:1079200028460024022502AA0393ADF80A40ADF8C8
:107930000850FFF7FFFC43F20143984206D008B914
:107940009DF8060000F0010005B030BD2046E3E7D9
:10795000743B002010B490F8264014F0100403D0BB
:107960005DF8044BFFF7D2BE20465DF8044B70472C
:10797000A1DF7047A3DF7047A4DF70470023838235
:10798000704700BF806900F0E3B800BF808A70478D
:107990002DE9F0410B88CE88382B86B00C46054681
:1079A00006D0392B66D0362B43D006B0BDE8F08127
:1079B00000F11C07002E36D10A8A3846314601F004
:1079C000A1FF94F80C80B8F1010F2CD0B8F1040F8E
:1079D000EBD1A86900F0BCF801465C4801F0ECFA74
:1079E00000F022F92A8D053883B2934228BF13464E
:1079F000002B00F09A80218AE289A869AC8A8DF870
:107A00000D600A44696A05918DF80C80ADF812305A
:107A1000ADF81020ADF80E4000F09AF803A9FFF77A
:107A2000A9FF0028C1D0384601F084FF06B0BDE8A8
:107A3000F081806900F08CF80146444801F0BCFAFE
:107A400000F0F2F807466EBB05F11C06E2893046ED
:107A500004F1100101F056FF2B8D2BB1F81EE389C4
:107A600080B20138834255DA304601F063FF06B038
:107A7000BDE8F0810B7B012B1AD0022B95D1036B53
:107A8000002B92D090F834208F8892071FD401F1F8
:107A90001006E28931462846984761893846FFF743
:107AA0006BFF82E705F11C07384601F043FFBDE795
:107AB000C36A002B3FF479AF90F83420D10717D474
:107AC00004F11006E2893146284698476DE7C989D6
:107AD000039004F1100603201A46009003AB3046D1
:107AE000CDE904610AF0FEFC0028D6D12B6BD0E76B
:107AF000E189039004F1100603201A46009003ABBD
:107B00003046CDE904610AF0EDFC00287FF44DAF6A
:107B1000EB6AD7E7A86900F01BF86A8DA98A92B2D0
:107B2000FFF726FF00289FD13FE7AA8AA869ADF892
:107B30000E2040F20511ADF80C10CDE9043300F031
:107B400007F803A9FFF716FF6DE700BF743B00209D
:107B5000808870477FDF704786DF70478FDF704710
:107B600090DF7047B1DF7047B5DF704710B5074B46
:107B700003600446C06908F005FE206A08F002FEB2
:107B8000606A08B108F0FEFD204610BD00700300D9
:107B900010B5094B03600446C06908F0F3FD206A84
:107BA00008F0F0FD606A08B108F0ECFD20460BF02B
:107BB0006FFA204610BD00BF0070030070B5044688
:107BC000154D1068A1801721C4F813002560907925
:107BD0009588E1804FF4D816D179A4F81750012286
:107BE000227422736076617318461946A6609DF868
:107BF000105007F0F1FF2946E061284607F0ECFF3E
:107C000000234FF6FF722062C4E90A33E2816374F5
:107C10006362A374204670BD00700300007C70474F
:107C2000407C7047407B7047C08870470089704730
:107C30002DE9F04186B004ACB0F8048016460D463C
:107C400020464FF4285100F02DFDCDE900564FF6A7
:107C5000FF77012094E80C004146CDE90207034874
:107C600000F0D0F906B0BDE8F08100BF743B002001
:107C700008B56621C06908F009FC003818BF01206A
:107C800008BD00BF08B500231A461946C06907F0B1
:107C9000D5FF003818BF012008BD00BFC289818808
:107CA000407B01F08DBE00BF70B50B88113B96B0D4
:107CB0000C460546462B77D8DFE813F08400870092
:107CC00047008A007600760076007600A100B000BA
:107CD000760076007600760076007600BC00C40060
:107CE000CA00D00076007600760076007600760036
:107CF00076007600760076007600760076007600D4
:107D00007600760076007600760076007600D30066
:107D10007600020176007600760076007600760026
:107D200076007600760076007600760076007600A3
:107D30007600760076007600760076007600D60033
:107D4000DD007600E3007800F20009F043FC012832
:107D50004FF0500000F0D78007F0ACFEE86218B397
:107D6000502200210BF0CCFE71496C7BEB6A086855
:107D700000906A46012C0C7914714FF000014FF607
:107D8000FF7003F11C04029303F13803CDE90643AD
:107D9000E88118BF0A46A888059102ABCDE9031116
:107DA000CDE90811FFF7D6FE16B070BD8B79002B18
:107DB000FAD1406AAB740028F6D01A46194607F08B
:107DC0003DFFF1E700230374EEE74B890381EBE706
:107DD0005022002102A80BF093FE218A687B02AAA0
:107DE00001F00AFE034600287BD00023A88802A9E0
:107DF00010AAFFF7B1FEBDF81A30EB81D4E70B7A79
:107E0000002B00F08380EC6A09F0E4FB0128204697
:107E100076D007F061FE0023EB62C5E70B7A112BE9
:107E200065D1A86A0028BFD000231A46194607F07A
:107E300005FFB9E7002302A98088ADF80830FFF7F5
:107E40008DFEB1E70B7A002BAED14B7A0373ABE713
:107E5000002211468088FFF783FEA5E70B89438146
:107E6000A2E74B89C3809FE700231A461946808802
:107E7000FFF778FE98E7406A0123AB740028D3D15E
:107E800092E7417B2B4801F08FF8E3880146994245
:107E900028BF194689B2A888E980FFF765FE83E705
:107EA0008B79002B80D0002600231A461946E869FA
:107EB00007F0C4FE0136A279F3B29A42F4D873E710
:107EC0008B7A002B3FF470AF002600231A46194628
:107ED000286A07F0B3FE0136A27AF3B29A42F4D8C8
:107EE00062E7A8881A461946FFF736FE5CE7C289A2
:107EF0008188407B01F0B4FD90B101236B7490E761
:107F00000BF0C0FD87E70BF0B5FD27E7C26A81885B
:107F1000538AC38101234374407B01F03DFD72E726
:107F2000034602460146A888FFF71CFEE5E700BFAE
:107F3000733E0020743B002010B50446043001F06D
:107F400081FC034B236000232375204610BD00BF36
:107F50000100FFFF017D01B1704710B504460430F8
:107F600001F07AFC0123237510BD00BF007D70472E
:107F70000B88322B10B504D0332B17D0302B08D000
:107F800010BDCB88DBB1041D2046BDE8104001F0D8
:107F9000D1BCCB88041D002BF6D14B89002BF3D02C
:107FA0000A3120460A2201F0ADFCEDE7CB88002B18
:107FB000E9D14A89002AE6D002EB420204E04A896C
:107FC000002AE0D002EB82025200041D023292B27B
:107FD0000A31204601F096FCD6E700BFA0DF7047CB
:107FE00010B5044600F5F87001F02CFC2046F8228C
:107FF00000210BF085FDF822A01800210BF080FD78
:10800000204610BD2DE9F04385B00546BDF8380087
:10801000ADF80C00BDF83C00ADF80E00E8461E4877
:10802000BDF8349088E80C000F4600F0C5FF05F558
:10803000F875064603E0FFF7F9FD07F031FD284625
:1080400001F05EFC04463046002CF4D101212846A4
:1080500001F002FC0C994A46284601F019FC414601
:10806000384603AAFFF7BAFF30B1284601F0FEFBFD
:10807000204605B0BDE8F0834FF4FA71284601F0C0
:108080000DFC20EAE074284601F0F0FBA4B2204683
:1080900005B0BDE8F08300BF743B00202DE9F04F30
:1080A0008F880D8885B0884604463946864800F09A
:1080B00083FFA5F11003012B814640F2908094F8D4
:1080C00054203AB3002633461633502D54F823A0DB
:1080D00069D0512D1AD198F80630B8F808B0022BA3
:1080E00053D0BBF1000F11D051466846FFF7FCFB9F
:1080F000BDF800305B4559D0514602A8FFF7F4FBAC
:10810000BDF80C305B4551D094F854200136F3B2E1
:108110009342D9D394F84C31002B00F0D18004F570
:10812000A679002604E094F84C310136B34220DDF4
:1081300059F8040FFFF726FCB842F4D1382D03D0CC
:10814000392D01D0362DEED1B8F80AA0BAF1000FC2
:10815000E9D0D9F800B05846FFF718FC5045E2D1F5
:1081600058464146FFF714FC94F84C310136B342AF
:10817000DEDC112D55D0352D04D1B8F80A30002B96
:1081800040F08F8005B0BDE8F08F98F80E30062BD8
:10819000A7D1DAF800305046DB6841469847484698
:1081A000FFF73EFDB0E7B8F806B09AE7DAF800301E
:1081B0005046DB68414698474846FFF731FD0028A6
:1081C000A2D0502DA0D1514602A8FFF78DFBBDF8DB
:1081D0000C305B4598D14846FFF760FD94E7237863
:1081E000002B3FF46CAF0026112D33460CD004EB6E
:1081F00083033946586803685B68984701362278DC
:10820000F3B29A42F3D85AE704EB8303394658682D
:1082100003681B68984701362278F3B29A42F3D874
:108220004DE7D3B10026334605E094F84C210136E2
:10823000F3B29A4211D904EB8305D5F85001FFF748
:10824000A1FBB842F1D1D5F85001FFF797FB0136F9
:1082500094F84C21F3B29A42EDD894F8F820002A11
:1082600090D000252B4604EB8303D3F8FC008388D1
:10827000BB420AD00135EBB2934283D204EB8303B5
:10828000D3F8FC008388BB42F4D103681B6898478D
:10829000013594F8F820EBB29342E4D305B0BDE881
:1082A000F08F04F5F874B8F80C20204608F110019E
:1082B00001F028FB204605B0BDE8F04F01F03ABBC5
:1082C000112D7FF458AFC8E7743B002090F854207C
:1082D000272A0CD810B4034602F11604013280F8A4
:1082E000542043F8241001205DF8044B704700200F
:1082F000704700BF0378132B06D800EB83020133CD
:1083000003700120516070470020704775DF70478F
:1083100078DF70477ADF7047054A034692E803002A
:10832000002283E80300C3E902221846704700BF19
:108330000870030008B5FFF7EDFF08B1002008BD85
:10834000FFF7E6FFB0FA80F0400908BDF8B5002558
:108350000D4F2E4601E0142D14D0A9B2384600F07E
:108360002BFE013504460028F5D0FFF757FC002806
:10837000F1D02046FFF756FC012804BF0136F6B2C3
:10838000142DEAD13046F8BD743B0020816070475F
:108390000A88102A00D07047CA7B012A0B46FAD1FE
:1083A0000A8A0188914210B4448804D8A24202D8B3
:1083B0005DF8044B704701465DF8044B9888FFF761
:1083C000A5BF00BF8ADF704730B40D4CC4621F25C3
:1083D000002250248584A025C0E91122C0E90F2283
:1083E000A0F84650A0F84840006230BC8262028685
:1083F00080F838204263C264A0F85020704700BF64
:10840000000180002DE9F04F8FB002AE304686E8C3
:108410000C000C4600F052F9C5B2102D4FD0039E4F
:1084200007220623A16994F81C9001918DF815206C
:108430008DF81430ED080DF114080DF1160A00271F
:10844000B9F1010F0C97CDE90677CDE90877CDE9B1
:108450000A77CDF833700ED998F8000001994B4691
:108460004A7882420FD00A78D4432344013213F071
:10847000FF031144F4D108F10108C245E0D1002006
:108480000FB0BDE8F08F11F8024B013CE4B2224678
:1084900006A80BF00DFB0DF1180B1CB9EBE714F05F
:1084A000FF04E8D058462A4631460BF0F3FA641B25
:1084B000AB440028F3D101200FB0BDE8F08F0322B8
:1084C0000223AFE7F0B50B888D88103B85B00E46D0
:1084D00004460D2B2CD8DFE803F067072B2B2B2B42
:1084E0002B2B2B2B2B742B2D836AEB40DB071FD5FB
:1084F0004C48FEF7E1FED8B9A36A94F82C20012677
:1085000006FA05F523EA0505A5628AB994F82D3027
:1085100073B11F232462A38404F1200104F14400F9
:10852000FFF750FF20B9404800F05EFD84F82C6052
:1085300005B0F0BD90F92E2091F91B309A422CDC49
:1085400090F8383001F108079BB1002502E0D5B260
:10855000AB420CD9636B03EBC5030CCB3946204609
:10856000FFF750FF94F838306A1C0028EFD09D4286
:1085700013D094F82F30002B48D096F82430012BDC
:108580000BD9316A4A78FF2A2FD00A78D0430344A6
:10859000013213F0FF031144F4D104F12001002053
:1085A000FFF710FF05B0F0BDCB7B022BC0D1836A73
:1085B000012202FA05F52B430022836280F82C2069
:1085C000B6E70B7A012BB3D1002580F82C50164862
:1085D00000F01EFD226C002AAAD0009503AB2946AC
:1085E0002846039509F07EFFA2E711F8025B6A1E98
:1085F000D2B2022A28BF022203A80BF059FA012D99
:10860000CBD0228EBDF80C309A42C6D1E26B002A44
:108610008ED001230093384603AB2421039709F041
:1086200061FF85E7343E0020743B0020A8DF7047DF
:10863000704700BF30B500F1080185B00546084617
:10864000019100F049F801990DF10E020120FFF7A8
:10865000EDFF044628B9044B04481D602946FFF786
:1086600049FE204605B030BD703B0020743B002021
:1086700030B482B06D4685E806000446064944F8E9
:10868000081B034695E80300002184E8050018460E
:10869000998002B030BC70471870030062DF7047E9
:1086A00063DF7047012200230180827043607047BE
:1086B0000023416083700380704700BF8378012BE3
:1086C00008D0426822B9012B8CBF8020002070475F
:1086D000802070471020704783787BB910B504461E
:1086E000406868B1A11CFFF7D9FF616822461020DD
:1086F000FFF7D6FFB0FA80F0400910BD01207047A7
:10870000012010BD4BDF704710DF70477CDF7047E2
:108710007DDF704760DF704769DF704761DF70475A
:1087200066DF704767DF7047704700BF13200AF0AD
:1087300013B900BF30B5124C124D83B0D4F8080302
:108740004FF0FF3107F0A2FE0028F7D06DB101A86D
:10875000FFF7D8FF0528F1D00028F8D10198831E33
:10876000012BF4D807F0F6F8F1E701A8FFF7CAFFEC
:108770000528E3D001A8FFF7C5FF0528F5D1DDE7FF
:10878000743B002055F902002DE9F04F2DED028BCE
:1087900089B008F01FFF01284FF4FA7000F08081C3
:1087A00007F088F90546B14E05F1080308EE103AC6
:1087B00006F5587706F5007AD6F804034FF0FF3136
:1087C00007F064FE0028F7D04FF4FA730DF116019C
:1087D0002846ADF81630FFF7A1FF10B10528F3D1F8
:1087E000EAE7B5F80490B9F1130F00F2378106EB10
:1087F0008903D3F814431CB129462046FFF754FAE5
:108800002B88013B1B2B5BD8DFE813F018015A00C3
:108810005A005A005A005A005A005A005A005A0088
:108820005A005A005A005A005A00B5001C005A005B
:108830005A005A005A005A005A005A005A005A0068
:108840005A00A300DFF838824FF0000B58F8040FED
:1088500030B1FFF7E3F918B10BF1010B5FFA8BFBB5
:10886000B845F3D1BBF1000F06D196F810331BB118
:10887000594613200AF05AF82046FFF7D3F9012889
:1088800000F0EE80D6F8CC2262B10223CDF8189029
:10889000002195F808C00093084606ABCDF81CC02F
:1088A00009F020FE09F1C40806EB8803586810B1EE
:1088B00003685B68984706EB88080023C8F8043013
:1088C00029465046FEF770FC69482946FFF7FAFD35
:1088D000B6F812334B452B8800F0B580102B1ED014
:1088E0002CB32046FFF79EF9012803D161482946A1
:1088F000FFF74EFD2046FFF795F902281BD05E4892
:10890000FFF734FB00BB59482946FFF7C7FBD6F8F1
:108910006833002B3FF458AF2846984754E7EB7B69
:10892000012BDDD1AB88A6F81233002CD9D15148E8
:108930002946FFF72DFD51482946FEF7DDFC4E483C
:10894000FFF714FB0028DED04B482946FFF710FB49
:10895000D9E7D6F86423002AB2D0CDF818900223C4
:10896000002195F908C00093084606ABCDF81CC05D
:1089700009F0B8FDA4E74FF00008D6F80C03CDF8D5
:1089800000804346424603213D4C09F0FFF854F86D
:10899000040F30B1FFF742F918B108F101085FFA8E
:1089A00088F8BC42F3D196F810336BB1B8F10001EE
:1089B00018BF0121132009F0B9FF96F810331BB13D
:1089C0000121132009F0B2FF09F1C40806EB880465
:1089D000606820B103685B68984700236360EB7BA5
:1089E000012B0BBF96F8F23296F8F83296F8F34264
:1089F00096F8F942039330200AF03AFB06EB880818
:108A0000039B009418EE102A04464946FFF7D6F857
:108A10002046C8F80440FFF705F9012832D0D6F8FF
:108A2000C822002A3FF44CAF0123002100930846DE
:108A300006ABCDF8189009F055FD41E700214846F6
:108A4000FFF76EFE3CE7102B3FF469AF112B7FF46C
:108A500047AF4FF6FF73A6F8123341E70446CFE65F
:108A6000D6F8BC22002A7FF410AF1BE7743B00202D
:108A7000D03D0020243E0020443E0020343E002013
:108A8000843E0020D6F8B822002A3FF419AF002116
:108A9000009006AB0846CDF8189009F023FD0FE7CB
:108AA0000AF0E8FF05467EE638B50446FFF798FA77
:108AB00004F50070FEF782FA04F50F70FEF710FA65
:108AC00004F51770FFF780FC04F52C70FFF724FC09
:108AD00004F53070FEF7DCFB04F53470FFF72CFA78
:108AE0001B481C491C4AC4F8F4224FF4406300257B
:108AF000C4F8E83240F20113C4E9BB01A4F8F8322B
:108B00002946A4F8FA5204F5457050220AF0F8FFFD
:108B1000C4F8FF5284F80353D4E9BF304FF6FF7214
:108B20000E49A4F812230E4AC4F80453014003F07E
:108B30000E430A4343F04453C4E9BF320121C4E960
:108B4000D955C4E9C25584F81013204638BD00BF7A
:108B5000010A170003000101170003000000FCFCDC
:108B60000710030310B41729B8BF1721022A9DF874
:108B7000044080F8F342B8BF02225DF8044BA0F82D
:108B8000EE12A0F8F02280F8F2327047F0B5AD4E48
:108B900080F8FC128DB0336980F8FD220446AA49A2
:108BA000039303A8FFF7B0FD18B1002528460DB0C8
:108BB000F0BD0990CDE90A00A44A94F8ED32049280
:108BC00009A901208DF82430FFF7A6FD0028ECD17B
:108BD00094F8FD320B90CDE90900181E18BF012052
:108BE00094F8FC528DF82700049A8DF8263009A9D4
:108BF00040208DF82550FFF78FFD0028D5D194F83F
:108C0000EC120990034661F30003CDE90A00049ACF
:108C10008DF8243009A9A020FFF77EFD0028C4D1DB
:108C2000D4F8E8320A900B90049A099309A9A1207C
:108C3000FFF772FD0028B8D194F8FC32002B40F009
:108C4000B18094F8FD32002B47D00023B4F8F472C1
:108C5000049A0993022509A92320CDE90A338DF846
:108C60002450ADF82670FFF757FD00289DD1CDE9BF
:108C7000090094F8FD72B4F8F6320B90049A8DF85E
:108C8000245009A920208DF82670ADF82830FFF770
:108C900043FD002889D10990CDE90A0094F8F83203
:108CA000049A8DF8245009A922208DF82630FFF768
:108CB00033FD00287FF479AFCDE9090094F8F9324B
:108CC0000B90049A8DF8245009A921208DF82630A4
:108CD000FFF722FD00287FF468AF04A8FFF71AFD14
:108CE00000287FF462AFCDE9070040F0010307A937
:108CF00002208DF81C30FFF715FD00287FF455AFDA
:108D000004F52C70FFF716FB054600283FF44DAF25
:108D1000337D4F498DF808300B2202A8FFF7F6FC8F
:108D200000287FF442AF94F8FD32002B40F084809D
:108D300003220021012006F00DFFC4F804030028DF
:108D40003FF433AF05AB0326CDE900634149424808
:108D500000234FF4A06207F0B3FE32460021012049
:108D600006F0F8FEC4F8080300283FF41EAF06AB77
:108D7000CDE9006339493A480023C82207F0A0FE34
:108D8000384B4FF480021A60374B0093002318468B
:108D900001224FF4807108F0A3FEC4F80C0300F028
:108DA000D5FD03E70990CDE90A00B4F8EE32049A44
:108DB000ADF82630012509A923208DF82450FFF7AE
:108DC000ABFC00287FF4F1AECDE9090094F8FC7209
:108DD000B4F8F0320B90049A8DF8245009A92020A1
:108DE0008DF82670ADF82830FFF796FC00287FF448
:108DF000DCAE0990CDE90A0094F8F232049A8DF8BD
:108E0000245009A922208DF82630FFF785FC002880
:108E10007FF4CBAECDE9090094F8F3320B90049ABD
:108E20008DF8245009A921208DF82630FFF774FC15
:108E300000283FF406AFB8E604F53070FEF736FAC6
:108E400076E700BF74700300298702000036002017
:108E5000607003006C70030089870200707003006B
:108E60003587020000E100E02D87020000B5084BC5
:108E700085B01B7D019108468DF80C300BF00CFD80
:108E8000019982B203A8FFF741FC05B05DF804FB2D
:108E90007470030000B583B008460DF10601ADF80B
:108EA0000620FFF735FC20B99DF8060003B05DF8F9
:108EB00004FB002003B05DF804FB00BF30B41A4A85
:108EC0000B46054607CA84B001AC03C49DF90400F3
:108ED00022709842194620D09DF905308B421CD053
:108EE0009DF906308B4218D09DF907308B4214D083
:108EF0009DF908308B4210D09DF909308B420CD07F
:108F000059B19DF90B308B4207D09DF90C308B4243
:108F100003D0002004B030BC7047012085F8FE1259
:108F200004B030BC704700BF8C70030090F9FE02A3
:108F3000704700BF80F81013704700BF30B505467A
:108F400083B0D0F80C030C4608F04CFE0D4AA40286
:108F50000146A2FB043200230C46D5F80C03009313
:108F60009209042108F012FE0CB103B030BD009448
:108F7000D5F80C0323462246032108F007FE03B070
:108F800030BD00BFD34D6210132906D800EB81011C
:108F9000D1F8140308B1FEF741BE0020704700BFAE
:108FA000B0F81203704700BF01290CBFB0F8EE0201
:108FB000B0F8F402704700BF13299ABF00EB81019B
:108FC000D1F814030020704710B5064C0021D4F8E6
:108FD000080307F0CFF8D4F804030021BDE81040DF
:108FE00007F0C8B8743B002090F8103303B97047FD
:108FF00010B582B0D0F80C4307F052FF00230246B0
:1090000000932046012108F0C1FD02B010BD00BF51
:10901000F0B583B0002405462346D0F80C03009435
:109020002246032108F0B2FD05F5447605F5587790
:1090300056F8040F20B1FEF7F1FD08B10134E4B297
:10904000BE42F5D195F8103343B1211E18BF01215E
:10905000132003B0BDE8F04009F068BC03B0F0BDD8
:109060000148FFF721BD00BF743B0020002070477E
:10907000D0F8C030988980B2704700BF70B582B018
:10908000064608461C460192FEF716FC0199054665
:109090002246D0F8C0000AF06BF9844206D9D5F810
:1090A000D8301BB1211A89B230469847D5F8D03054
:1090B00023B1304602B0BDE87040184702B070BD21
:1090C00008B592B2D0F8C0000AF0A0F908BD00BF00
:1090D00000B583B0D0F8C0000DF1070200210AF0FE
:1090E000D1F920B19DF8070003B05DF804FB4FF003
:1090F000FF30F9E7D0F8C0000AF028B9D0F8B03056
:10910000988980B2704700BFD0F8B0000AF01EB94D
:1091100010B501680C4A8C69944282B00BD1D0F82A
:10912000C00001220DF107010AF070F940B19DF86D
:10913000070002B010BD01220DF10701A047F5E7BD
:109140004FF0FF30F5E700BFC190020000B583B0DB
:10915000D0F8B0000DF1070200210AF093F920B118
:109160009DF8070003B05DF804FB4FF0FF30F9E70E
:1091700010B550F8101C0D4A8C69944282B00CD086
:10918000103801220DF10701A04718B19DF8070022
:1091900002B010BD4FF0FF30FAE701220DF10701D8
:1091A000D0F8B0000AF032F9EFE700BFC19002003A
:1091B000F0B583B06D4604460F4628461A49FFF7BE
:1091C00077FA95E806002046FFF752FA174B184940
:1091D000002603F108024FF47A704833C4E90436DC
:1091E000A06122602846FFF763FA95E8060004F1C3
:1091F0002000FEF729FB28460E49FFF759FA95E8AB
:10920000060004F17000FEF71FFB2046C4E9346637
:10921000A4F8C470C4F8C060C4F8D860C4F8C860CA
:1092200084F8CC6003B0F0BDC0700300D0700300C0
:10923000B0700300A0700300F8B506461B480F4647
:10924000FFF7BAFEE8B1FEF7EFFCC41E08F0C2F962
:10925000A4B20128204617D006F02CFC054685B1A3
:10926000D6F8C800224629460AF0D0F8A0B9012451
:1092700008F0B0F9012828460AD006F02DFC204657
:10928000F8BD00242046F8BD0AF0F4FB0546E6E7E9
:109290000AF0F8FB2046F8BD0346394606F12000E7
:1092A0002A46FEF757FB0446E2E700BF743B002066
:1092B0002DE9F84F0446264890461F460E46FFF714
:1092C0007BFEA0B304F12009054631464846FEF76F
:1092D00011FB60B394F8CC300BB3D4F8C800F0B1F4
:1092E0001FFA87FA524641460AF042F8D4F8C820DD
:1092F00003462846B2F80CB01D46FEF795FC1FFA4F
:109300008BFB0338834506DB20463146FFF794FF8D
:1093100068B1BD420FD33D462846BDE8F88F4246AE
:1093200031464846BBB2FEF715FB0028F3D10025B5
:109330002846BDE8F88FAAEB05039BB208EB0502AF
:1093400031464846FEF706FB0028F1D0E3E700BFB0
:10935000743B00202DE9F04150F8103C82B00446E7
:1093600029489E6A8DF80710FFF71AFE274B9E4288
:109370000546A4F11007014607D0384601230DF138
:109380000702B04702B0BDE8F0811F48FFF714FEA6
:109390000646F8B104F1100840462946FEF7AAFA3D
:1093A000C0B194F8BC303BB3D4F8B80020B30DF191
:1093B0000701012209F0DCFFD4F8B82092890346A6
:1093C00030461C4696B2FEF72FFC0338864203DA7D
:1093D0000120D7E70020D5E738462946FFF72CFFC4
:1093E0000028F7D0002CF3D10DF1070229464046A2
:1093F0000123FEF7AFFAC5E72946404601230DF1E8
:109400000702FEF7A7FABDE7743B0020B192020005
:109410002DE9F04F50F8103C044681B02D48D3F8A8
:10942000289088461746FFF7BBFD2B4B994505460C
:10943000A4F1100608D001463B4642463046CC46D1
:1094400001B0BDE8F04F604701462248FFF7B4FD88
:109450008346D0B304F1100948462946FEF74AFA7C
:1094600098B394F8BC3043B3D4F8B80028B31FFACB
:1094700087FA5246414609F07BFFD4F8B8309B8901
:109480000246584614461FFA83FBFEF7CDFB03380D
:10949000834510DB30462946FFF7CEFEA8B1A74230
:1094A00009D9AAEB04039BB208EB040229464846FB
:1094B000FEF750FA50B13C4608E04246294648467D
:1094C000BBB2FEF747FA0028F5D10024204601B0D0
:1094D000BDE8F08F743B0020B19202002DE9F0410D
:1094E0000568294BAD6A82B09D428DF8072041D1B5
:1094F000044626480E46FFF75FFD054660B304F1BB
:10950000200738463146FEF7F5F928B394F8CC30F9
:1095100033B3D4F8C80018B30DF10701012209F0E4
:1095200027FFD4F8C8309B89804628469DB2FEF7B5
:109530007BFBC31E9D4224DB20463146FFF77CFEA9
:1095400050B1B8F1000F1CD10DF107023146384679
:109550000123FEF7FFF900E0002002B0BDE8F08132
:109560003146384601230DF10702FEF7F3F902B048
:10957000BDE8F08101230DF10702A84702B0BDE864
:10958000F0810120E9E700BFB1920200743B0020A6
:109590002DE9F041036882B004462A489E6A8DF89E
:1095A0000710FFF7FDFC284B9E42054601463FD1C0
:1095B0002448FFF701FD064660B304F12007384652
:1095C0002946FEF797F928B394F8CC3033B3D4F892
:1095D000C80018B30DF10701012209F0C9FED4F843
:1095E000C8309B89804630469EB2FEF71DFBC31EE5
:1095F0009E4225DB20462946FFF71EFE50B1B8F1FA
:10960000000F1DD10DF10702294638460123FEF750
:10961000A1F900E0002002B0BDE8F08129463846FB
:1096200001230DF10702FEF795F902B0BDE8F081C4
:10963000204601230DF10702B04702B0BDE8F081DA
:109640000120E8E7743B0020B19202002DE9F04FC1
:10965000036881B004462F489E6A88461746FFF784
:109660009FFC2D4B9E4205464AD101462948FFF7F3
:10967000A3FC064600283ED004F1200948462946AE
:10968000FEF738F9B8B394F8CC3063B3D4F8C80017
:1096900048B31FFA87FA5246414609F069FED4F8EA
:1096A000C82003463046B2F80CB01E46FEF7BCFA9E
:1096B0001FFA8BFB0338834510DB20462946FFF752
:1096C000BBFDC0B1B74209D9AAEB06039BB208EBB8
:1096D000060229464846FEF73DF968B13E46304647
:1096E00001B0BDE8F08F424629464846BBB2FEF7BE
:1096F00031F90028F2D10026304601B0BDE8F08FE4
:1097000001463B4642462046B44601B0BDE8F04F14
:10971000604700BF743B0020B192020010B50A4BB5
:109720000446D0F8C80023604033236110B10368B9
:109730005B68984704F17000FDF702FE04F1200019
:10974000FDF7FEFD204610BDD870030010B50C4B90
:109750000446D0F8C80023604033236110B1036889
:109760005B68984704F17000FDF7EAFD04F1200002
:10977000FDF7E6FD204609F08BFC204610BD00BF3A
:10978000D870030070B5044682B0182009F070FC50
:1097900000220546012109F0B1FD2846B4F8C410A5
:1097A000C4F8C05009F0BCFD2046FEF743FF054653
:1097B00010B1284602B070BD01211E48FFF7F4FB2E
:1097C00004F1200603461021304601961E46FEF79E
:1097D00075F82A4601981121FEF776F8019831466E
:1097E000FEF770F801981449FEF77CF80198FDF730
:1097F000AFFD05460028DCD104F170000C2101907A
:10980000FEF75CF801980D490122FEF763F811227A
:1098100001982946FEF758F801983146FEF752F8AC
:1098200001980749FEF75EF8019802B0BDE8704064
:10983000FDF78EBD743B0020987003007D90020000
:109840009C700300002201214270C0E901220170D6
:10985000C2818281704700BF10B50446017001B11A
:1098600010BD0A2006F0B8F9606010BD037810B58D
:10987000044643B1002301226370C4E90133E3814C
:10988000A381227010BD406806F07CFFF2E700BFA4
:10989000002381608281C381704700BF037870B567
:1098A00004460D4693B94068144BA902A3FB01314D
:1098B00001238909637006F0E9FD90B92378002639
:1098C0004FF0FF3566709BB9284670BD032200211A
:1098D000012006F03FF960600028E5D14FF0FF3528
:1098E000F2E7E58923780026ADB26670002BEBD055
:1098F000606806F047FF6660284670BDD34D621071
:109900004078704738B504468089824228BF0246B5
:10991000154619B1A0680AF0CBF8A089E389A268BE
:1099200015FA83F3401B9BB22A44A081E381A26015
:10993000284638BD406820B100231A46194606F073
:109940007DB97047B1DF7047B2DF704708B50F4887
:1099500005F0A8FE0E490D4800F06EFA28B10D4939
:109960000A4800F069FA50B108BD0949074800F0FB
:109970007FFA0849054800F05FFA0028F4D1BDE8F5
:1099800008400449014800F073BA00BFE03E0020DF
:10999000347103004871030070B586B00323144688
:1099A00006460D460093104603AB044A0594502129
:1099B000CDE9036508F096FD06B070BD419B02003D
:1099C00030B54FF6FF739A4287B014460ED0024668
:1099D0000D4603230021009303920846054A03AB7A
:1099E000CDE9045408F07EFD07B030BD002007B07B
:1099F00030BD00BF559C020070B5164D164EA0B08C
:109A00000C46134601280CBF3146294622466846BB
:109A10001D460AF0FBFE114B694607A8002200F024
:109A200095FC07A800F02EFD18B90024204620B0B0
:109A300070BD044607A800F021FB5028F5D102466E
:109A4000294607A800F0ACFB07A800F003FC20465D
:109A500020B070BD787103005C710300E03E00200F
:109A6000F0B54FF6FF73A3B09A4200AF5DD0314B13
:109A70000C463149012818BF194607F108000AF0C1
:109A8000C5FE2E4B07F10801002207F1240000F06B
:109A90005DFC07F1240000F0F5FC6D4648B9002498
:109AA00007F1240000F0D6FB2046AD468C37BD46BA
:109AB000F0BD07F1240000F0E1FA061E08DD07F111
:109AC000240000F0ABFB311807F1240000F088FB04
:109AD00007F1240000F0D2FA061E08DD07F1240089
:109AE00000F09CFB311807F1240000F079FB07F12E
:109AF000240000F0C3FA0028D1DDC31D23F00703C2
:109B00006E46ADEB030D82B2694607F124007A6020
:109B100000F046FB204669467A680323FFF712FFF0
:109B2000B0FA80F46409B546BAE7002420468C37C1
:109B3000BD46F0BD787103005C710300E03E00207B
:109B4000F0B51446AFB0012804AF0D4607BF528AE6
:109B50003B493C49E28D07F108000AF057FE3A48BC
:109B600007F108016E4600F067F900284BD1364B2B
:109B700007F1080107F14400012200F0E7FB07F1BB
:109B8000440000F07FFC18B9AC37B546BD46F0BDC7
:109B9000502107F1440000F09FFA5022214607F1BE
:109BA000440000F0D7F9002329462848FB62C7E9A2
:109BB0000933C7E90C33C7E90E333B64FFF7FCF9FF
:109BC00007F124012022FEF733F897F8243003B37D
:109BD00007F124000AF060FE013082B2C1B207F141
:109BE00044007A6000F078FA7A6807F1240107F1FE
:109BF000440000F0AFF907F1440000F02BFBAC3754
:109C0000B546BD46F0BD07F108010F4800F088F9E0
:109C1000ADE794F8491094F84D3094F84E20039134
:109C200094F84A10029194F84B10019194F84C105A
:109C3000009107F1240006490AF0E8FDC8E700BFDB
:109C40005C71030078710300E03E0020743B00204B
:109C5000947103002DE9F043A3B00C4600AF00213E
:109C60000323054616462046BA1DF980FFF76CFE11
:109C7000FB88E84623B98C37C546BD46BDE8F0836E
:109C80000733DB08A8EBC3039D462046BA1D69468F
:109C90000323FFF759FEE94604460028EBD1284B81
:109CA00028493246012D18BF194607F108000AF06D
:109CB000ADFD254B07F1080107F12400012200F05A
:109CC00045FB07F1240000F0DDFB0028D3D021463E
:109CD00007F1240000F084FA07F1240000F0CEF927
:109CE000041E08DD07F1240000F098FA211807F19E
:109CF000240000F075FA07F1240000F0BFF9041EFB
:109D000008DD07F1240000F089FA211807F124008A
:109D100000F066FAFC8807F12400E1B200F0DCF9FB
:109D20002246494607F1240000F014F907F1240007
:109D300000F090FA8C37C546BD46BDE8F08300BF01
:109D4000787103005C710300E03E0020704700BFA3
:109D500010B5044609F09CF9204610BD38B50A4BF1
:109D600004460D46442240F80C3B002109F0C8FE91
:109D70000023A560237104F15401012006F00EF9BF
:109D80002065204638BD00BFBC71030070B5044695
:109D90000E46006D4FF0FF3106F078FB257955B97E
:109DA0008EB1A660314604F10C0005F0D5FAB0FA88
:109DB00080F56D0925710023206D1A46194605F0BE
:109DC0003DFF284670BDA668002EF4D0EAE700BF2C
:109DD00070B505464FF0FF31006D06F057FB2B794B
:109DE00093B1002305F10C062B71304605F0C8FB3A
:109DF000044680B10023286D1A46194605F01EFF5F
:109E0000B4FA84F0400970BDA96805F10C0004F0B3
:109E100043FE0446EEE7A968304604F03DFE0446E2
:109E20000028E7D1A968304605F096FA04460028D4
:109E3000E0D101232B71DDE730B5044695B00D4626
:109E4000006D4FF0FF3106F021FB294601AA04F115
:109E50000C0004F0F5FB002302461946206D144661
:109E60001A4605F0EBFEB4FA84F0400915B030BD97
:109E70002DE9F04F83B00B7800AF2F2B78600CBF2B
:109E80004C1C0C4606460D46006D4FF0FF3106F0A7
:109E9000FDFA06F10C084FF0000917E0ADEB030DD9
:109EA00068468B4500F8019BEA4601DD09F028FE73
:109EB00029465A46504609F0FBFD5146404603F0FC
:109EC000ADFC08B1113028D10134B54620462F2110
:109ED0000AF0BCFCA0EB050B0BF108036E46002159
:109EE000044623F007035A460028D7D129464046A6
:109EF00003F094FC60B901247A680023106D1946C0
:109F00001A4605F09BFE20460C37BD46BDE8F08F93
:109F1000113014BF00240124EEE70024B546EBE71E
:109F200038B504460D46006D4FF0FF3106F0AEFA2D
:109F3000294604F10C0004F0DBFB0023024619461D
:109F4000206D14461A4605F079FEB4FA84F04009F3
:109F500038BD00BF036970B504460D46186D4FF05B
:109F6000FF31164606F092FA237D4BB10025226997
:109F70000023106D19461A4605F060FE284670BD94
:109F80002069A1692A4633460C3003F00DFF20EA10
:109F9000E075ECE770B50369044682B0186D4FF0C8
:109FA000FF3106F073FA267D4EBB2069A1690C30A3
:109FB00004F038FB05462069A1698DF8076001238C
:109FC0000DF107020C3004F079FA00282069A1692C
:109FD000C8BF9DF807602A4600F10C004FF000034F
:109FE000D8BF4FF0FF3604F0EDFA22690023106D60
:109FF00019461A4605F022FE304602B070BD4FF0F9
:10A00000FF36F2E738B5036904464FF0FF31186DAB
:10A0100006F03CFA237D4BB1002522690023106D28
:10A0200019461A4605F00AFE284638BD2069A1697E
:10A030000C3004F0F9FA05462069A1690C3004F0EF
:10A04000F1FA2D1AE9E700BF036910B504464FF095
:10A05000FF31186D06F01AFA237D43B122690023FF
:10A06000106DBDE810401A46194605F0E7BD20699D
:10A07000A1690C3004F0FEF8F0E700BF30B50369C9
:10A08000044683B0186D4FF0FF3106F0FFF9257DCF
:10A0900055B122690023106D19461A4605F0CEFD10
:10A0A0004FF0FF3003B030BD2069A1690DF1070208
:10A0B00001230C3004F002FA23692A46044629469B
:10A0C000186D2B4605F0BAFD002CCCBF9DF807009B
:10A0D0004FF0FF3003B030BD30B50368164A5B68FF
:10A0E00083B093428DF807101ED1036904464FF0E8
:10A0F000FF31186D06F0CAF9237D53B1002522699E
:10A100000023106D19461A4605F098FD284603B045
:10A1100030BD2069A1690C3001230DF1070203F065
:10A1200043FE20EAE075EAE701220DF107019847B6
:10A130000546284603B030BD559F020070B5044661
:10A140000D4607F047FA01284FF02C0020D005F00B
:10A15000B1FC0146A16131B123692A4603F10C002B
:10A1600003F034FD08B1002070BD0123237528469B
:10A170000AF092FB461C07F02DFA012830460BD05E
:10A1800005F098FCE06129460AF06DFB012070BDE6
:10A1900009F070FC0146DDE709F06CFCF2E700BF56
:10A1A000036970B504460D46186D4FF0FF31164631
:10A1B00006F06CF9237D4BB1002522690023106D58
:10A1C00019461A4605F03AFD284670BD2069A16976
:10A1D0002A4633460C3004F071F90546EDE700BF1E
:10A1E00038B5036904460D46186D4FF0FF3106F08F
:10A1F0004DF9237D4BB1002522690023106D1946CE
:10A200001A4605F01BFD284638BD2069A1692A467B
:10A210000C3004F0D7F9C543ED0FEDE738B503690D
:10A2200004464FF0FF31186D06F030F9237D4BB135
:10A23000002522690023106D19461A4605F0FEFC20
:10A24000284638BD2069A1690C3004F0EBF90546B9
:10A25000EFE700BF036970B504464FF0FF31186D9A
:10A2600006F014F9A169D1B12069237D0C30FBB14E
:10A2700003F0D4FCA56907F0ADF90128284624D0E5
:10A2800005F02AFCE5690023A36135B107F0A2F9C6
:10A29000012828461FD005F01FFC0023E361226936
:10A2A0000023106DBDE870401A46194605F0C6BC83
:10A2B00004F062F8A56907F08DF90128284607D057
:10A2C00005F00AFC0023A361E9E709F0DBFBD9E70D
:10A2D00009F0D8FBF6E709F0D5FBDEE7816951B359
:10A2E00038B5037D044600690C30BBB103F096FC21
:10A2F000A56907F06FF9012828461DD005F0ECFB91
:10A30000E5690023A36135B107F064F90128284607
:10A3100018D005F0E1FB0023E36138BD04F02CF810
:10A32000A56907F057F90128284608D005F0D4FBA5
:10A330000023A36138BD704709F0A4FBE0E709F0F2
:10A34000A1FBF5E709F09EFBE5E700BFF0B5044689
:10A350000025C4E906554A482361206084F820504E
:10A360004FF47A700E46A06095B0186D6560257543
:10A370004FF0FF313546164606F088F8A36913B151
:10A380002046FFF7ABFF206901AA0C30294604F0F4
:10A3900057F990B99DF80430112B3FD0294620463B
:10A3A000FFF7CCFE60BB22690023106D19461A46E8
:10A3B00005F044FC204615B0F0BD0230F3D1012E6B
:10A3C000F1D107F007F901284FF038004BD005F024
:10A3D00071FB0146A1610029E5D023692A4603F1FA
:10A3E0000C0040F2031303F02DFC06460028DAD1DE
:10A3F0002069A1690C300223324604F0E3F8267587
:10A400002F2128460AF063FA034604F1200003B125
:10A410005D1C294640220AF047FAC4E726B1012E06
:10A42000EED140F2031700E0012707F0D3F801282E
:10A430004FF0380013D005F03DFB0146A161002923
:10A44000B1D022693B4602F10C002A4603F0FAFB28
:10A450000028A8D1012E0AD000232375D0E709F0E7
:10A4600009FB0146EAE709F005FB0146B2E723696B
:10A47000A169024603F10C00022304F0A3F8EBE704
:10A48000CC7103008069003818BF0120704700BFFD
:10A490002DE9F04F85B0DDE90E4B109F81460D464A
:10A4A00090461E46002F63D0B8F1000F03D0D8F8B5
:10A4B0000030B34249D0D9F800002B689E422BD01F
:10A4C0004369B4FBF3F203FB1242BAB9BB4215D89D
:10A4D000B7FBF3F203FB127AA7EB0A030093039393
:10A4E000436822461F4631465B46B84788B9039BFE
:10A4F00057469B441C44002FD6D139E00093A21A42
:10A50000C5E90062D0F804A0AB683146D047002806
:10A51000CAD005B0BDE8F08F69684369A142D0D8C0
:10A52000CA18A242CDD9A2EB040ABA45AB6828BF2B
:10A53000BA46611A524658461944BF1A544409F0A3
:10A54000B7FAD344002FAFD112E0D8F80430A342B9
:10A55000B1D8D9F8000082691A44A242ADD9A2EB61
:10A56000040ABA45D8F8081028BFBA46E31AE1E74A
:10A57000002005B0BDE8F08F2DE9F04F074687B009
:10A580000D4672B30368D1F800B090469A69D1E9DC
:10A5900001104AB3013A01F101098618A9EB00093B
:10A5A000441E4FF0010A08E014F8012F9DF81730FF
:10A5B0009A4223D1A6423B6814D01A6A934509EB0C
:10A5C000040320D20DF11702CDE90032CDF808A026
:10A5D0005B46002241463846FFF75AFF0028E3D089
:10A5E00009DB3B68A8689A69FF2109F089FA4FF0F6
:10A5F000FF332B60002007B0BDE8F08F6FF0330011
:10A6000007B0BDE8F08F034B034A0448122109F05C
:10A61000B1F900BFE8710300187403000872030069
:10A620002DE9F04F87B0DDF840A00592002B64D0F3
:10A63000D0F800908B46D9F81C105C1EA1F10808D8
:10A640004445074651D3B4FBF8F0013809F078F9D6
:10A65000D04500F10200A4EB8003B3FBF8F560D80D
:10A66000BAFBF8F0013809F06BF9861CAAEB8606F4
:10A67000B6FBF8F6304609F063F9AAEB800006FB5A
:10A68000180AB54243D9D9F82020059B4FF0040998
:10A690000DF114080BE0012B45D93A68126A934278
:10A6A00041D8012101FA04F42D1BB54230D9AC1B6D
:10A6B000B4FA84F495FAA5F1C4F11F04B1FA81F15A
:10A6C0008C4228BF0C4693424FEA840132D200915B
:10A6D000CDE90189002259463846FFF7D9FE059B8E
:10A6E0000028D8D007B0BDE8F08FD04588BF13460A
:10A6F000BAFBF8F00CD80025B4E711994FF0FF32FF
:10A700000A60129A1846136007B0BDE8F08F059BE7
:10A71000119A1360129B0020C3F800A007B0BDE897
:10A72000F08F0026ADE7064B064A07484FF48F61CD
:10A7300009F020F9054B064A0348122109F01AF9DD
:10A74000847203003874030008720300E871030088
:10A75000187403002DE9F04F89B00746149C129D30
:10A760008B4692461E46002C55D0DBF80030B34293
:10A770005CD0013340F0A18038688269B5FBF2F308
:10A7800002FB1353002B4AD1A24248D8B4FBF2F388
:10A7900002FB13430593E31A009304938468139B0D
:10A7A0002A463146A04700287ED1BAF1000F29D0B1
:10A7B000049B3BB3139B5C1E049B04EB0309139B9C
:10A7C00005F10108A8EB030807E014F8012F9DF834
:10A7D0001F309A4266D14C4514D03B681A6A9642A3
:10A7E00008EB040363D2012202920DF11F02CDE9AE
:10A7F00000325146334600223846FFF749FE002812
:10A80000E3D051DB139A049B059C11461944139124
:10A810001D44002CA9D1002009B0BDE8F08FEB1A2F
:10A82000CBE90063DBF80030B342A2D1DBF80410BF
:10A83000A9429ED83A6892690A44AA4299D9A2EBE1
:10A840000508A045DBF8080028BFA046691A08449F
:10A850004246139909F02CF93868139982694544E6
:10A860004144B5FBF2F302FB1353A4EB080413912C
:10A87000002B7FF478AFDBF800104B1C3FF473AF74
:10A880000092DBE90123D0F80880C04760B9524646
:10A8900059463846FFF770FE00283FF464AF09B010
:10A8A000BDE8F08F6FF0330009B0BDE8F08F064BC4
:10A8B000064A0748122109F05DF8064B064A04488B
:10A8C000B72109F057F800BFE871030018740300BE
:10A8D00008720300B0720300287403002DE9F04FE2
:10A8E0000446D2E9003091B04FF0010B0A930023E7
:10A8F0000B90069104F114080DF1280905932368C3
:10A9000059F8045B1B6A9D427BD210230DF1300A7B
:10A910000022CDE901A300922B4641462046FFF7D5
:10A92000B7FD002839D1059B002B60D10D9B23F08A
:10A930000043132B4FD92268D26993424BD84FF072
:10A94000FF3309A810225146099304F037FE0D9BEE
:10A9500023F00043102B28D0CDF81C9010260DF1C9
:10A960002307994607E001360122394609A804F079
:10A9700025FEB14517D023681B6A9D4241D20123B1
:10A98000CDE9017300962B46002241462046FFF791
:10A990007FFD0028E7D0DDF81C9010F1340F1AD0AD
:10A9A00011B0BDE8F08FDDF81C90099B9BB99AE8C7
:10A9B0000F000BF0010610AF07EB860C069F102668
:10A9C000FE603E467D601C365CF8185CBD6086E823
:10A9D0000F0001230593BBF1020F0FD1059B002B44
:10A9E00014BF00206FF0330011B0BDE8F08F069A5D
:10A9F0000C9BD2699B1A002B98DAECE74FF0020B04
:10AA00007DE7034B034A0448122108F0B3FF00BF5F
:10AA1000E8710300187403000872030043680133EF
:10AA200037D02DE9F0438368013383B0044628D042
:10AA300015460E464FF000084FF001096A462946B8
:10AA4000CDE90089FFF74AFFE0B905F124086B6AF8
:10AA5000591C16D0AF6A7A1C13D0D6F800C09C459A
:10AA600013D0D6F804E0BE450FD0734542462946C0
:10AA700020460AD0BC4508D0FFF730FF0028E6D0BA
:10AA800000E0002003B0BDE8F083012003B0BDE882
:10AA9000F0830020704700BF2DE9F041D1F820C0BD
:10AAA0000C46C9682CF00043043B01F10C069E42A1
:10AAB00084B0054617461FD904F12408102612E079
:10AAC000424621462846FFF709FF90B9D4F820C036
:10AAD000A169E6602CF00043043B14311B2BA161FB
:10AAE0004FF0100108D8BCF1000FE9DB39606FF0BE
:10AAF000010004B0BDE8F0812A46636852F8140BE7
:10AB0000066AB34207F104001AD20C26CDE9001000
:10AB10000296114628460022FFF7BAFC0028E8D129
:10AB20007B79BA79FD79A16904331344E2683A600C
:10AB30002B441A440B44E260A36104B0BDE8F081E9
:10AB4000024B034A0348122108F014FFE871030086
:10AB50001874030008720300F0B593B000260D4688
:10AB6000012707A96A46CDE900670446FFF7B6FE4C
:10AB7000064610B121E0831C22D1109B01331CD06A
:10AB8000119B013319D010AA07A92046FFF7A6FE92
:10AB9000B0B903AA07A92046FFF77EFF0028EAD133
:10ABA0009DF91030002B4FF00802294605A8F0DB74
:10ABB00008F070FF0028ECD10126304613B0F0BD3C
:10ABC0000646304613B0F0BD2DE9F0471646002486
:10ABD0000122C6E90942824688461D4606F124093B
:10ABE0004A4631465046FFF779FE074668B92A467D
:10ABF00031465046FFF750FF50B1831C1FD1736A96
:10AC0000013302D0B36A0133EAD13846BDE8F08798
:10AC10002C7904F07004202CE9D1AB68D8F800201E
:10AC2000934208D0E868D8F80410884203D08B42D9
:10AC300001D08242DBD101273846BDE8F0870746C4
:10AC4000E3E700BF2DE9F04F2DED028B8DB090466C
:10AC50001C46099340F622032268C8F80430089283
:10AC6000D0E90123724EC8F8082082468946C8F808
:10AC70000C3000F1140B089D3146284609F03BFECC
:10AC80002B460344044631461846059309F0F3FD6C
:10AC90000128049000F0B080022804D1059B1B78A5
:10ACA0002E2B00F0B280DDE90423134408931F46E5
:10ACB00001243146384609F01EFE07443846314625
:10ACC00009F0D9FD78B1022802D001340744F0E739
:10ACD0003B782E2BF9D17B782E2BF6D1013CF5D188
:10ACE000BB1C0893C7E7059C207800285FD0099B10
:10ACF0001C6098F80430222B40F08D8008F1080386
:10AD00001A464946504608EE103AFFF7E7FD00287C
:10AD10004DD1049B013B234407934246494650468C
:10AD2000FFF7BAFE002842D198F8042002F07F0312
:10AD3000112B01D0222BF0D198F8073004998B42C7
:10AD4000EBD1D8F8003098F8051098F80650D9F8EB
:10AD5000047004330B441D44049BA3B3059BCDF83E
:10AD600018800135DDF81C80ED1A5C1E07E014F830
:10AD7000012F9DF82F309A421ED144451FD0DAF89A
:10AD800000301A6A974205EB040347D2012202926F
:10AD90000DF12F02CDE9003259463B4600225046C4
:10ADA000FFF776FB0028E2D0DDF8188009DA0DB055
:10ADB000BDEC028BBDE8F08FDDF81880ADE7DDF863
:10ADC000188098F8042013067FF555AFDAF80430A0
:10ADD00001330CD0DAF80830013308D018EE101A1D
:10ADE0005046FFF7B9FE00281ED198F8042002F063
:10ADF0007F0288F804203EE72B5D2E2B7FF453AFB3
:10AE0000DDE904231344089335E7059B5B782E2B7B
:10AE10007FF449AFF4E76FF01300C8E7054B064A2B
:10AE20000648122108F0A6FDC1DB6FF00100BEE765
:10AE3000CC720300E8710300187403000872030069
:10AE40002DE9F04F8B469DB00BF1040304930BF1F9
:10AE50000C03CDE9053B016B04464FF001080025CA
:10AE6000D4E90D3010E05A09E66B01385F1CA0638D
:10AE7000676356F822C003F01F0208FA02F212EAD2
:10AE80000C0F00F027813B469942ECD1002800F0DE
:10AE9000F2812268E36AD2E908621944904228BF2D
:10AEA0001046B1FBF6F306FB13112063E162E06B81
:10AEB0006563D208002108F023FE6368013300F0C7
:10AEC0005781A368013300F053810022012300253C
:10AED000CDE9082304F1140701222E46D4F800C05E
:10AEE000E16ADCF82030206B591A0E44B6FBF3F50A
:10AEF00003FB1565854210D26909E26B05F01F0559
:10AF000052F8213008FA05F51D4342F82150DCF8CB
:10AF10002030E16A099A206B591A0A44B2FBF3F116
:10AF200003FB112383420AD25809E16B03F01F038C
:10AF300051F8202008FA03F3134341F8203008AAFF
:10AF400011A92046FFF7CAFC002840F00E810C250D
:10AF5000149A24E02068129B006A834280F01A82CF
:10AF60000EA9CDE900210295002239462046FFF7BF
:10AF70008FFA002840F0F9809DF839209DF83A308A
:10AF80009DF83B60149904321A449DF838303244DD
:10AF900003F070030A44102B149200F0EB80199B0D
:10AFA00023F00043043B02F10C009842D2D9DDE9C2
:10AFB0001A62701CCDE9086201D0511C8ED1D4F800
:10AFC0000C904D46B9F1000F00F0DE81EB69DA0319
:10AFD00040F156816F69002F00F05281D4F800A033
:10AFE000DAF81C60013F083EB742C0F0CF81B7FBE2
:10AFF000F6F0013808F0A4FC0230A7EB8002B2FBA7
:10B00000F6F6D4F830E0E16A2B69079505F12C00DB
:10B010000546DAF82020704604F114098E460146F0
:10B020009818A0EB0E0EBEFBF2F002FB10E28A4273
:10B030000AD25709E06B02F01F0250F8271008FAF5
:10B0400002F20A4340F82720002E00F01781DAF8B8
:10B05000202006F00107C7F1020A93424FEA8A0056
:10B0600080F098810BA90022CDE901100092494699
:10B070002A462046FFF70CFA002876D10AF1FF3C59
:10B08000D4F800A013E0BBFBF2F302FB13B38B4236
:10B090004FF0010014D24FEA531EE16B03F01F037F
:10B0A00051F82E2000FA03F3134341F82E30D4F860
:10B0B0002CE0DAF820200B9B216BA2EB0E0B9B44BB
:10B0C0006045E0DB1CAB03EB8C0C023F5CF8443CBE
:10B0D0003E44A5E72068E26A016A1344B3FBF1F23B
:10B0E00001FB1233049A42F8043BD4E90C13994251
:10B0F000049207D10FE0A26B0133013A8B42C4E9FD
:10B100000D3208D05D0903F01F0256F8255008FAE9
:10B1100002F22A42EFD1DDE9043293427FF49FAE7E
:10B12000DDF818B0006ADBF8043083420BF11C0232
:10B1300004F1140180F02E810425019200222046A2
:10B1400002950092FFF7A4F9002840F08B80DBF80D
:10B150001C304FF0FF32CBE90922142001331021BB
:10B16000CBE90730CBF80C1000201DB0BDE8F08F04
:10B17000216B75E6109B002B3FF411AFD4F800A0B3
:10B18000DAF81C6003F1FF3BA6F10809CB4570D348
:10B19000BBFBF9F0013808F0D3FB861CABEB86064D
:10B1A000B6FBF9F60F9BE16ADAF82020D4F830E01C
:10B1B0009818401AB0FBF2F102FB110272450BD253
:10B1C0004FEA521CE16B02F01F0251F82C0008FA02
:10B1D00002F2024341F82C20002E3FF4B9AEDAF817
:10B1E000202006F00109C9F1020A93424FEA8A00C1
:10B1F00080F0D0800BA90022CDE9011000923946E1
:10B200002046FFF745F90028AFD10AF1FF3CD4F8FA
:10B2100000A013E0BBFBF2F302FB13B373454FF046
:10B22000010014D24FEA531EE16B03F01F0351F8E3
:10B230002E2000FA03F3134341F82E30E16ADAF8C6
:10B2400020200B9BD4F830E0A2EB010B9B4460451F
:10B25000E0DB1CAB03EB8C0CA9F102095CF8443C6D
:10B260004E44A5E710F1340F3FF471AF1DB0BDE8B7
:10B27000F08F064696E76FF01B0076E7079DEB69B7
:10B280009B037DD52F6A002F7AD0D4F800A0DAF87E
:10B290001C60013F083EB7427AD3B7FBF6F0013895
:10B2A00008F04EFB0230A7EB8003B3FBF6F6D4F8B0
:10B2B00030E0E16A6B6A079505F12C000546DAF883
:10B2C0002020704604F114098E4601469818A0EB20
:10B2D0000E0EBEFBF2F002FB10E28A420AD25709C0
:10B2E000E06B02F01F0250F8271008FA02F20A433E
:10B2F00040F82720002E42D0DAF8202006F001077F
:10B30000C7F1020A93424FEA8A0043D20BA90022F6
:10B31000CDE90110009249462A462046FFF7B8F8C9
:10B3200000287FF422AF0AF1FF3CD4F800A013E01C
:10B33000BBFBF2F302FB13B38B424FF0010014D2BC
:10B340004FEA531EE16B03F01F0351F82E2000FA61
:10B3500003F3134341F82E30D4F82CE0DAF8202020
:10B360000B9B216BA2EB0E0B9B446045E0DB1CABFF
:10B3700003EB8C0C023F5CF8443C3E44A6E7079D7F
:10B380002D68002D7FF422AE216B68E5002638E69B
:10B3900000268CE7024B034A0348122108F0EAFA20
:10B3A000E871030018740300087203002DE9F04FE0
:10B3B0002DED028B9BB0012504460491A9464FF068
:10B3C0000008D4E90D31D4F830C00FE05A09E76B1A
:10B3D0000139581CA163606357F8226003F01F0213
:10B3E00005FA02F2324200F02A8103469C45EDD173
:10B3F000002900F052822368E66AD3E90802B444C7
:10B40000914228BF1146BCFBF0F300FB13C321633C
:10B41000E362E06BC4F83480D208002108F070FBCE
:10B4200063680133CDD0A3680133CAD00022012361
:10B43000CDE906230122002004F114079646226874
:10B44000E36A116A266BCB1A03EB000CBCFBF1F02C
:10B4500001FB10C0864210D94609E16B00F01F00C5
:10B4600051F8263005FA00F0184341F82600D4E9D7
:10B470000B36116ADDF81CE0CB1A7344B3FBF1F212
:10B4800001FB1233B3420AD25809E16B03F01F03E8
:10B4900051F8202005FA03F3134341F8203006AA9F
:10B4A0000FA92046FFF71AFA002840F0E9804FF074
:10B4B0000C08129A0CAE23E02168109B096A8B429B
:10B4C00080F0F5810092CDE90168002239462046DE
:10B4D000FEF7DEFF002840F0D3809DF831209DF874
:10B4E00032109DF833C0129B04320A449DF830108C
:10B4F00062441A4401F07003102B129200F0C580D0
:10B50000179B23F00043043B02F10C019942D3D96D
:10B51000DDE9180E411CCDE9060E02D0BEF1FF3F59
:10B520008DD1D4F80C804646B8F1000F3FF447AFF8
:10B53000F369DA0340F128817769002F00F0248154
:10B54000D4F800A0DAF81C30013FA3F10808474501
:10B55000C0F0A881B7FBF8F0013808F0F1F902302B
:10B56000A7EB8007B7FBF8F704F11400E16AD4F801
:10B5700030C0DAF8202033690596834606F12C00A6
:10B5800008EE100A0E4661469818A0EB060EBEFBA8
:10B59000F2F002FB10E28A420BD2E06B4FEA521C3F
:10B5A00002F01F0150F82C2005FA01F10A4340F87F
:10B5B0002C20002F00F0E680DAF8202007F00108A8
:10B5C000C8F1020A93424FEA8A0080F0708109A90B
:10B5D0000022CDE901100092594618EE102A2046AB
:10B5E000FEF756FF00284BD10AF1FF3CD4F800A02B
:10B5F00012E0BEFBF2F302FB13E38B424FF00100BB
:10B6000012D25E09E16B03F01F0351F8262009FAFC
:10B6100003F3134341F82630E66ADAF82020099B49
:10B62000216BA2EB060E9E446045E2DB1AAB03EBF6
:10B630008C0CA8F102085CF8443C4744A4E721685C
:10B64000E26A096A1344B3FBF1F201FB1233049A74
:10B650001360D4E90C03834211D0012506E0A26BEC
:10B660000133013A8342C4E90D3208D0590903F08D
:10B670001F0257F8211005FA02F20A42EFD100200A
:10B680001BB0BDEC028BBDE8F08F0E9E002E3FF488
:10B6900011AFD4F800A0DAF81C20013EA2F1080B8B
:10B6A0005E450AD3B6FBFBF0013808F049F90230D9
:10B6B000A6EB8003B3FBFBF31846E16AD4F830C075
:10B6C0000D9BDAF8202008EE107A8E460746614678
:10B6D0009818A0EB0E0EBEFBF2F002FB10E28A42BD
:10B6E0000AD25609E06B02F01F0250F8261005FA44
:10B6F00002F20A4340F82620002F00F0D580DAF845
:10B70000202007F00106C6F1020A93424FEA8A00A0
:10B7100080F0CD8009A90022CDE90110009218EE39
:10B72000101A2046FEF7B4FE0028A9D10AF1FF3C0A
:10B73000D4F800A013E0BBFBF2F302FB13B38B427F
:10B740004FF0010014D24FEA531EE16B03F01F03C8
:10B7500051F82E2009FA03F3134341F82E30D4F8A0
:10B760002CE0DAF82020099B216BA2EB0E0B9B4406
:10B770006045E0DB1AAB03EB8C0C023E5CF8443C0A
:10B780003744A5E7059EF3699B0340F18180376A42
:10B79000002F7DD0D4F800A0DAF81C20013FA2F1E0
:10B7A000080847457CD3B7FBF8F0013808F0C8F823
:10B7B0000230A7EB8007B7FBF8F704F11400E16A49
:10B7C000D4F830C0DAF82020736A0596834606F173
:10B7D0002C0008EE100A0E4661469818A0EB060EE3
:10B7E000BEFBF2F002FB10E28A420BD2E06B4FEAA2
:10B7F000521C02F01F0150F82C2005FA01F10A43F7
:10B8000040F82C20002F42D0DAF8202007F0010861
:10B81000C8F1020A93424FEA8A0048D209A90022DD
:10B82000CDE901100092594618EE102A2046FEF785
:10B830002FFE00287FF424AF0AF1FF3CD4F800A0CB
:10B8400012E0BEFBF2F302FB13E38B424FF0010068
:10B8500012D25E09E16B03F01F0351F8262009FAAA
:10B8600003F3134341F82630E66ADAF82020099BF7
:10B87000216BA2EB060E9E446045E2DB1AAB03EBA4
:10B880008C0CA8F102085CF8443C4744A5E7059EEF
:10B890003668002E7FF44CAE91E56FF01B00EFE6AA
:10B8A00000278AE700275FE618EE107A01E6034BCF
:10B8B000034A0448122108F05DF800BFE871030054
:10B8C00018740300087203002DE9F04F044687B096
:10B8D0000F4600F1140905A92046FFF767FD06464B
:10B8E00040B920680599C3689847064630B110F101
:10B8F000340FF0D0304607B0BDE8F08FBB6A83B399
:10B9000007F12C0A35460DF1130804F1200B13E062
:10B910002268059B126A934247D20122CDE9018237
:10B9200000954A4659462046FEF714FF002831D1BB
:10B93000BB6A0135AB4214D922687B6A126A934212
:10B940002DD20122CDE9018200955246494620467A
:10B95000FEF79EFD0028DBD00646304607B0BDE866
:10B96000F08F2368A16A9A69786B08F0A1F8D4E98E
:10B9700008122368A06AC7E90B12FF219A6908F030
:10B98000BFF8059B4FF0FF32304622627B6207B062
:10B99000BDE8F08F10F1340F9DD00646DDE7064B71
:10B9A000064A0748122107F0E5FF034B054A044801
:10B9B0009C2107F0DFFF00BFE8710300187403004B
:10B9C00008720300287403002DE9F04F2DED028B5F
:10B9D000C9B004462C2200211CA808F091F84FF0B1
:10B9E0000043282227A80021249308F089F823681F
:10B9F0001B6A01223192002B00F0C98100274FF011
:10BA00000C09319B013300F0B18130AA27A92046EF
:10BA1000FEF764FF0546002840F00C81249B002BB4
:10BA2000C0F20E816368013300F04E81A3680133D8
:10BA300000F04A8132AE32460CAB25A92046FFF712
:10BA4000C3F80028C0F2F58000F03E810E9B259AD5
:10BA50000F982699934200F090818B4200F09381D9
:10BA6000DDE91D51239A2690206825930132002399
:10BA7000CDE91D150B9505932392C3680A9198474C
:10BA80004FF0FF380546F0B115F1340F40F0D28089
:10BA90000A9BC4F82080012B40F279810B9B012B7B
:10BAA00040F275811DA92046FFF780FC054600285D
:10BAB00040F0C08020681D9901230593C368984712
:10BAC00005460028E0D123AF0DF1500AA14610220F
:10BAD00039465046CDF8508003F070FD59F8202BC0
