:020000022000DC
:106000000000012049BD020089BD02008BBD0200D5
:106010008DBD02008FBD020091BD02000000000096
:1060200000000000000000000000000035D5020064
:1060300095BD02000000000055D5020099BD020088
:106040009BBD02009BBD020035DF02009BBD02002C
:106050009BBD02009BBD02009BBD02009BBD0200D8
:106060009BBD02009BBD02009BBD02009BBD0200C8
:106070009BBD02009BBD02009BBD02009BBD0200B8
:106080009BBD020059D302009BBD02009BBD0200D4
:106090009BBD02009BBD02003D8A02009BBD020029
:1060A0009BBD02009BBD02009BBD02009BBD020088
:1060B0009BBD02009BBD020000000000000000002C
:1060C0009BBD02009BBD02009BBD02009BBD020068
:1060D0009BBD02009BBD02009BBD020000000000B2
:1060E00000000000000000000000000000000000B0
:1060F00000000000000000000000000000000000A0
:10610000000000000000000000000000000000008F
:10611000000000000000000000000000000000007F
:10612000000000000000000000000000000000006F
:10613000000000000000000000000000000000005F
:10614000000000000000000000000000000000004F
:10615000000000000000000000000000000000003F
:10616000000000000000000000000000000000002F
:10617000000000000000000000000000000000001F
:10618000000000000000000000000000000000000F
:1061900000000000000000000000000000000000FF
:1061A00000000000000000000000000000000000EF
:1061B00000000000000000000000000000000000DF
:1061C00000000000000000000000000000000000CF
:1061D00000000000000000000000000000000000BF
:1061E00000000000000000000000000000000000AF
:1061F000000000000000000000000000000000009F
:10620000044B05481B1A062B02D9044B03B118474F
:10621000704700BFFF340020FC3400200000000065
:1062200005490648091A891001EBD171491002D0BD
:10623000034B03B118477047FC340020FC340020A6
:106240000000000010B5064C237843B9FFF7D8FFD3
:10625000044B13B10448AFF300800123237010BD39
:10626000FC34002000000000CC27030008B5084BD8
:106270001BB108490848AFF300800848036813B908
:10628000BDE80840CCE7064B002BF9D09847F7E76C
:106290000000000000350020CC270300F834002067
:1062A00000000000154B002B08BF134B9D46A3F5C3
:1062B000803A00218B460F461348144A121A08F000
:1062C0008CFB0F4B002B00D098470E4B002B00D0BF
:1062D00098470020002104000D000D48002802D03E
:1062E0000C48AFF3008008F00DFB2000290007F0F8
:1062F00049FE08F0E1FA00BF00000800000001209C
:106300000000000000000000FC340020D0540020F9
:10631000000000000000000032DF704741DF7047DE
:1063200076DF7047014B1880704700BF0E370020A2
:10633000074B13B504460360406828B1002300935F
:106340001A46052106F082FE204602B010BD00BFAD
:10635000BC1C030038B5064C1E20256807F036FB30
:10636000044B23F8150023680133236038BD00BFB8
:10637000283600204835002038B5064C1C202568FA
:1063800007F024FB044B23F8150023680133236036
:1063900038BD00BF2C3600204436002010B504461E
:1063A000FFF7C6FF204607F04BFE204610BD000059
:1063B000F8B52D4E337833B92C4B1B781BB92C4ACA
:1063C0001368013313602B4B196801294BD12A4CF8
:1063D0002368012B22D1264B284A19681268914262
:1063E0001F4640DB264D2B68012B01D0042B03D127
:1063F00000210E2007F0BAFB2B68022B01D0042BE2
:1064000003D10021082007F0B1FB2B68032B04BF48
:1064100001233370002323603B60F8BD1BBB144B8A
:10642000184A1868126890421E461CDB144B1A6802
:10643000032A1D4602D10D4B197007E0012A01D035
:10644000042A03D101210E2007F090FB2B68022BB8
:1064500001D0042B03D10121082007F087FB012381
:10646000236000233360F8BD183600200C3700206D
:106470003C3600201835002030360020DC37002064
:10648000103600203436002013B5044606F050FACA
:106490000023024600930121204606F0D7FD02B0FA
:1064A00010BD07B5002300931A46032106F0CEFD68
:1064B00003B05DF804FB00002D4A2E49136870B547
:1064C0000C68013313604CBB2B48006883424DDBE2
:1064D0002A4B1460586801260E60FFF7D5FF284B41
:1064E0001A68032A1D4602D1264B1E7070BD264B2A
:1064F0001E60264B012A1C6001D0042A03D1012111
:106500000E2007F033FB2B68022B01D0042B2DD17A
:1065100001210820BDE8704007F028BB012C25D1DF
:106520001B480068834221DB154C00230B6013607D
:106530002368012B01D0042B03D100210E2007F08A
:1065400015FB2368022B01D0042B03D10021082066
:1065500007F00CFB2368032B02BF0E4B01221A70BD
:10656000064BBDE870405868FFF79BBF70BD00BF89
:106570002C350020183500201C3600202036002045
:10658000103600200C370020303600203C3600202A
:10659000383600201836002013B500230446009238
:1065A0004FF47A7001228902B1FBF0F1184606F02F
:1065B0002FFD206002B010BD2DE9F04192B012AD68
:1065C0002C2325F8443D294609F002F91E220646EF
:1065D000002102A808F001FA584FDFF89881002442
:1065E000002E00F092803246554902A809F074F856
:1065F0001E2200210AA808F0F0F90C2C7ED8DFE852
:1066000004F007101A232C353E475059626B750071
:1066100002A90AA809F0ABF80AA808F03BF9494B0F
:1066200007E002A90AA809F0A2F80AA808F032F9BE
:10663000454B186062E002A90AA809F098F80AA878
:1066400008F028F9414BF4E702A90AA809F08FF8ED
:106650000AA808F01FF93E4BEBE702A90AA809F0C7
:1066600086F80AA808F016F93A4BE2E702A90AA848
:1066700009F07DF80AA808F00DF9374BD9E702A90F
:106680000AA809F074F80AA808F004F9334BD0E717
:1066900002A90AA809F06BF80AA808F0FBF8304B29
:1066A000C7E702A90AA809F062F80AA808F0F2F8F8
:1066B0002C4BBEE702A90AA809F059F80AA808F06D
:1066C000E9F8294BB5E702A90AA809F050F80AA889
:1066D00008F0E0F8254BACE702A90AA809F047F852
:1066E0000AA808F0D7F8C8F8000007E002A90AA82D
:1066F00009F03DF80AA808F0CDF8386029460020D6
:1067000009F066F8013406466AE70E4C0E49256822
:1067100008682B46024632B193FBF2F602FB1636AE
:1067200013463246F7E7124A95FBF3F513602560EE
:1067300090FBF3F30B6012B0BDE8F081443500200C
:1067400008250300DC3700203436002038360020CE
:106750001C360020103600200C340020E0370020CA
:106760001C35002020350020143600200434002081
:1067700038350020E437002010B5434C216801294A
:1067800006D10E2007F0D0F900210E2007F0EEF917
:106790002368022B07D10121082007F0C5F9002149
:1067A000082007F0E3F92368032B1BD101210820FF
:1067B00007F0BAF901211C2007F0B6F901210220E7
:1067C00007F0B2F901210B2007F0AEF901210B20EF
:1067D00007F0CCF900211C2007F0C8F900210220A5
:1067E00007F0C4F92368042B0FD10121082007F01A
:1067F0009BF90021082007F0B9F901210E2007F0CC
:1068000093F900210E2007F0B1F9204B1C68012CF0
:106810000FD121460C2007F087F921460C2007F004
:10682000A5F92146062007F07FF92146062007F04A
:106830009DF9174B1C68012C0FD12146022007F04F
:1068400073F92146022007F091F900211C2007F07E
:106850006BF900210B2007F067F90E4B1B68012B29
:1068600010D100210C4800F0CCFB0B4800F036FCA6
:106870000A4B13211888FFF753FD0748BDE8104065
:1068800000F02CBC10BD00BF10360020E037002007
:10689000203500200C340020DC3A00200E37002088
:1068A0002DE9F843334B1C684FF01C08002794FB7C
:1068B000F8F908FB1948304E304DC4F3031343F088
:1068C000900333602301DBB200210B202B6007F023
:1068D0004DF900211C2007F049F90021022007F0A2
:1068E00045F93368012202211C2007F07CF92B684E
:1068F000012202211C2007F076F90B20012107F06C
:1069000035F91F4B186820B11E4B800143F001037D
:1069100098470137B845C9EB040429DC1D2FCAD1BB
:106920000024902321460B2033602C6007F01EF9D1
:1069300021461C2007F01AF92146022007F016F91B
:106940003368012202211C2007F04DF92B68012237
:1069500002211C2007F047F901210B2007F006F95E
:10696000094B1C60094B1C60094B1C70BDE8F88387
:10697000013CA0E70434002008340020103400203B
:1069800044350020D01C0300303600203C36002067
:1069900018360020384B19682DE9F0471C220024D6
:1069A00091FBF2FA274602FB1A199846334E344DF2
:1069B000C7F3031343F0900333603B01DBB20021C4
:1069C0000B202B6007F0D2F800211C2007F0CEF836
:1069D0000021022007F0CAF83368012202211C209E
:1069E00007F001F92B68012202211C2007F0FBF8B7
:1069F0000B20012107F0BAF8224B186820B1224B76
:106A0000800143F0010398470134A145574431DC2C
:106A10001C2CCBD1D8F80030C3F303121B0142F079
:106A20009002DBB200210B2032602B6007F09EF851
:106A30000021204607F09AF80021022007F096F87E
:106A4000336801220221204607F0CDF82B6801228D
:106A50000221204607F0C7F801210B2007F086F835
:106A60000A4B01221A600A4A00231360094A137074
:106A7000BDE8F087013799E704340020083400208E
:106A800010340020E4370020D01C030030360020F2
:106A90003C3600200C370020074A084900231360C9
:106AA00001220A6006490A60064A1360064A13601A
:106AB000064A1360704700BFD837002040360020D8
:106AC000183500202C350020303600203C360020C0
:106AD000F8B5164D164C174F4FF48071284602F04A
:106AE000CFFA224614492846144D07F0AFFE144849
:106AF0000026224629460760466007F0A7FE114897
:106B0000224629460760466007F0A0FE0E4822464E
:106B100029460760466007F099FE0C482246076048
:106B200046602946BDE8F84007F090BE10370020C7
:106B300000340020BC1C03002592020031630200D7
:106B40002435002020360020303500203C35002040
:106B5000474B484A2DE9F3410024C3F8004503F5AB
:106B6000A0430127C3F8007503F5A8334249C3F8D1
:106B7000004503F5A043414DC3F8004503F580539C
:106B80008020C3F800454FF04023DFF80881C3F8A8
:106B90000045C3F80045C2F80045C2F80045C1F8F9
:106BA0000045A1F5004105F53776C1F80045C2F86A
:106BB0000045C3F8004503F5F833C3F800454FF02E
:106BC0008043C3F8787506F0CBFE3846FFF7A4FB88
:106BD0000223032228460097F42101F00EFD2146EE
:106BE000284601F0DEFE22463946284601F00EFD19
:106BF0006FF00301284601F0A9FE2846204901F064
:106C000081FE2049284601F006FF404602F02CFB99
:106C10003946304600F0F5F90621304600F0C4F957
:106C2000304600F0AFF94146304600F07DF905F5F9
:106C3000457000F087F94FF4C862304640F2DC51ED
:106C400000F0DBF92146304600F0D5F92146304608
:106C500000F032FA0C4B1C600C4B1C600C4B1C22DD
:106C60000E201A6002B0BDE8F04106F073BE00BF0E
:106C7000002000400030004000500240003800205A
:106C8000D61C03002563020038350020283600207A
:106C90001434002010370020F0B55A4B1B7895B003
:106CA0000BB1FFF7FDFD584B1B780BB1FFF772FEE0
:106CB000564802F070F9002800F08980544E554C77
:106CC000554D00210E2006F051FF0021082006F04E
:106CD0004DFF7068FFF7E5FB6068FFF7E2FB2B688C
:106CE000012B3746264607D14C4B5868FFF7D9FB96
:106CF0000021062006F03AFF494C2368012B03D1FE
:106D00000021022006F032FF464B1B68032B1BD1EB
:106D100000210B2006F02AFF00211C2006F026FF90
:106D20000021022006F022FFE023012202211C2084
:106D300006F059FF02211C200023012206F053FF18
:106D400001210B2006F012FF502269462F4802F065
:106D50005EF9684608F024FD0A2838D96846FFF72E
:106D60002BFCFFF709FDFFF797FE2F4A2F484FF442
:106D70007A71FFF711FC2E4B2E4A19682E48FFF747
:106D80000BFC2B68012B05D12C4B2D4A19682D4883
:106D9000FFF702FC2368012B05D12B4B2B4A196806
:106DA0002B48FFF7F9FB7868FFF76EFB7068FFF779
:106DB0006BFB2B68012B03D1184B5868FFF764FB62
:106DC0002368012B03D1234B5868FFF75DFB224C4E
:106DD0002368632B06DDC82220490C4802F0D4F951
:106DE000002323601E4C2368632B06DDC8221D4947
:106DF000064802F0C9F900232360FFF78FFA15B0A7
:106E0000F0BD00BF183600200C37002010370020DE
:106E10002435002020360020E037002030350020C7
:106E20002035002010360020B964020028350020EB
:106E300038350020B1630200243600201C350020C4
:106E400055630200343500201436002079630200B7
:106E5000403500203C3500202836002048350020F1
:106E60002C3600204436002072DF704773DF7047F5
:106E700074DF704777DF70470022C2770270704777
:106E800070B51D46C37F0E461146EA181D2A0446FA
:106E90000EDC18446A1CE254023000F8016C2A46E9
:106EA00007F075FDE27F0232AB18E377012070BD79
:106EB000002070BD2DE9F041002688B007460D4640
:106EC00001EBC2083446454516D0284601F0D1FAF8
:106ED000102802D0802809D00CE008AA631C02EB1D
:106EE00044042A8824F8202CDCB203E00EB10020F0
:106EF00017E06E680835E6E714B966B9012010E0BE
:106F0000630003F0FE036A4603213846FFF7B8FF2B
:106F10000028F2D1EBE71023324607213846FFF76D
:106F2000AFFF08B0BDE8F08113B50831044603C9CE
:106F300001228DE8030069462046FFF7BBFF02B03F
:106F400010BD000030B589B00546202269460C48C6
:106F500001F0ECFCEA7F13181D2BC3BFC2F11D0228
:106F6000D0B20824092403466A4621462846FFF782
:106F700087FF18B1A4F109035842584109B030BD48
:106F80000038002013B50446064801F007FD02AAA8
:106F9000012302F8010D0A212046FFF771FF02B01C
:106FA00010BD00BF0038002007B502AA012302F877
:106FB000011D1946FFF764FF03B05DF804FB08B537
:106FC0000346FFF759FFFF22202183F820200122EA
:106FD00083F8212083F8222099840022F420198547
:106FE0001E21D88483F823205985DA859A851A636F
:106FF0005A63184608BD418570478184C284018563
:10700000704780F822107047F0B5044687B00E46EE
:10701000154600211822684607F0DFFC94F821305D
:107020008DF8003005EB850303EB83031E4A0296BF
:107030009B00ADF80C301368DB0709D41B4BE17FD4
:1070400099801B499960C97F1C6099810123136055
:107050006A46164904F12000FFF706FF08B1002038
:1070600020E0144894F8207001F098FC394602465C
:107070000120FFF7FFFE0028F1D1012194F8200044
:10708000FFF7F4FE0028EAD10A4801F0B9FDE28DCD
:10709000268595424FF0010094BF521B921A84F846
:1070A0002300E28507B0F0BDE8370020EC37002070
:1070B000143B00200038002010B50446C1858185AE
:1070C000FA21054801F070FC628DA18C2046BDE8D4
:1070D0001040FFF799BF00BF0038002008B50346F5
:1070E00090F82000FFF7C4FE30B983F8230003486E
:1070F00001F097FD012008BD002008BD00380020E8
:1071000038B50B88112B044612D0262B24D0102B17
:1071100059D1CD7B012D56D1002380F823302A4848
:1071200001F07FFD29462848BDE8384001F085BDC3
:107130008988254800F0FFFC012844D1002122481D
:1071400001F07BFD94F82230002B3CD0A18D20462D
:10715000BDE83840FFF7B0BF0B7A012B33D10023D5
:1071600080F823304FF4FA71174801F01DFCA38D0D
:1071700023B9636B03B19847002205E0E38D4BB15F
:10718000636B03B19847E28DE18C2046BDE838403F
:10719000FFF73ABF0C4801F044FD236B9BB105F0AB
:1071A000FFFD01284FF0100002D107F0D1FB01E0F4
:1071B00004F08CFE0021236B017243600160BDE886
:1071C000384006F069BB38BD0038002075DF7047D5
:1071D00010B5044605F0E4FD0128204603D1BDE8C2
:1071E000104007F0B5BBBDE8104004F06FBE1022A0
:1071F00042800280C82100228280C1808260C260F9
:1072000070470000014800F013BC00BF943B002011
:107210002DE9F3410F888D88112F06460C461CD0AE
:107220001F2F39D0102F44D12946234800F083FC6A
:1072300002283ED1B368002B3BD03846FFF7C8FF89
:10724000B26842600122027202AA0021016042F883
:10725000085D03461068D8601AE02946164800F019
:107260006AFC0228804624D1F36813B31420FFF788
:10727000AFFF0027F2680760426080F80880227A3A
:10728000019200956A46034603CA1961D8603946DF
:10729000184606F001FB0CE054F8080F61686B46D5
:1072A00003C36946BDF80030ADF802302846FFF749
:1072B0008DFF02B0BDE8F08100380020AADF7047E2
:1072C000ABDF7047ACDF7047ADDF7047AEDF7047B4
:1072D000B0DF7047704710B5044606F0B1FE204697
:1072E00010BD000070B55A4B04461B680361061DB3
:1072F00096B0304601F0CBF894F8223013F032010A
:1073000001BF94F8232061F3030261F3071284F8AC
:10731000232013F00C0101BF94F8242061F3030231
:1073200061F3071284F8242013F030050ED04FF0DB
:107330000003012262F342038DF80630454B1B78AF
:107340008DF8043094F823308DF805301C2200218C
:107350000FA807F042FB94F822308DF83C30002350
:107360000DB91A4600E001AAADF8083014924FF0AA
:107370000003012262F3420360698DF80A3094F839
:1073800023308DF8083058B103784BB1109008F0D5
:1073900007FA02AB80B2ADF84400ADF84600139393
:1073A000A37E13B104F11A031293142200210DEBF2
:1073B000020007F012FB04F12303069394F8253032
:1073C0000596DB0754BFE3890023ADF81C30E38941
:1073D000ADF8203005AA04F126030FA90020FFF71D
:1073E0006DFF054680BB637E43B30346012262F313
:1073F00042038DF80E3094F82330ADF80C008DF870
:107400000C30154B18680490142229460AA807F07E
:10741000E4FA0223ADF83030ADF8343004AB0A930F
:1074200003AB0B930DF1020204F118030AA92846DD
:107430000E93FFF745FF08B1054605E0237B1BB916
:107440002146064800F046FE284616B070BD00BF33
:10745000FC370020E81C0300EA1C0300DC38002095
:10746000F0B50B88502B85B004460D4600F08580A2
:10747000512B40F099808F79022F74D18B7B8E88AD
:10748000042B04D0062B46D0012B6CD167E0036B94
:107490007BB94FF48067878605F082FC0128384667
:1074A00002D107F055FA01E004F010FD002320633B
:1074B000E38610220021684607F08FFA02238DF838
:1074C00000306A8A2B8AA18E9818884204DD40F227
:1074D0000913ADF8043019E09DF80600ADF8083046
:1074E00040F001008DF80600206BADF80A2005F190
:1074F00014011844039107F04AFA2A8A6B8A13444C
:10750000E28E9BB2934238BF1346E386694630460B
:10751000FFF7DEFE27E0036B2BB310220021684645
:1075200007F05BFA304669468DF80070FFF7D0FE31
:10753000266C26B10023E28E216B2046B047266BD5
:1075400005F02EFC0128304602D107F009FA01E0CF
:1075500004F0CBFC00232363E386A38603E0C36B24
:107560000BB108319847AB79012B1DD1A36BDBB16F
:1075700005F108012046984716E0CA88C38C9A4254
:1075800005D1066C1EB1CB890A8A1231B047EA8850
:10759000638D9A4208D1636C33B16A8AADF80020DA
:1075A000BDF800102046984705B0F0BD1422C281F6
:1075B000114A127880F8242080F8232001214FF00E
:1075C0000102002361F342020373036143610383F9
:1075D000C0F81A30C0F81E3080F8223080F825201C
:1075E000C38403858385438503638386C38683635E
:1075F000C363036443647047E81C030013B5044687
:107600008DE806002346064943F8041B9DE8030065
:1076100083E805002046FFF7C9FF204602B010BDF1
:10762000F81C03000069704701230373704780F85A
:1076300022107047C181704790F8253019B1C1817F
:107640006FF3000301E043F0010380F82530704739
:1076500080F8231080F824207047016470470A1CCA
:1076600090F82530C16318BF012262F3041380F83B
:10767000253070474161704751F8263F03604B68E1
:107680004360704713B5C4890191A24228BF2246C6
:1076900000230093C18CADF800204FF6FF706A46BE
:1076A000FFF710FE10B9BDF8000000E0184602B068
:1076B00010BD07B502AB022223F8021D1946FFF7E1
:1076C000E1FF03B05DF804FB30B5054685B0114815
:1076D00001F089F9E0B1688DD0B102230024029451
:1076E0000C48ADF808300DF10603039301F096F94C
:1076F00002AA698DFFF7E8FD43F20143984202D1E7
:10770000ADF8064002E008B180B201E0BDF8060025
:1077100005B030BD0038002008B590F8222002F0F6
:10772000100202F0FF0322B1FFF7CEFF00F00100CC
:1077300008BD184608BD00002DE9F04190F8223040
:1077400003F010030E4686B0054603F0FF01002B40
:1077500046D0C489944228BF1446FFF7DDFF074690
:10776000002837D0214801F059F901461F4800F0A0
:1077700004FA03381FFA80F89CB31C4801F04EF954
:1077800001461A4800F0E8F910B3A04543464FF00F
:10779000000128BF2346102202A8ADF8063007F0EA
:1077A0001CF901238DF80A30EB8CADF808300F4836
:1077B00005960DF10603049301F030F902A9FFF7D5
:1077C00085FD28B9BDF80630E41AA4B21E44D3E7FB
:1077D000002706E0224631462846FFF753FF00E027
:1077E0000F46384606B0BDE8F08100BF00380020E3
:1077F000A1DF7047A3DF7047A4DF704710B50446D0
:1078000005F0CEFA0128204603D1BDE8104007F06C
:107810009FB8BDE8104004F059BB00238382704735
:10782000806900F0F5B8808A704700002DE9FF41BB
:107830000B88CF88382B04460D4672D0392B03D0E5
:10784000362B40F0DF80B7E00B7B012B02D0022B00
:1078500031D0D7E0C36A002B00F0D48090F83420F8
:1078600012F0010FCA8923D01046FFF7C7FF064662
:10787000002800F0C780EA8905F1100107F087F8B9
:107880001820FFF7BBFFE26A426003220272EA8916
:10789000066003920194029601AA034603CA196185
:1078A000D860106858610021184605F0F5FFA9E07E
:1078B00010319847A6E0036B002B00F0A38090F8EE
:1078C00034208E8812F0020FCA8923D01046FFF7A9
:1078D00095FF0746002800F09580EA8905F1100120
:1078E00007F055F81820FFF789FF226B426003224A
:1078F0000272EA89076003920194029701AA034683
:1079000003CA1961D860106858610021184605F053
:10791000C3FF01E01031984769893046FFF76CFFDB
:1079200070E017B104F11C006AE000F11C060A8A3D
:107930003046394601F063FD95F80C80B8F1010F2F
:10794000F0D0B8F1040F5DD1A06900F061F80146F4
:107950002E4800F012F9228DA38A053880B2904299
:1079600028BF1046B0B10197EA89ADF806302B8ADE
:10797000ADF80A001344ADF80830A069636A8DF8C9
:107980000480039300F044F801A9FFF733FF0028B7
:1079900038D00FE00522029003908DF80420A069F2
:1079A000ADF8063001228DF8052000F031F801A96C
:1079B000FFF720FF304623E0806900F029F80146F8
:1079C000124800F0DAF80646002FABD104F11C078C
:1079D000EA8905F11001384601F011FD238D73B1DC
:1079E000033EEB89B6B2013EB34208DBA06900F06A
:1079F0000FF8628DA18A92B2FFF7FAFE10B13846F5
:107A000001F015FD04B0BDE8F08100BF0038002092
:107A10008088704710B50446043001F0A6FC0123AD
:107A200023804FF6FF73638000232375204610BD2B
:107A3000017D10B5044621B9043001F09AFC012300
:107A4000237510BD007D70470B88322B10B504469E
:107A500011D0332B1BD0302B27D1CB8833B94B8996
:107A600023B10A221144201D01F0C9FC201DBDE8EC
:107A7000104001F0DCBCCB88002BF7D14A89002AEA
:107A8000F4D0013A02EB820252000C320AE0CB88B9
:107A9000002BEBD14A89002AE8D0013A02EB4202DE
:107AA0005200083292B20A31DDE710BD7FDF704725
:107AB00086DF70478FDF704790DF7047B1DF704718
:107AC000B5DF704710B5C822044600210C3006F01F
:107AD00084FF172303222380E3800123E3702371B3
:107AE0006372A37262F3061384F8D430072384F818
:107AF000D5301023A270227284F8D63084F8D720B3
:107B000084F8D820204610BD1729B8BF1721022AB3
:107B1000B8BF0222C3709DF80030018082700371EB
:107B2000704701290CBF0088C0887047282303FBD9
:107B30000101487B7047282303FB0101887B7047C4
:107B400010B5282303FB021252F8123F03609388FA
:107B500083809379837110BD042908B50BD828233D
:107B600003FB0101086A38B1662104F02FFC0030E4
:107B700018BF012008BD002008BD282303FB010118
:107B8000088A7047F0B587B004AC16461F460D460C
:107B900020464FF4285100F061FC8DE8C0004FF6FC
:107BA000FF7303930123029394E80C0029460248D3
:107BB00000F042F907B0F0BDDC380020F0B58D8848
:107BC0004FF6FF739D4218BF28240B881ABF04FB91
:107BD00005040C3400241A2B95B007460E4600F01D
:107BE000BD8019D8132B56D010D8102B2BD0112BA9
:107BF00040F00A81002560696570257004F0A2FCE0
:107C00006561A06904F09EFCA561FDE0142B00F005
:107C10008A80192B6ED0F7E03C2B00F0CA800BD87D
:107C2000212B00F0D680232B40F0EE80002211465D
:107C30002846FFF741FFE7E0552B00F0D480572B93
:107C400000F0A680E0E001232370CB7BA37056F800
:107C5000080FC4F806001723B188B279A380EDB2EB
:107C6000282303FB0573618122739B7B012B0CBFCF
:107C7000F878787A014604F03EFA282303FB05756C
:107C80006061AB7B012B0CBF3879B87A014604F0F8
:107C900032FAA061B8E005F083F801284FF05000F7
:107CA00002D106F055FE01E004F010F9064620610D
:107CB000002800F0A9805022002106F08EFE4FF629
:107CC000FF732022E3810021684606F086FE06F15C
:107CD0001C030493A3780096012B06F138060CBF11
:107CE00007F1D40200226B46002128460596FFF7D3
:107CF000DDFE89E00B7A43B92269A0780123637025
:107D0000538AE381294601F0BFFB256905F048F855
:107D10000128284602D106F023FE01E004F0E5F830
:107D20000023236170E050220021684606F055FED2
:107D30006A46318AA07801F019FC0346B08843B145
:107D400000230EAA6946FFF7B3FEBDF81230E381A7
:107D50005AE01A461946FFF7ABFE55E00B7A112B95
:107D60000DD0E289A078294601F03CFC034620B9F9
:107D7000024601462846FFF7A1FE01236370606AB0
:107D8000002841D000231A46194604F0BDF93BE013
:107D90006369002B38D00025B279EBB29A4205F125
:107DA000010531D900231A461946606904F0ACF97F
:107DB000F2E7A36943B30025B27AEBB29A4205F128
:107DC000010521D900231A461946A06904F09CF93F
:107DD000F2E70023694628468DF800308DF801301F
:107DE000FFF768FE10E0EBB2282202FB0303C9880C
:107DF0009B7B012B0CBF0388C388994228BF19467F
:107E0000A1802846FFF75CFE15B0F0BDA0DF7047EB
:107E100038B50446F82500F5F87001F0A6FA2A46B0
:107E20000021204606F0D9FD2A460021601906F0FF
:107E3000D4FD204638BD0000F0B585B08DE80C00BB
:107E4000BDF83030ADF80C30BDF83430ADF80E3040
:107E50000F466E4600F5F875284601F0CEFA044646
:107E600028B1124800F0E7FD03F098FFF4E7012184
:107E7000284601F07EFABDF82C200A99284601F028
:107E80008DFA03AA31463846FFF7C0FF28B94FF4F0
:107E9000FA71284601F087FA0446284601F072FA82
:107EA00024EAE47080B205B0F0BD00BF00380020C5
:107EB0002DE9F04F0E888F88A6F11003012B87B0B3
:107EC00005460C4612D84FF000082A785FFA88F36E
:107ED0009A420BD99B002B44112E586803680CBFA3
:107EE0001B685B68984708F10108EEE7784800F0E6
:107EF00095FD874215D14FF028094FF0000A09FB84
:107F000007F908E01633502E55F823B017D0512E3C
:107F10000CD00AF1010A95F854205FFA8AF39A42CC
:107F2000F0D805F5A67A4FF0000934E0A279B4F84C
:107F30000880022A05D1A27B062A02D10DE0B4F8FE
:107F40000680B8F1000FE4D059466846FFF794FB6D
:107F5000BDF80020424540F0A680DBF800205846DE
:107F6000D268214690475A4800F05BFD0028D0D0E7
:107F7000502ECED1594604A8FFF77EFBBDF8143031
:107F80004345C6D199E05AF8040FFFF749FC8742F0
:107F900006D009F1010995F84C319945F3DB16E05B
:107FA000382E03D0392E01D0362EF2D1B4F80A8003
:107FB000B8F1000FEDD0DAF800B05846FFF733FC07
:107FC0008045E6D121465846FFF730FCE1E7112E07
:107FD00026D1002495F8F820E3B29A4201D8002671
:107FE00018E005EB8303D3F8FC008388BB4202D181
:107FF00003681B6898470134ECE705EB8404D4F868
:108000005001FFF70DFC874203D1D4F85001FFF770
:1080100004FC013695F84C31F4B2A342EDD854E09B
:10802000532E1AD0562E2AD0352E4ED161890029D2
:108030004BD0A2890E34231B901CB3FBF0F38B4270
:1080400005F5F87503D2A11C284601F0D8F9284699
:1080500007B0BDE8F04F01F0EAB91D4A282307FB3D
:10806000033313441446586820B100231A461946B6
:1080700004F04AF8282202FB0747012310E0144AC3
:10808000282307FB033313441446586820B1002308
:108090001A46194604F038F8282202FB0747002345
:1080A00087F8283011E0594602A8FFF7E5FABDF835
:1080B0000C2042457FF42DAF4FE7054B4B4439462A
:1080C0005A8B987B01F00AFA23E707B0BDE8F08FDE
:1080D0000038002090F85430282B1FBF5A1C16334C
:1080E00080F8542040F8231014BF0120002070476E
:1080F0000378132B9FBF5A1C027000EB8300416072
:1081000094BF0120002070478ADF704710B50446F5
:1081100004F046FE0128204603D1BDE8104006F0D9
:1081200017BCBDE8104003F0D1BE10B504461F23B4
:10813000206283840123002180F82930802380F885
:10814000281080F82A3080F82B10818580F83410B0
:1081500001638163C1630E22403006F03EFCA02320
:10816000A4F842305023A4F84430204610BD00004B
:1081700010B504461F232062A0F84610838400F146
:1081800020014030FFF7C0FF30B9044800F038FD4F
:10819000012084F8280010BD002010BD0038002008
:1081A00000F1200108B50020FFF7AEFFB0FA80F023
:1081B000400908BD38B5012A9DF814501BD94878EC
:1081C0000C78984204D1013C0231E4B209D114E0A8
:1081D000E0430244013412F0FF022144EFD1104683
:1081E00038BD15B1AC4228BF2C462246049806F093
:1081F000CEFB204638BD002038BD084638BD37B517
:108200009DF818500C7F8DE8280013468969224696
:10821000FFF7D0FF03B030BD2DE9F04F8FB002ACB7
:1082200080462046894684E80C0000F022F9C0B25E
:10823000102807D102238DF8143003238DF8153050
:10824000274606E006238DF81430039F07238DF898
:1082500015300026C508B2461F22002106A806F0E8
:10826000BCFB05AB4946F25CCDF800A006AB40462E
:10827000FFF7C5FF0DF1180B04465CB12A463946DD
:10828000584606F075FB08B9012007E0641BAB44B3
:10829000E4B2F2E70136022EDED120460FB0BDE88F
:1082A000F08F0000F0B50B88112B85B006464CD03E
:1082B00002D8102B3BD095E01B2B5DD01D2B40F03E
:1082C000918090F92A2091F91B309A4267DC90F84E
:1082D000343001F1080523B996F82B30002B62D019
:1082E00015E0002796F83430FCB2A3420AD9336B6C
:1082F00003EBC4030CCB29463046FFF78DFF013753
:108300000028EFD096F83430A342E5D147E00223AD
:108310000093FF2203AB29463046FFF770FF002889
:108320003DD0B28DBDF80C309A4238D13BE0CB7BCA
:10833000022B57D1002380F828302B4800F071FC25
:108340000121294800F079FC4CE089882648FFF794
:10835000F2FB022846D196F82810002942D1224883
:1083600000F06BFC96F82930002B3BD0B6F8461095
:108370003046FFF7FDFE35E00B7A012B32D1C36B9F
:10838000002480F828406BB31020FFF7BFFEF26B8B
:10839000046042600472214605F07EFA22E0304615
:1083A000FFF7FEFE1EE02420FFF7B0FE0746C8B12F
:1083B0000FCD3C460FC40FCD0FC42B682360B36BA9
:1083C00083B11020FFF7A2FEB26B4260012202725D
:1083D00004AA076042F8047D03461068D8600021B3
:1083E0001846D9E705B0F0BD00380020A8DF704777
:1083F0007047000037B500F108050446284600F034
:1084000046F829460DF106020120FFF7EFFF054669
:1084100028B9044B04481C602146FFF769FE284632
:1084200003B030BDFC370020DC38002013B5044613
:108430008DE806002346064943F8081B9DE8030023
:1084400083E8050000232046A38002B010BD00BFD2
:10845000101D030062DF704763DF704701238370E4
:1084600000230180436070470023837003804160D4
:1084700070478378012B06D0426832B9012B8CBF3C
:10848000802000207047102070478020704708B57A
:108490008378024653B9406840B1911CFFF7DAFF78
:1084A00010205168BDE80840FFF7D6BF002008BD86
:1084B0004BDF704710DF704775DF704776DF70471E
:1084C00077DF704778DF70477ADF70477CDF70476F
:1084D0007DDF7047B1DF704760DF704769DF70474D
:1084E00061DF704766DF704767DF704770471320B2
:1084F00005F068BB37B50D4C0D4DD4F8C8034FF0EF
:10850000FF3103F063FF0028F7D001A8FFF7D0FF89
:108510000528F2D00028F8D10198831E012BF4D849
:10852000002DF2D003F0AAFCEFE700BF00380020D6
:108530007DBE020010B5044604F032FC012820463E
:1085400003D1BDE8104006F003BABDE8104003F0C7
:10855000BDBC10B50446FFF7B5FA04F1DC00FFF727
:1085600057FC04F53770FEF72AFD04F54570FEF759
:1085700083FC04F54D70FFF7D8FD04F56170FEF73C
:1085800036FE04F56570FFF745FA04F5757000F0E6
:108590005BFC4FF400620023C4F8AC230A22C4F849
:1085A000B03384F8B123012284F8B02384F8D023B7
:1085B0004FF6FF72A4F82C241022A4F8B623182238
:1085C000A4F8B82384F8B433C82284F8B53384F807
:1085D000C033C4F8C433C4F8C833C4F8CC33A4F8E7
:1085E000BA33A4F8BC23A4F8BE33C4F83034C4F8BA
:1085F0003434C4F83834204610BD10B49DF804401B
:1086000001945DF8044BFFF77FBA000070B5B34BDF
:1086100080F8B4138CB080F8B52305461868039031
:10862000AF4903A8FFF746FF0446002840F05281F7
:1086300095F8B1130990AB4A0A900B908DF824106D
:10864000012009A90492FFF749FF0446002840F0E1
:10865000418195F8B42309908DF8252095F8B5232C
:108660008DF82620003218BF01220A900B908DF859
:10867000272009A9049A4020FFF730FF044600286C
:1086800040F0288195F8B023099062F300040A9025
:108690000B90049A8DF8244009A9A020FFF71EFF33
:1086A0000446002840F01681D5F8AC230A900B90C0
:1086B000099209A9049AA120FFF710FF0446002897
:1086C00040F0088195F8B42322B995F8B523002A23
:1086D00049D190E02A8809900A900B90ADF82620A5
:1086E0000126049A8DF8246009A92320FFF7F6FEDD
:1086F0000446002840F0EE8095F8B42309908DF8E8
:108700002620AA780A900B90ADF8282009A9049A8F
:108710008DF824602020FFF7E1FE0446002840F099
:10872000D980EA7809900A900B908DF8262009A943
:10873000049A8DF824602220FFF7D0FE044600281A
:1087400040F0C8802A7909900A900B908DF8262075
:1087500009A9049A8DF824602120FFF7BFFE044682
:108760000028B2D0B6E0002209920A920B92EA8861
:10877000ADF826200226049A8DF8246009A923204A
:10878000FFF7ACFE0446002840F0A48095F8B5231E
:1087900009908DF826202A7A0A900B90ADF82820AF
:1087A00009A9049A8DF824602020FFF797FE04465B
:1087B000002840F08F806A7A09900A900B908DF81B
:1087C000262009A9049A8DF824602220FFF786FE4E
:1087D000044600287ED1AA7A09900A900B908DF861
:1087E000262009A9049A8DF824602120FFF776FE3F
:1087F000044600286ED104A8FFF76EFE002868D159
:1088000007900890C0B240F001008DF81C0007A945
:108810000220FFF769FE044600285BD105F2B6305E
:10882000FFF752FE0446002854D10CA81B7900F82B
:10883000283D0B222C49FFF749FE0446002849D168
:10884000FFF740FE0446002844D105F5757000F09E
:108850001DFB95F8B5331BB105F56170FEF7D2FC31
:1088600003220021012003F029FCC5F8C40308B944
:1088700004242FE005AB032601934FF4C0620023CC
:108880001A4900961A4803F0E6FF324600210120FB
:1088900003F014FCC5F8C8030028E9D006AB019327
:1088A00000960023C8221349134803F0D4FF134B4A
:1088B0004FF480021A60124B0093002301224FF400
:1088C0008071184604F0A4FBC5F8CC0300F02EFE1E
:1088D00000E0044620460CB070BD00BF1C1D030024
:1088E000ED840200003400203C1D0300481D0300FD
:1088F000B98B02004C1D0300F584020000E100E08A
:10890000EF84020037B5084B02AC1B7904F8043D34
:1089100008460D4606F044FF294682B22046FFF77E
:10892000D5FD03B030BD00BF1C1D030007B50846D0
:1089300002A921F8022DFFF7CBFD10B99DF8060022
:1089400000E0002003B05DF804FB000030B5124ADF
:1089500085B005460C4610685168127A01AB03C316
:108960001A70002301AAD156A14204D00133092B69
:10897000F9D100200EE0B5F82C144FF6FF739942A0
:1089800005D022460320FFF79BFD0028F1D185F892
:10899000C043012005B030BD211D030090F9C00384
:1089A000704780F8D013704773B50446D0F8CC03F5
:1089B0000E4604F06BFC00230546B6024FF47A72B3
:1089C0000093B6FBF2F20421D4F8CC0304F03EFB92
:1089D0003DB900952B462A460321D4F8CC0304F078
:1089E00035FB02B070BDB0F82C044FF6FF73C01A0F
:1089F00018BF01207047B0F82C0408B54FF6FF737C
:108A0000984206D01321FFF759FDB0FA80F04009D3
:108A100008BD012008BDC0F830147047B0F82C0420
:108A20007047B0F82C144FF6FF73994201D0FFF74E
:108A30007DB800207047B0F8BE03704710B5064CF3
:108A40000021D4F8C80303F01EFCD4F8C4030021AD
:108A5000BDE8104003F017BC00380020F7B504460D
:108A60000D468E88FFF7AAF8294604F53770FEF701
:108A700047FB04F54D702946FFF714FCB4F82C04AD
:108A80002B88864205D0102B01D01B2B66D1112BD1
:108A900001E0112B3ED004D8012B5BD0102B0AD063
:108AA0005CE0122B32D0522B58D100231A461946C3
:108AB000FFF710FD52E0EB7B012B4FD12B8AB4F86E
:108AC000B623A888A4F82C049A42A4F8BE336CD824
:108AD000B4F8B823934268D8D4F83034002B3DD092
:108AE0001020FFF727FDD4F83024426001220272E3
:108AF000002102AA03460160B4F82C0442F8080DD4
:108B00001068D860184604F0C7FE27E02B89A4F847
:108B1000BE3323E0D4F83434BBB11420FFF70AFD90
:108B2000D4F8342442600222027200270760B4F8AD
:108B30002C2400922A7A01926A46034603CAD8601E
:108B400019611846394604F0A7FE4FF6FF73A4F8E2
:108B50002C3403E000213046FFF7C4FC94F8B53311
:108B600063B1B4F82C34B34203D14FF6FF739E4285
:108B700004D1294604F56170FEF74AFB04F56576D9
:108B80003046FEF75FFF18B129463046FEF75CFF1E
:108B9000294604F1DC00FFF78BF9D4F838344BB1E7
:108BA000284603B0BDE8F04018470021FFF784FCD9
:108BB000002891D003B0F0BD73B54FF4FA70FFF701
:108BC000B9FC0E4E04464FF0FF31D6F8C40303F053
:108BD000FDFB0028F7D04FF4FA750DF10601204691
:108BE000ADF80650FFF77CFC20B921460348FFF79B
:108BF00035FFF2E70528E6D0EFE700BF0038002098
:108C000090F8D03313B553B1D0F8CC4303F090FEB5
:108C10000023024600930121204604F017FA02B017
:108C200010BD07B5002300931A460321D0F8CC03EA
:108C300004F00CFA03B05DF804FB90F8D03313B1E4
:108C4000132004F093BF704710B5054C2046FFF782
:108C500080FC2046034A0449BDE8104005F0F6BDFB
:108C600000380020003400206D8C020010B5054B48
:108C7000C0F8D433044600F57970FEF72BFB20468C
:108C800010BD00BF581F03003CDF70473DDF704739
:108C900011DF704713DF7047B0DF7047B2DF7047F6
:108CA000F0B59DB00C8807460D46014608A8FEF7B2
:108CB000E3FCBDF82030A34240F0B480AB79043B24
:108CC000022B40F2AF80584E3046FFF7A7FE10222D
:108CD000044600210DEB020005F07FFE022338461A
:108CE0008DF81030FEF718FD40B940F2FD1304A9CD
:108CF0002046ADF81430FFF7CFFF93E0002304A91E
:108D00002046ADF81430FFF7C7FF2F7B012F40F04E
:108D10008980464D19463E22284605F05EFE1CAA73
:108D2000082322F8623D42493B462046FFF7B6FF42
:108D3000224631466846FEF703FF00982860BDF8DA
:108D400004209DF80630AB71AA8021463046FEF71C
:108D5000EDFE10B3282303FB046408AA618B384698
:108D600000F004FCC8B11AAC94E80300314AA980B1
:108D7000090C2860A97116AD2B4603CBA3421060E5
:108D800051601D4602F10802F6D108AC0FCC2A4D05
:108D90000FC594E8070085E807002448274C4FF6E4
:108DA000FF7110F8012B82EA112383EA13139AB2A0
:108DB00043EA012383EA023383EA4213A04299B2D1
:108DC000EFD11A4B1E4899870021FEF71AF9164871
:108DD000FFF711FEFF210020FFF758FFB12100200F
:108DE000FFF752FFF0B9FFF753FFD8B9154B4FF417
:108DF0008002C3F880210124420900F01F012032C3
:108E0000013004FA01F1272843F82210F4D14FF081
:108E100010235869FFF73EFF20B980F31488586982
:108E200000F098FA1DB0F0BD00380020807F0020CF
:108E3000B47F0020877F0020987F0020BC7F002027
:108E4000DC3A002000E100E073B505460C496846B5
:108E5000FFF70AFB2E469DE806002846FFF7E6FAD4
:108E6000084B46F8103B68460749FFF7FDFA9DE8B6
:108E700006003046FEF7C2FB284602B070BD00BFB8
:108E80002F1F0300581F03003F1F030070B5A6B03B
:108E90000646FFF7AFFA054600284FD114AC294922
:108EA0002046FFF7E1FA94E8060002A8FEF7A6FBC9
:108EB00002A8FEF7B9FB042102A8FEF7B8FB1421B3
:108EC00002A8FEF7B7FB02A8FEF70CFA054690BB16
:108ED00006F1100528461821FEF7A9FB28461721A0
:108EE000FEF7A8FB28461849FEF7B9FB2846FEF70F
:108EF000F9F90546F8B915496846FFF7B5FA9DE84E
:108F000006002046FEF77AFB2046FEF78DFB022185
:108F10002046FEF78CFB02212046FEF78DFB204603
:108F2000FEF7E0F9054618B901212046FEF7C1FB1E
:108F30002046FEF7CFF902A8FEF7CCF9284626B066
:108F400070BD00BF641F0300A18C0200741F0300EA
:108F500007B5036801229B690DF10701984710B11D
:108F60009DF8070001E04FF0FF3003B05DF804FB0F
:108F7000A0F11000FFF7ECBF13B502AB026803F8D5
:108F8000011D146A19460122A04702B010BDA0F1CC
:108F90001000FFF7F1BFD0F8B030988980B2704769
:108FA000A0F11000FFF7F7BF70B50D461646FEF7AB
:108FB00039FB044632462946D0F8B00005F003F9E3
:108FC000D4F8B83013B1BDE87040184770BD37B55C
:108FD0000546D0F8C40080B1002400942346224600
:108FE000052104F033F8D5F8BC00C5F8C44020B121
:108FF00003B0BDE8304005F0A4B803B030BDD0F8F0
:10900000B00005F09EB8A0F11000FFF7F8BF08B55A
:1090100092B2D0F8B00005F017F908BD07B5D0F846
:10902000B0000DF1070105F029F910B19DF8070016
:1090300001E04FF0FF3003B05DF804FBA0F1100039
:10904000FFF7ECBF37B590F8C03004469BB10B4B2F
:109050000093012203460A21002003F0D9FFC4F83F
:10906000C400054603F064FC00230246009301217E
:10907000284603F0EBFF03B030BD00BF7191020042
:10908000F7B504460F4668461A49FFF7EDF99DE823
:1090900006002046FFF7CAF94FF47A73A361164B16
:1090A0001649002603F10802403323612260684616
:1090B0006661FFF7D9F99DE8060004F12000FEF78C
:1090C0009DFA68460E49FFF7CFF99DE8060004F1C6
:1090D0006800FEF793FA2046C4F8B060C4F8B860A0
:1090E000A4F8B470C4F8BC6084F8C060C4F8C4606C
:1090F00003B0F0BD941F0300A41F0300841F0300EE
:10910000FC1F030070B506461848FFF787FC0146B0
:109110001648FEF732FD033885B203F041FE012800
:10912000284602D105F014FC01E002F0CFFE04460F
:10913000D8B12A460146D6F8BC0005F085F80246AB
:1091400030B1214606F12000FEF7F6FA054600E0B0
:10915000012503F025FE0128204602D105F000FC80
:1091600001E002F0C2FE284670BD70BD003800204C
:1091700008B504F097F8D0F8BC301BB1BDE8084042
:10918000FFF7C0BF08BD00002DE9F04790F8C030E0
:1091900005468946174600F1200813B1D0F8BC30C7
:1091A0003BB9BAB249464046FEF7C6FAF0B90024C8
:1091B0002EE04046FEF7B0FA0028F8D0BEB23246A4
:1091C0004946D5F8BC0004F0FEFFD5F8BC30044693
:1091D0001148B3F80CA0FFF721FC01460E48FEF73A
:1091E000CCFC1FFA8AFA0338824501DA3C460FE0CC
:1091F0002846FFF787FF0028D9D0A742F6D9321BAF
:1092000092B209EB04014046FEF796FA0028EDD130
:109210002046BDE8F08700BF00380020A0F1100014
:10922000FFF7B2BF0A4B10B5036038330446036141
:10923000D0F8BC0010B103685B68984704F168007F
:10924000FEF748F804F12000FEF744F8204610BD70
:10925000AC1F030010B50446FFF7E4FF204604F0FE
:10926000EFFE204610BD0000F8B50446182004F0BB
:10927000E5FE00220546012104F02EFFB4F8B410EB
:10928000C4F8B050284604F044FF2046FFF7B2F877
:109290000646B8BB01211C48FEF743FC04F120053B
:1092A000074610212846FEF7C2F93246112128460A
:1092B000FEF7CEF939462846FEF7BCF91349284691
:1092C000FEF7D8F92846FEF70DF80646D0B96834FF
:1092D00020460C21FEF7ABF920460D49FEF7BDF9FB
:1092E000112231462046FEF7B3F939462046FEF7F3
:1092F000A1F920460749FEF7BDF92046BDE8F84030
:10930000FDF7F0BF3046F8BD003800200C20030008
:10931000A98F020010200300F0B50346186880F3FF
:1093200008885868FF2464B2EFF30585002D01D149
:10933000A64600472546064621273FBAF0B400243A
:10934000002500260027F0B4F92040B2004700BFF6
:10935000F0BD00BFFFF7E0BF01230370002343709F
:1093600043608360C3818381704708B5FFF7F4FFD2
:1093700008BD10B50446217019B90A2002F0BBFEE1
:10938000606010BD037810B5044613B9406803F05F
:10939000D9F82046BDE81040FFF7DEBF002381600A
:1093A0008281C3817047037870B505460C466BB95E
:1093B0000123A4024FF47A716B70B4FBF1F1686879
:1093C00003F004F868B94FF0FF340CE003220021E9
:1093D000012002F073FE68600028E9D14FF0FF30F1
:1093E00070BDEC89A4B22B7800266E701BB1686842
:1093F00003F0A8F86E60204670BD4078704738B51D
:1094000085899542044628BF154619B12A468068C9
:1094100005F0BDFAA3682B44A360A3895B1BA3815D
:10942000E38915FA83F39BB2E381284638BD40688F
:1094300020B100231A46194602F066BE7047B1DF1C
:109440007047B2DF7047000010B4054B054C01298E
:109450000CBF214619465DF8044B06F03DB900BF2C
:109460002D2003001420030010B5044603F098FCDF
:109470000128204603D1BDE8104005F069BABDE8D7
:10948000104002F023BD0000F0B5064685B0502024
:109490000D461746FFF7E8FF0446D8B1502239467B
:1094A00005F075FA1820FFF7DFFF0B4A4260032230
:1094B000027201960295039401AA0346046003CA4E
:1094C000D8601068196158610021184604F0E4F969
:1094D0000120FFE705B0F0BD49970200F0B54FF657
:1094E000FF739A4285B007460E4615464FF00004BA
:1094F00017D01820FFF7B8FF0B4A42600322027210
:1095000001970296039501AA0346046003CAD86036
:109510001068196158612146184604F0BDF9012010
:1095200000E0204605B0F0BDA196020008B50C4849
:1095300000F023FB0B490A4800F0E9FA18B9094981
:10954000074800F046FB0849054800F0E0FA28B952
:1095500005490348BDE8084000F03BBB08BD00BF1B
:109560003C3C0020462003005A20030030B591B057
:1095700015460A46014601A8FFF766FF0F4B002279
:1095800001A908A800F038FA08A800F049FA044632
:1095900008B900240CE008A800F094F9502802460D
:1095A000F7D1294608A800F07DF908A800F0E2F9F3
:1095B00008A800F027F9204611B030BD3C3C00203F
:1095C00038B5044600F07EF9051E08DD204600F09F
:1095D0009CF92918204600F087F9012038BD0020A9
:1095E00038BD0000F0B54FF6FF7391B09A420E46B9
:1095F00000AF3FD00146381DFFF726FF204B002269
:10960000391D07F1200000F0F7F907F1200000F004
:1096100007FA08B9002424E007F12000FFF7D0FF83
:1096200007F12000FFF7CCFF07F1200000F04AF916
:109630000028EFDDC31D23F0070384B26D46ADEBB8
:10964000030D2246694607F1200000F02BF922465F
:10965000694603233046FFF7F2FEB0FA80F464094E
:10966000AD4607F1200000F085F907F1200000F079
:10967000C9F800E0002420464437BD46F0BD00BFD5
:109680003C3C002070B505460E461446D1B200F0B1
:10969000BAF8224631462846BDE8704000F0E1B8ED
:1096A0002DE9F04391B000AF07F140040E460021D0
:1096B00024F83E1D03238046914630462246FFF79C
:1096C000C0FE7B886D46C3B3073323F00703ADEBC1
:1096D000030D2246032369463046FFF7B2FE0446D7
:1096E00058BB4A464146381DFFF7AEFE154B0122D6
:1096F000391D07F1200000F07FF907F1200000F08C
:109700008FF9B0B1214607F1200000F0EDF807F124
:109710002000FFF755FF07F12000FFF751FF07F189
:1097200020007A886946FFF7ADFF07F1200000F0BE
:1097300021F907F1200000F065F84437AD46BD4639
:10974000BDE8F0833C3C002030B5144601289DB0B4
:109750000CBF528AE28D0D46014605A8FFF774FE44
:1097600005A9254800F0D3F918B105A9224800F051
:10977000DAF9214B012205A90CA800F03DF90CA84B
:1097800000F04EF9002832D0502221460CA8FFF7F5
:1097900079FF2022002114A805F01FF9202314AA24
:1097A00029461648FEF7EEF99DF850309BB994F81B
:1097B0004910039194F84A10029194F84B100191CA
:1097C00094F84C10009194F84D3094F84E200C49C8
:1097D00014A805F081FF14A805F0E2FF421C92B224
:1097E0000CA814A9FFF74EFF0CA800F0C3F80CA8B2
:1097F00000F008F81DB030BD3C3C002000380020CF
:1098000084200300704707B5027F8DF8071032B936
:10981000036801225B680DF10701984700E0002012
:1098200003B05DF804FB10B5044604F009FC2046C3
:1098300010BD10B5044603F0B3FA0128204603D149
:10984000BDE8104005F08CB8BDE8104002F04DBBFB
:10985000027F034622B9006959690268926A10477B
:1098600070471346027F30B442B904692268156A12
:109870000A46AC464169204630BC6047002030BCF7
:109880007047000010B54FF47A7400228460044CD5
:1098900042600460016142618261027710BD00BFD5
:1098A000AC2003001346027F30B442B90469226839
:1098B000556A0A46AC464169204630BC60470020E4
:1098C00030BC7047037F07B513B14FF0FF3008E09D
:1098D00001220DF10701FFF7E5FF0028F5DD9DF8F6
:1098E000070003B05DF804FB0A46017F10B403468D
:1098F00039B9006901680C6B596923465DF8044B5E
:10990000184700205DF8044B7047027F034622B9D8
:10991000006959690268526B10470020704738B5DA
:10992000037F05467BB90368DB68984704462846F1
:10993000FFF7EBFF08B1411E00E001462846FFF7A4
:10994000D3FF204638BD4FF0FF3038BD027F0346BD
:1099500022B9006959690268926B1047002070476C
:1099600038B50546FFF7F2FF04462846FFF7CDFF5E
:10997000201A38BD416910B5044639B10069227F0B
:109980000368DB6A98476069FFF753FFA06908B175
:10999000FFF74FFF00236361A36110BD38B5436932
:1099A00005460C460BB1FFF7E5FF21462B4604F1B7
:1099B000200251F8040B43F8040B9142F9D12846D8
:1099C00038BDF0B5436989B004460E4617460BB161
:1099D000FFF7D0FF21690B6832465D6868463B4659
:1099E000A84769462046FFF7D9FF6069003018BFD5
:1099F000012009B0F0BD000070B54FF47A76002563
:109A00008660064E456004460660036145618561D7
:109A10000577FFF7D6FF204670BD00BFAC200300DE
:109A20004069003018BF01207047704708B502F048
:109A300031FA002008BD08B501F55A6102EBC110EA
:109A4000029A194602F02CFA002008BD08B501F56B
:109A50005A6102EBC1111846029A02F029FA00205D
:109A600008BD10B5044604F0EBFA204610BD70B5F1
:109A7000044629B994F8813004F13C055BB90EE045
:109A80004FF4DA25284605F5805502F01DFAB5F5A4
:109A9000E82FF7D1EEE7284601F050F828B9261D47
:109AA0003146284601F036FF08B1002070BD31462E
:109AB000284601F003F80028F7D1012084F881003E
:109AC00070BD08B53C30002301F0BEFBC043C00FA1
:109AD00008BD10B5044603F063F90128204603D100
:109AE000BDE8104004F03CBFBDE8104002F0FDB9F5
:109AF00010B5044603F054F90128204603D1BDE80F
:109B0000104004F025BFBDE8104002F0DFB900B5F9
:109B1000C3B06A463C3000F093FFB0FA80F04009D1
:109B200043B05DF804FB08B53C3002F08BF8B0FAA6
:109B300080F0400908BD08B53C3002F083F80120F0
:109B400008BD08B53C3001F063F920EAE07008BDBB
:109B50003C3001F083BD3C3001F011BB3C3000F0E3
:109B600063BF3C3000F062BF3C300AB100F0D7BEAA
:109B700001F0C2BD3C3000F047BF70B590F8806086
:109B8000044686B9012580F88050011D3C3000F064
:109B900095FF343005D123683146DB69204698476C
:109BA00001E084F88150012070BD73B501F55A6160
:109BB000CD010024FF26601901220DF107010134B7
:109BC0008DF8076002F06CF9802CF4D1002002B00F
:109BD00070BD2DE9F0470B782F2B064600AF0D46E0
:109BE0000CBF481C08464FF000082F2105F0A7FDC8
:109BF000044620B3421B02F1080323F00703E946A1
:109C0000ADEB030DEA468DF800806B460DEB0201CB
:109C10008B4202D003F8018FFAE72946504604F040
:109C2000B6FE514606F13C0001F00AFF20B11130AA
:109C300002D00020CD460FE0601CCD46D5E7294676
:109C400006F13C0001F0FCFE28B110F1110F14BF29
:109C50000020012000E00120BD46BDE8F0870000A3
:109C60000F4B10B538220446002140F8043B04F0A5
:109C7000B4FE0C4BA3600C4BE3600C4B23610C4B0C
:109C8000636100228023E021A361E36123626162BA
:109C9000A36284F8802084F88120204610BD00BF94
:109CA000DC2003004D9A0200379A0200AB9B0200B1
:109CB0002D9A02002DE9F843984605460E461746B0
:109CC000FFF7E0FDB8F1000F05D0B8F1010F2BD17F
:109CD00040F2031901E04FF001093820FFF708FFB7
:109CE000044608B33C363A464B462146304601F01E
:109CF000A2FF024618B12046FFF7EBFE14E0B8F1D0
:109D0000010F04D102232146304601F09DFA0023C1
:109D10002B776C61384605F043FD0130FFF7E8FE14
:109D20003946A86105F023FD2846BDE8F883F8B55B
:109D30000F4615460446FFF7A5FD2C20FFF7D8FE79
:109D40002A460646014607F13C0000F0BFFD18B167
:109D50003046FFF7BEFE0CE00123237766612846FC
:109D600005F01EFD0130FFF7C3FE2946A06105F096
:109D7000FEFC2046F8BD000010B5054C2046FFF75C
:109D80006FFF2046034A0449BDE8104004F05EBD61
:109D90003C3C0020003400202B9A0200F0B50C4619
:109DA000CBB0154606461F46FFF76CFD08AA2946AC
:109DB00004F13C0000F044FE48B99DF82030112B1E
:109DC00009D02A4621466846FFF7B1FF09E0023074
:109DD0000ED1012F0CD13B462A4621466846FFF79B
:109DE00069FF69463046FFF7D9FD6846FFF70AFD6F
:109DF00030464BB0F0BD00002DE9F043CBB000AFD2
:109E000080460E4614461D46FFF73CFD07F1200232
:109E1000214606F13C0000F091FD012848D107F1F0
:109E20002801264805F099FC0028EFD007F1280109
:109E3000234805F092FC0028E8D0284605F0B0FC45
:109E4000044607F1280005F0ABFC2044093020F05F
:109E50000700E946ADEB000D2946684605F087FC92
:109E60002B782F2B6C4601D16B781BB115492046FE
:109E700005F056FC07F12801204605F051FC97F843
:109E80002030112B07D197F8483122463146384609
:109E9000FFF710FF04E0224631463846FFF747FF40
:109EA00039464046FFF77AFD3846FFF7ABFCCD4612
:109EB000404607F59677BD46BDE8F083CD20030008
:109EC000CC200300CF20030003681A6AC36AD31AA8
:109ED0001944B1FBF2F302FB1311036B994210B565
:109EE0000BD24C09C26B012301F01F0103FA01F1EF
:109EF00052F82430194342F82410002010BD0368A2
:109F0000013304D04068431C584258417047012037
:109F1000704710B50B6804689C4209D040684A68D5
:109F2000904205D0944203D0181A18BF012010BDEA
:109F3000002010BD03689B6A10B5044613B9C069C0
:109F400001F0D3FF2368DB6A13B9A06A01F0CDFFEB
:109F500023681B6B23B9E06BBDE8104001F0C5BF5F
:109F600010BD00002DE9F04F984603681B6A85B0CC
:109F7000434582460F4691460E9C0F9E109D28D861
:109F8000354B364A3648122104F066FCDAF80000F8
:109F9000B9F1000F20D0D9F8003098451CD1D9F87C
:109FA0000410A14218D8836901EB030B5C4513D25E
:109FB000C4EB0B0BAB45D9F8083028BFAB46611A90
:109FC00030465A46194404F0E2FC5E445C44CBEB54
:109FD0000505002DDAD13BE03B6898450FD1796843
:109FE0008C420CD3436901EB030B5C4507D2C4EBF5
:109FF0000B0BAB4528BFAB46611ABB68E0E7436972
:10A00000B4FBF3F203FB1242AAB99D4213D3B5FB92
:10A01000F3F203FB125BCBEB05030093039343685E
:10A0200022461D4641463346A84790B9039B5D46EC
:10A030001E441C44CDE7A21AC7F800807A60009342
:10A04000D0F804B0BB684146D8470028C1D000E032
:10A05000284605B0BDE8F08F422103002821030007
:10A06000602103001FB5069C8DE81C000B460022F2
:10A0700000F11401FFF776FF04B010BD10B50C46D7
:10A080008269A068FF2104F0A8FC4FF0FF33236031
:10A0900010BD00008B6A10B5044601600BB1C361AE
:10A0A00005E0486901F012FFE06100285FD02368F5
:10A0B000DA6A0AB1A26205E0986901F007FFA062BE
:10A0C000002854D0206804F12001FFF7D7FF4FF09B
:10A0D000FF3363612368586AC20604D0274B284ABD
:10A0E00040F6130104E030B9264B254A40F614012E
:10A0F000254804F0B1FB1B6B0BB1E36305E0C0081E
:10A1000001F0E4FEE063002831D0236898695969C2
:10A11000B0FBF1F201FB120222B11C4B184A40F6CF
:10A120001F01E5E7DA69B2FBF0F300FB132020B171
:10A13000174B134A4FF40261DAE74FF0FF31A2F1F7
:10A140000803B1FBF3F30B44B3FA83F3C3F1200329
:10A15000B2EB830F04D20F4B094A40F62401C7E744
:10A160006160A160E060206184F8400010BD20467D
:10A17000FFF7E0FE6FF00B0010BD00BFD62103001B
:10A1800073230300F4210300602103000C22030069
:10A190003B2203006B220300C069F8B50E68A0F1F2
:10A1A00008050F46B6FBF5F080B1013804F03AFB24
:10A1B0000230A6EB8004B4FBF5F4204604F032FB39
:10A1C00004FB1565A5EB800038602046F8BD2DE93D
:10A1D000F04F89B09B46129B139F884608A9013B0C
:10A1E000064641F80C3D00689146FFF7D5FF0DF19A
:10A1F000180A044659461498B84718BB0CB304F023
:10A200000105C5F10205AB0002938DE801045B4630
:10A210004A4641463046FFF7A5FE98B9034605F188
:10A22000FF3B5B4506DA06991498B84701230028DE
:10A23000F7D007E008AB03EB8B0B641B5BF808BCA3
:10A24000D8E7204609B0BDE8F08F00002DE9F04FB7
:10A2500089B0064689460592139F1BB94FF0FF321D
:10A260003A6042E008A9013B41F8043D0068FFF76D
:10A2700093FF12A905463068FFF78EFF4FF0040ADE
:10A2800080460DF1140BA8452CD2C8EB0503B3FA98
:10A2900083F395FAA5F4B4FA84F4C3F11F039C4246
:10A2A00028BF1C46A3000093CDF808A0059BCDF85D
:10A2B00004B0002249463046FFF754FE059BB8B96A
:10A2C000012B03D93268126A934206D90A4B0B4A12
:10A2D0000B484FF48F6104F0BFFA012303FA04F432
:10A2E0002D1BD0E7059B3B60129B149A0020136046
:10A2F00009B0BDE8F08F00BFB7220300662303005A
:10A30000602103002DE9F04F87B00646109C119D97
:10A310000F46904625444FF001090DF1170AC4EB92
:10A32000030BAC4214D00BEB04030093CDF8089060
:10A33000CDF804A04346002239463046FFF712FE0E
:10A3400038B914F8013B9DF817209A42E9D000E093
:10A35000012007B0BDE8F08FF7B50C4609684B1C2B
:10A36000054616461ED000686268836900938768B8
:10A37000A368B847B8B926B921462868FFF77EFE1A
:10A3800010E02B689B690193A3680093314694E821
:10A390000C002846FFF7B6FF002804DBECD16FF075
:10A3A000330000E0002003B0F0BD00002DE9F04FC5
:10A3B000994603681B6A85B04B4507468846924616
:10A3C0000E9D0F9E109C25D83A4B3B4A9C212CE0B9
:10A3D000D8F80400854223D33B689B6900EB030B4C
:10A3E0005D451DD2C5EB0B0BA345D8F8083028BF3F
:10A3F000A346281A5A463146184404F0C8FA3B6866
:10A400009A695D44B5FBF2F302FB13535E44CBEB58
:10A4100004046BB1002C48D0D8F800209145D7D067
:10A4200001320DD0254B244AB721254804F014FAF7
:10A43000524641463846FFF78FFF0028EAD035E004
:10A4400038688269B5FBF2F302FB13533BBB9442BD
:10A4500025D3B4FBF2F302FB134BCBEB04030093C5
:10A46000039383682A461C4649463346A047E8B909
:10A47000BAF1000F04D1039B5C461E441D44C9E79A
:10A48000039B019300962B464A4651463846FFF7F8
:10A4900039FF00280ADBEED16FF0330006E0EB1A3B
:10A4A000C8F80090C8F80430B4E7204605B0BDE80D
:10A4B000F08F00BF4221030057230300E222030074
:10A4C000602103002DE9F04786B00546894600F17A
:10A4D0001408D71814464FF0010A0DF11706BC42B4
:10A4E0000FD08DE850044B46002241462846FFF726
:10A4F00039FD013430B9012231460E9801F0F2FBEA
:10A50000EDE7002006B0BDE8F0872DE9F04F8BB0F5
:10A510001368049300245368059380460E4627462B
:10A5200006AD4FF0100A04AB002253F82490CDF88A
:10A5300000A02B4649464046FFF794FD30BB27B1AB
:10A54000F269069B9B1A002B3ADB079B23F0004322
:10A55000132B35D9D8F80020D269934230D80DF1A9
:10A56000280B4FF0FF334BF81C3D1022294658466C
:10A5700001F0B8FB079BCDF800B023F00043103B7F
:10A58000102249464046FFF79DFF18B110F1340FE5
:10A590001ED115E0039B9BB9631C0AAA03F00103BB
:10A5A00002EB830306F11C0753F8183CB36095E8EF
:10A5B0000F00C6F80490C6F80CA087E80F0001272A
:10A5C0000134022CAFD1002F0CBF6FF033000020FC
:10A5D0000BB0BDE8F08F2DE9F34106460C46154659
:10A5E00001F124074FF01008216AE26821F00043CE
:10A5F00002F10C00043B984211D9002903DB2A60C8
:10A600006FF0010026E03A4621463046FFF77DFF15
:10A6100000BBA369C4F80C801433A361E4E70C23E6
:10A62000009361682B1D3046FFF71CFD90B96A79D5
:10A63000A979E3682B6004321144EA790A4413448F
:10A64000E3606B79AA7904331344EA791344A2696D
:10A650001344A36102B0BDE8F08130B5044693B065
:10A6600004300D46FFF74BFC40BB0190012301AACB
:10A6700007A920460293FFF748FF00BB10A8FFF789
:10A680003EFCD8B910AA07A92046FFF73EFFB0B993
:10A6900003AA07A92046FFF79EFF10B1831CEDD047
:10A6A0000DE09DF91030002BF2DB0822294605A8A9
:10A6B00004F05EF90028EBD1012000E0002013B087
:10A6C00030BD2DE9F8431D460023536201230746A0
:10A6D00088461446936202F1240605F108093046C3
:10A6E000FFF70DFCE0B9324621463846FFF70DFF73
:10A6F000C8B92A4621463846FFF76DFF18B1831CBA
:10A70000EDD0BDE8F8832B7903F07003202BF0D156
:10A7100041464846FFF7FDFB0028EAD1012002E050
:10A720000020BDE8F883BDE8F883F7B5054604309E
:10A730000F461646FFF7E3FB08B100201DE000902E
:10A7400001236A46314628460193FFF7DEFEA0B991
:10A7500006F124042046FFF7D2FB0028EDD139464C
:10A760002046FFF7D6FB38B1224631462846FFF790
:10A77000CCFE0028EED000E0012003B0F0BD0000C8
:10A780002DE9F04F85B01E68029322231371082330
:10A79000537100239371D371436893608368D360CE
:10A7A00007468B4614464749304605F001F806EB4C
:10A7B000000882464349404604F0E1FF01288146F3
:10A7C00008EB000504D116F80A302E2B0AD107E059
:10A7D000022807D102463C49404604F0C9F808B9AE
:10A7E0002E46E0E72E464FF0010A3649284604F08F
:10A7F000DFFF05443349284604F0C1FF034690B10A
:10A8000002280CD1024603902F49284604F0B0F8E4
:10A81000039B20B9BAF1010A03D1AE1CC3E70AF1C8
:10A82000010A1D44E1E798F80000002846D0029B89
:10A83000C3F800802379222B3ED104F108052A4673
:10A8400059463846FFF761FE002837D107F1140A50
:10A85000224659463846FFF7BEFE78BB237903F0FF
:10A860007F03112B01D0222BF2D1E3799945EFD14F
:10A870002368627904331344A2798DE800031344FA
:10A880005146DBF804203846FFF73CFD002815DB75
:10A89000DED094F90430002B85DA29463846FFF7DC
:10A8A000DCFE002803D009DB6FF0010006E023790D
:10A8B00003F07F03237176E76FF0130005B0BDE866
:10A8C000F08F00BFCF200300CC20030030B587B04D
:10A8D00006AB054643F8142D42684A6082688A60D8
:10A8E00002AA0C46FFF74CFFB8B99DF80C30222B9A
:10A8F00011D104AA21462846FFF707FE68B963680C
:10A900002361A36863610E23A3611023E3602B69B5
:10A9100023602C6101E06FF0130007B030BD0369C4
:10A9200000F110023BB18B4202D11B68136002E0C0
:10A930001A461B68F6E700207047000070B50D4608
:10A94000144686B006464FF484720021204604F077
:10A9500044F8AB690E2B05D12046222300F8083BB2
:10A96000274906E00F2B13D12046222300F8083B8D
:10A97000244904F0FCFEAB690133AB6101203DE0EA
:10A980009DF80C3003F07F02112A0CD0222A0AD045
:10A9900002AA29463046FFF71EFE0028F0D0821C8E
:10A9A00008BF00202AE01B060CD504A93046FFF79B
:10A9B00054FE002822DBEBD19DF80C3003F07F031E
:10A9C0008DF80C309DF80C302370112B08BF059BBF
:10A9D000029A08BF63609DF80D309DF80E10043296
:10A9E0001A449DF80F3000930A4404F10803696883
:10A9F0003046FFF737FB002808BF012006B070BDC6
:10AA0000CD200300CC20030010B501F110020C464C
:10AA1000FFF77BFD38B9236963606369A3600E2388
:10AA2000A3611023E36010BD086A7047CB694869D1
:10AA300013F4003F03D00B6A984238BF18467047A2
:10AA400070B594B014AB154643F8441D05AA09A986
:10AA50000646FFF795FE014648BB4FF48472284630
:10AA600003F0BBFF9DF818302B70112B04BF089B1F
:10AA70006B60311D07A8FFF74CFA05F10803044687
:10AA800020B90D49184604F072FE11E0059A9DF8B0
:10AA900019109DF81B00009004320A449DF81A100A
:10AAA00030460A440A99FFF7DDFA044600E00446FE
:10AAB000204614B070BD00BFCF20030030B599B060
:10AAC0000546FFF7E7FA002834D12B68E8621B6AD5
:10AAD00028636863AB630290012302AA0DA928468C
:10AAE0000393FFF712FD044600BB202300931022BE
:10AAF00005AB0E992846FFF7B5FA0446B0B9069B98
:10AB00006B60079BAB6008220B490BA803F030FF7A
:10AB100038B90A9B1A0C012A06D19BB2012B03D823
:10AB200008E06FF0330401E06FF015042846FFF7EA
:10AB300001FA204619B030BDFE22030008B5FFF728
:10AB4000F9F9002008BD2DE9F041054696B0043022
:10AB50000E461746FFF7D3F9002879D10123059057
:10AB6000069305993846B047002872D106993846B1
:10AB7000B04700286DD105AA0BA92846FFF7C5FCF0
:10AB8000002866D10C24139B0E9A23F0004302F197
:10AB90000C01043B994226D8009408AB0C99284636
:10ABA000FFF760FA002854D19DF821309DF822204B
:10ABB000043313449DF8232013440E9A13440E9338
:10ABC0009DF8203003F07003102BDCD10A9B002B82
:10ABD000D9D08DE8C8000246099B05F1140128462A
:10ABE000FFF7F5FACCE7149B059305A8159B069390
:10ABF000FFF785F90028B4D0EC6805F114082CB3F0
:10AC0000E369DA0303D4E3699B0311D50EE06369BA
:10AC1000002BF8D08DE8C80004F12C0223694146CE
:10AC20002846FFF7D4FA0028EDD012E0236A0BB9CA
:10AC30002468E4E78DE8C80004F12C02636A414609
:10AC40002846FFF7C4FA0028F2D002E0204600E0D0
:10AC5000002016B0BDE8F081F8B504460D46012687
:10AC6000D4F830E0626BA36B72452BD0511C61634A
:10AC7000013BE76BA363510902F01F0357F8211052
:10AC800006FA03F30B42EDD1E36A1A442368196A0A
:10AC9000B2FBF1F301FB13222A60266B0125626BE4
:10ACA000B2422CD0510902F01F0357F8210005FAD7
:10ACB00003F3184005D0A36B0132013B6263A36329
:10ACC000EDE7F8BDEBB12068E26A076A7244B2FBB7
:10ACD000F7F107FB1122E262426A934294BF2363B9
:10ACE000226300216163D208E06B03F076FE224606
:10ACF00005492046FFF727FF0028B1D0F8BD002006
:10AD0000F8BD6FF01B00F8BDC99E020037B50C46B8
:10AD100004310546FFF7A0FFF0B904F10801284609
:10AD2000FFF79AFFC0B904230093024604F11C0305
:10AD300061682846FFF796F910B110F1340F0BD176
:10AD4000E3690133E361142323624FF0FF3363624D
:10AD5000A3621023E360002003B030BD2DE9F04F63
:10AD6000044687B00E4600F1140A05A92046FFF7F5
:10AD700073FF002846D120680599C36898470546A7
:10AD800028B9804606F12C0B4FF0010920E010F1A4
:10AD9000340FEAD037E00DF11307CDF80890019792
:10ADA000CDF80080736A5A4651462046FFF7DAF81C
:10ADB00040BBCDF808900197CDF80080059B524626
:10ADC00004F120012046FFF7F1FA28B908F1010843
:10ADD000B36A9845DFD303E010F1340FC5D011E01A
:10ADE0002368A16A9A69706B03F0D1FD236AF3624C
:10ADF000636A336304F120012068FFF73FF9059B84
:10AE0000736200E00546284607B0BDE8F08F0000F9
:10AE10002DE9F04F8DB005460793CB69059203F0FD
:10AE20000302012A0C4600F033815E0308D4E36973
:10AE30001A050AD56269216A914238BF226204E08C
:10AE400000F034F90028F2D024E113F4003602D0E7
:10AE5000DDF81C8044E0276A63699F42F8D92362C9
:10AE6000236A9F42F4D901230DF12202214628468C
:10AE70008DF82260FFF7CCFF0028F1DA0AE113F425
:10AE8000003F04F12C0A30D02B68A26ADB699A4299
:10AE900042D0A946A76A59F8143BDB69DF1B474536
:10AEA00028BF474604F12C0A059B0193A36A00932F
:10AEB0000297636A4A4651462846FFF777FA002808
:10AEC00040F0D280236A3B442362A36A3B44A362DE
:10AED000059B3B4405932B681B6AAB63C7EB0808D3
:10AEE000E369B8F1000FCAD1CDE0236AA3B104F140
:10AEF0002802013B029204F124020192009322698C
:10AF0000636951462846FFF7A1F9002840F0B68052
:10AF100051462868FFF7B2F82B68626A1B6AAB6378
:10AF2000236A099205F114090A930BA92846FFF731
:10AF300093FE002840F08B800B99012903D92868E3
:10AF4000036A994204D9554B554A40F28C416DE051
:10AF5000C3689847064618B110F1340F73D077E0F4
:10AF60000A9B4BB30CA9013B41F8083D2868FFF749
:10AF700013F92A680A9BD269013393420A931ED0BF
:10AF80004FF0010B0DF123070A9B9E4214D28DE86E
:10AF9000C008099B002249462846FEF7E3FF002827
:10AFA00055D18DE8C0080B9B4A4651462846FFF70D
:10AFB000FDF9E0B90136E7E70B9A626241E000F182
:10AFC000010B9BFAABFBBBFA8BFB0BF10103069366
:10AFD000374604230293BE0009AB019300960B9BF6
:10AFE0004A4651462846FFF7E1F9099B18B110F18E
:10AFF000340F28D02BE0BB4503D1099B012B0DD882
:10B0000010E00422029209AA0192009602464946E3
:10B010002846FEF7A7FF0028EFD018E02A68126A3A
:10B02000934206D91F4B1E4A40F2D3411E4803F0FB
:10B0300013FC069B0137BB42CBD80B9B6362069B7C
:10B040009B00A3620BE04FF0FF332B626DE70646D7
:10B050002EB1E36943F40023E36130461AE0E3696B
:10B0600043F40033E36114E710F1340F06D12146B5
:10B070002846FFF773FE00283FF416AFE36943F458
:10B080000023E36106E023F40023E361079801E075
:10B090006FF008000DB0BDE8F08F00BF072303007C
:10B0A0008A230300B722030060210300CB695A03FF
:10B0B0002DE9F04144BF23F48023CB610546C869E4
:10B0C00044BF4FF0FF32CA6210F4003090B00C461B
:10B0D00052D00E6A3822002102A805F1140703F0AD
:10B0E0007CFC2369069397E80700636907930123B3
:10B0F000099310AB03E907004FF0FF330A966B6129
:10B100009846226A63699A4219D201230DF1070217
:10B1100002A9284600F033F800282DDB01230DF1A9
:10B12000070221462846FFF773FE002824DB6B69DF
:10B1300001331CBFCDF83480C5F81480E1E704F179
:10B140002C083A4641462846FFF706F948B110F167
:10B15000340F11D121462846FFF700FE0028F0D019
:10B160000AE0636A2361236A6361E369266223F468
:10B17000003343F48033E36110B0BDE8F0812DE982
:10B18000F04F9146CA691E4602F00303022B87B0B6
:10B1900080460C4651D0920310D4206A62699042D6
:10B1A0004ED2101A864228BF064604F128033746BD
:10B1B00004F12C0A059304F1240B27E0FFF776FF36
:10B1C0000028EAD03DE0E3695B0322D5D8F80030DF
:10B1D000A26ADB699A421CD0D8F80020A36AD5691C
:10B1E000ED1ABD4228BF3D468DE808020295636A0C
:10B1F000002251464046FEF7B5FE10BB236A2B44A1
:10B200002362A36A2B44A362A9447F1B002FDAD1D7
:10B2100011E0059B0293236A0093CDF804B06369A3
:10B22000226951464046FFF711F850B9E36943F4EB
:10B230008023E361D0E7304603E06FF0080000E0D0
:10B24000002007B0BDE8F08F70B50D4614461E46CD
:10B25000FFF72CFF98B96EB1012E02D1002C2A6A9B
:10B2600003E0022E07D16A69002C02DA634293429E
:10B2700003D814442C62286A70BD6FF0150070BDAD
:10B28000F0B50127061D80F84070A7B0044630468F
:10B29000FEF735FE0546002878D101462C2205A888
:10B2A00003F09BFB4FF000432C22294610A80D937E
:10B2B00003F093FB1A9723681B6A9D4263D219A877
:10B2C000FEF71DFE002861D119AA10A92046FFF73C
:10B2D0001CF9002865D10D9B002B1DDB3046FEF7C5
:10B2E0000EFE18B1199B0E931A9B53E001AB1BAADB
:10B2F0000EA92046FFF7E5F9002852DBF2D0039BA8
:10B300000E9A0F99934202D10498884204D08B423E
:10B310003ED104998A423BD11BAA10A92046FFF7CF
:10B320005AF980B1831C3CD10DF1400EBEE80F00EC
:10B3300005AF0FC7BEE80F000FC79EE80700013535
:10B3400087E80700B7E79DF97030002BE4DA1DA904
:10B350002046FFF782F9002823DB05D01BAA10A99D
:10B36000204600F055FA0BE09DF8703003F07F03A3
:10B370008DF870301BAA034610A9204600F055F93D
:10B380000028C9D00DE06FF033000AE0002008E08B
:10B390000E93049B0F9300231A4605A9204600F044
:10B3A00002F827B0F0BD2DE9F04F9DB04C68069330
:10B3B000CB698F68049201330D46CB614F608C607E
:10B3C00006460C320021069B994202F1100209DA6E
:10B3D000286A52F8103C034452F8180C1B1A2B62CE
:10B3E0000131F0E7002309970A94059330686968F2
:10B3F000C36898470446002840F091800DF1700919
:10B400004FF0FF3349F83C3D05F11C08102241463E
:10B41000484606F1200A102700F064FC8DE8100170
:10B42000224602976B6851463046FEF7BFFF04463E
:10B43000002874D1B8468346CDF81C902B6A23F0BF
:10B440000043043B9F424CD2069B9B4527DA4FEAC0
:10B450000B13049A02EB0309D35898451FD1D9F86E
:10B460000C20D9F80810079800F03CFCD9F80C30F3
:10B470000293D9F80830019300976B680022514677
:10B480003046FEF793FF0446002848D1D9F804302F
:10B490009844D9F80C300BF1010B1F44CEE701237F
:10B4A0000093424611AB0A993046FEF7DBFD044695
:10B4B000002840F0B680012211A9079800F012FC84
:10B4C0000123029311AB0193224600976B6851460A
:10B4D0003046FEF76BFF044608BB08F10108013750
:10B4E000ACE704230DF1340802938DE880016B680A
:10B4F000002251463046FEF759FF044678B94FF016
:10B50000FF330246736151463046FEF725FF28B9E6
:10B51000306803699847044628B100E0044614F1F6
:10B52000340F1AD07DE01CAF4FF0FF3347F82C3DAD
:10B530002B6A009723F000430246043B69683046BB
:10B54000FEF7C0FF00286BD10D9B119A9A4204D1DF
:10B55000059BCBB936692F1D5CE04FF0FF3333629A
:10B5600000230B930BA9012309A80C93FEF7D1FC30
:10B57000002852D0291D3046FFF76EFB01230593AA
:10B5800000283FF433AF4BE006F104094846FEF7CC
:10B59000B6FC00BB43463A4609A93046FFF791F88E
:10B5A00000283DDB17D06B680F93AB6810934246C1
:10B5B00000233946304600F038F8F0B9494609A86A
:10B5C000FEF7A7FC18B96B687360AB68B3603046D0
:10B5D000FFF756FE11E03A4609A93046FFF7A5F8F5
:10B5E00000280ADBB6D06B681A93AB681B93002364
:10B5F0001A4639463046FFF7D6FE0028AAD00FE09B
:10B600003946301DFEF785FC18B96B687360AB686E
:10B61000B3603668002EF3D103E06FF0330400E02E
:10B62000044620461DB0BDE8F08F70B5154688B0C1
:10B6300055F8044BD27906930C26002B0094059202
:10B640000792344414BF022301236A4601960295EF
:10B6500003960494FFF7A7FE08B070BD30B593B011
:10B660000C460546FFF722FD014600283AD1E36962
:10B6700003F41023B3F5803F34D1221D1046FEF7AA
:10B680003EFC00282ED107A92846FEF73EFF50BBFE
:10B690000146102203A803F0A0F90C23E2680093EE
:10B6A0000899039204AB2846FEF7DCFCD8B99DF854
:10B6B0001030112B06D00D4B0D4A0E4840F213618D
:10B6C00003F0CAF8236905936369069303AA034646
:10B6D00007A92846FFF7A9FF28B9E36923F48033B7
:10B6E000E36100E0084613B030BD00BF362303001D
:10B6F0007C2303006021030070B505460C46FFF76C
:10B70000ADFFEB68064605F10C023BB19C4202D14D
:10B710002368136002E01A461B68F6E7A3690BB1C1
:10B720001B682BB92B685B6B13B9606B00F0DDFBFA
:10B73000304670BD2DE9F043804695B00E46174661
:10B74000994601F124047A79B979F879336A043297
:10B750000A44D8F800100244C9691A448A4211D830
:10B76000043B47F8043B00220C2109930A920C91F8
:10B770000D930E920B97CDF83C901090022309AADE
:10B78000314637E0002B39DB35460FCD09AC0FC40D
:10B790000FCD0FC495E8070084E807003146404606
:10B7A000FFF7B4FA002830D1129B7362139BB36287
:10B7B000336A02903A46043B42F8043B01930392F9
:10B7C00005930C22FB7904920690089301AA0223A8
:10B7D00031464046CDF81C90FFF7E5FDA8B9119B16
:10B7E00043F00043119373681293B36813930246B6
:10B7F000034609A94046FFF7D6FD06E0224631463A
:10B800004046FEF782FE00289DD015B0BDE8F083CB
:10B810002DE9F0430B6A0E4623F00041537915469B
:10B82000927904331344EA791344143399428DB066
:10B83000074618D101AA311DFEF777FF002865DB06
:10B84000099B002B0FDA326A62F000421340099321
:10B85000736A0A93B36A0B9300231A4601A9384608
:10B86000FFF7A1FD52E02B6801936B79AA790433AD
:10B870001A44EB791344029300230393049301AA1F
:10B88000012331463846FFF78EFD00283ED1FC6883
:10B8900006F104094FF0FF38C4B14946201DFEF7F8
:10B8A00038FB88B9E3682A68934204D1C4F804805D
:10B8B000C4F8088008E007D96A79A97904321144EC
:10B8C000EA790A449B1AE3602468E5E73C69043698
:10B8D000DCB13146201DFEF71CFBA0B9E3682A68E5
:10B8E000934210D96A79A97904321144EA790A4459
:10B8F0009B1AE3606B79A979EA7904330B441A4403
:10B90000A3699B1AA3612468E2E720460DB0BDE855
:10B91000F08300002DE9F047A6B00546FEF7BAFB1C
:10B920000446002840F086802B685A6A0146D208F7
:10B93000E86B03F052F82A68EC62136A526A9A4282
:10B9400094BF2A632B636C63AB6310A92846FFF78F
:10B95000DDF9044600286AD11BA92846FFF7D6F96D
:10B960000446002863D1034602461BA92846FFF778
:10B970001AFD044600285AD11C9F1D9E6F60014687
:10B98000AE60242207A803F028F82E228DF820208C
:10B9900014228DF8212008228DF823202A68099787
:10B9A000D1690B912549126A08680C9249680A9678
:10B9B0004FF001120D920EAA102303C24FF020097E
:10B9C000342219971A96079318920227264698460A
:10B9D0000DEB090A012303AA10A92846CDF80C8013
:10B9E000CDF81090CDF814A0CDF81890FFF7DBFC3F
:10B9F000044610B110F1340F19D11EB9B4FA84F411
:10BA0000640900E00124013F2646E3D16CB1012323
:10BA100001AA10A9284601970293FEF776FD044675
:10BA200028B92B681B6AAB6301E06FF0330428462A
:10BA3000FEF780FA204626B0BDE8F087FE2203001C
:10BA400030B590F840309DB0054601914BB101AB47
:10BA500002AA06A92846FEF793FE831C04460CD1D1
:10BA600004E0FFF70DFC0028F1D03EE02F21019803
:10BA700003F065FE002837D104E0002808BF6FF00E
:10BA8000100032E02B681B6AAB6311A92846FFF750
:10BA90003DF950BB0F9B1A93109B1B930246034624
:10BAA00011A92846FFF77FFCF8B9019C8DF80E001C
:10BAB00022238DF80C30204608238DF80D3003F03A
:10BAC0006FFE129A139B8DF80F00049205930F924C
:10BAD000109302AA234606A92846FFF72BFE20B999
